{
  "abi": [
    {
      "inputs": [
        {
          "internalType": "address",
          "name": "_backendWallet",
          "type": "address"
        },
        {
          "internalType": "uint256",
          "name": "_dailyRewardAmount",
          "type": "uint256"
        },
        {
          "internalType": "uint256",
          "name": "_claimCooldown",
          "type": "uint256"
        }
      ],
      "stateMutability": "nonpayable",
      "type": "constructor"
    },
    {
      "anonymous": false,
      "inputs": [
        {
          "indexed": true,
          "internalType": "address",
          "name": "user",
          "type": "address"
        },
        {
          "indexed": false,
          "internalType": "uint256",
          "name": "amount",
          "type": "uint256"
        }
      ],
      "name": "DailyClaimed",
      "type": "event"
    },
    {
      "anonymous": false,
      "inputs": [
        {
          "indexed": true,
          "internalType": "address",
          "name": "user",
          "type": "address"
        },
        {
          "indexed": true,
          "internalType": "uint256",
          "name": "questId",
          "type": "uint256"
        }
      ],
      "name": "QuestCompleted",
      "type": "event"
    },
    {
      "anonymous": false,
      "inputs": [
        {
          "indexed": true,
          "internalType": "uint256",
          "name": "questId",
          "type": "uint256"
        },
        {
          "indexed": false,
          "internalType": "string",
          "name": "title",
          "type": "string"
        },
        {
          "indexed": false,
          "internalType": "uint256",
          "name": "reward",
          "type": "uint256"
        },
        {
          "indexed": false,
          "internalType": "uint256",
          "name": "endDate",
          "type": "uint256"
        }
      ],
      "name": "QuestCreated",
      "type": "event"
    },
    {
      "inputs": [],
      "name": "backendWallet",
      "outputs": [
        {
          "internalType": "address",
          "name": "",
          "type": "address"
        }
      ],
      "stateMutability": "view",
      "type": "function"
    },
    {
      "inputs": [],
      "name": "claimCooldown",
      "outputs": [
        {
          "internalType": "uint256",
          "name": "",
          "type": "uint256"
        }
      ],
      "stateMutability": "view",
      "type": "function"
    },
    {
      "inputs": [
        {
          "internalType": "address",
          "name": "_user",
          "type": "address"
        },
        {
          "internalType": "uint256",
          "name": "_questId",
          "type": "uint256"
        }
      ],
      "name": "completeQuestForUser",
      "outputs": [],
      "stateMutability": "nonpayable",
      "type": "function"
    },
    {
      "inputs": [
        {
          "internalType": "string",
          "name": "_title",
          "type": "string"
        },
        {
          "internalType": "string",
          "name": "_description",
          "type": "string"
        },
        {
          "internalType": "uint256",
          "name": "_reward",
          "type": "uint256"
        },
        {
          "internalType": "string[]",
          "name": "_requirements",
          "type": "string[]"
        },
        {
          "internalType": "uint256",
          "name": "_estimatedTimeMinutes",
          "type": "uint256"
        },
        {
          "internalType": "uint256",
          "name": "_endDate",
          "type": "uint256"
        }
      ],
      "name": "createQuest",
      "outputs": [],
      "stateMutability": "nonpayable",
      "type": "function"
    },
    {
      "inputs": [
        {
          "internalType": "address",
          "name": "",
          "type": "address"
        }
      ],
      "name": "dailyClaims",
      "outputs": [
        {
          "internalType": "uint256",
          "name": "lastClaimTime",
          "type": "uint256"
        },
        {
          "internalType": "bool",
          "name": "claimed",
          "type": "bool"
        }
      ],
      "stateMutability": "view",
      "type": "function"
    },
    {
      "inputs": [],
      "name": "dailyRewardAmount",
      "outputs": [
        {
          "internalType": "uint256",
          "name": "",
          "type": "uint256"
        }
      ],
      "stateMutability": "view",
      "type": "function"
    },
    {
      "inputs": [],
      "name": "getAllQuests",
      "outputs": [
        {
          "components": [
            {
              "internalType": "uint256",
              "name": "id",
              "type": "uint256"
            },
            {
              "internalType": "string",
              "name": "title",
              "type": "string"
            },
            {
              "internalType": "string",
              "name": "description",
              "type": "string"
            },
            {
              "internalType": "uint256",
              "name": "reward",
              "type": "uint256"
            },
            {
              "internalType": "string[]",
              "name": "requirements",
              "type": "string[]"
            },
            {
              "internalType": "uint256",
              "name": "estimatedTimeMinutes",
              "type": "uint256"
            },
            {
              "internalType": "bool",
              "name": "isActive",
              "type": "bool"
            },
            {
              "internalType": "uint256",
              "name": "createdAt",
              "type": "uint256"
            },
            {
              "internalType": "uint256",
              "name": "endDate",
              "type": "uint256"
            }
          ],
          "internalType": "struct QuestTracker.Quest[]",
          "name": "",
          "type": "tuple[]"
        }
      ],
      "stateMutability": "view",
      "type": "function"
    },
    {
      "inputs": [
        {
          "internalType": "uint256",
          "name": "_questId",
          "type": "uint256"
        }
      ],
      "name": "getQuest",
      "outputs": [
        {
          "components": [
            {
              "internalType": "uint256",
              "name": "id",
              "type": "uint256"
            },
            {
              "internalType": "string",
              "name": "title",
              "type": "string"
            },
            {
              "internalType": "string",
              "name": "description",
              "type": "string"
            },
            {
              "internalType": "uint256",
              "name": "reward",
              "type": "uint256"
            },
            {
              "internalType": "string[]",
              "name": "requirements",
              "type": "string[]"
            },
            {
              "internalType": "uint256",
              "name": "estimatedTimeMinutes",
              "type": "uint256"
            },
            {
              "internalType": "bool",
              "name": "isActive",
              "type": "bool"
            },
            {
              "internalType": "uint256",
              "name": "createdAt",
              "type": "uint256"
            },
            {
              "internalType": "uint256",
              "name": "endDate",
              "type": "uint256"
            }
          ],
          "internalType": "struct QuestTracker.Quest",
          "name": "",
          "type": "tuple"
        }
      ],
      "stateMutability": "view",
      "type": "function"
    },
    {
      "inputs": [],
      "name": "getTotalQuests",
      "outputs": [
        {
          "internalType": "uint256",
          "name": "",
          "type": "uint256"
        }
      ],
      "stateMutability": "view",
      "type": "function"
    },
    {
      "inputs": [
        {
          "internalType": "address",
          "name": "_user",
          "type": "address"
        }
      ],
      "name": "getUserDetails",
      "outputs": [
        {
          "components": [
            {
              "internalType": "uint256[]",
              "name": "completedQuestIds",
              "type": "uint256[]"
            },
            {
              "internalType": "uint256",
              "name": "totalQuestsCompleted",
              "type": "uint256"
            },
            {
              "components": [
                {
                  "internalType": "uint256",
                  "name": "lastClaimTime",
                  "type": "uint256"
                },
                {
                  "internalType": "bool",
                  "name": "claimed",
                  "type": "bool"
                }
              ],
              "internalType": "struct QuestTracker.DailyClaim",
              "name": "dailyClaimInfo",
              "type": "tuple"
            },
            {
              "internalType": "bool",
              "name": "canClaimDaily",
              "type": "bool"
            },
            {
              "internalType": "uint256",
              "name": "timeUntilNextClaim",
              "type": "uint256"
            }
          ],
          "internalType": "struct QuestTracker.UserDetails",
          "name": "",
          "type": "tuple"
        }
      ],
      "stateMutability": "view",
      "type": "function"
    },
    {
      "inputs": [],
      "name": "owner",
      "outputs": [
        {
          "internalType": "address",
          "name": "",
          "type": "address"
        }
      ],
      "stateMutability": "view",
      "type": "function"
    },
    {
      "inputs": [],
      "name": "questCounter",
      "outputs": [
        {
          "internalType": "uint256",
          "name": "",
          "type": "uint256"
        }
      ],
      "stateMutability": "view",
      "type": "function"
    },
    {
      "inputs": [
        {
          "internalType": "uint256",
          "name": "",
          "type": "uint256"
        }
      ],
      "name": "quests",
      "outputs": [
        {
          "internalType": "uint256",
          "name": "id",
          "type": "uint256"
        },
        {
          "internalType": "string",
          "name": "title",
          "type": "string"
        },
        {
          "internalType": "string",
          "name": "description",
          "type": "string"
        },
        {
          "internalType": "uint256",
          "name": "reward",
          "type": "uint256"
        },
        {
          "internalType": "uint256",
          "name": "estimatedTimeMinutes",
          "type": "uint256"
        },
        {
          "internalType": "bool",
          "name": "isActive",
          "type": "bool"
        },
        {
          "internalType": "uint256",
          "name": "createdAt",
          "type": "uint256"
        },
        {
          "internalType": "uint256",
          "name": "endDate",
          "type": "uint256"
        }
      ],
      "stateMutability": "view",
      "type": "function"
    },
    {
      "inputs": [
        {
          "internalType": "address",
          "name": "_user",
          "type": "address"
        }
      ],
      "name": "setDailyClaimed",
      "outputs": [],
      "stateMutability": "nonpayable",
      "type": "function"
    },
    {
      "inputs": [
        {
          "internalType": "address",
          "name": "",
          "type": "address"
        }
      ],
      "name": "totalQuestsCompleted",
      "outputs": [
        {
          "internalType": "uint256",
          "name": "",
          "type": "uint256"
        }
      ],
      "stateMutability": "view",
      "type": "function"
    },
    {
      "inputs": [
        {
          "internalType": "address",
          "name": "",
          "type": "address"
        },
        {
          "internalType": "uint256",
          "name": "",
          "type": "uint256"
        }
      ],
      "name": "userQuests",
      "outputs": [
        {
          "internalType": "bool",
          "name": "completed",
          "type": "bool"
        },
        {
          "internalType": "uint256",
          "name": "completedAt",
          "type": "uint256"
        }
      ],
      "stateMutability": "view",
      "type": "function"
    }
  ],
  "devdoc": {
    "author": "Quest Rewards Platform",
    "details": "Simplified quest tracking contract for blockchain rewards system",
    "kind": "dev",
    "methods": {
      "completeQuestForUser(address,uint256)": {
        "details": "Complete a quest for a user (only backend or owner can call)",
        "params": {
          "_questId": "Quest ID to complete",
          "_user": "User address to complete quest for"
        }
      },
      "createQuest(string,string,uint256,string[],uint256,uint256)": {
        "details": "Create a new quest (only owner)",
        "params": {
          "_description": "Quest description",
          "_endDate": "Unix timestamp when quest expires",
          "_estimatedTimeMinutes": "Estimated completion time in minutes",
          "_requirements": "Array of quest requirements",
          "_reward": "Token reward amount",
          "_title": "Quest title"
        }
      },
      "getAllQuests()": {
        "details": "Get all quests",
        "returns": {
          "_0": "Array of all quests"
        }
      },
      "getQuest(uint256)": {
        "details": "Get quest details by ID",
        "params": {
          "_questId": "Quest ID"
        },
        "returns": {
          "_0": "Quest struct"
        }
      },
      "getTotalQuests()": {
        "details": "Get total number of quests",
        "returns": {
          "_0": "Total quest count"
        }
      },
      "getUserDetails(address)": {
        "details": "Get all user details in one call",
        "params": {
          "_user": "User address"
        },
        "returns": {
          "_0": "UserDetails struct with all user information"
        }
      },
      "setDailyClaimed(address)": {
        "details": "Set daily reward as claimed for a user (only owner or backend)",
        "params": {
          "_user": "User address to mark as claimed"
        }
      }
    },
    "title": "QuestTracker",
    "version": 1
  },
  "evm": {
    "assembly": "    /* \"QuestTracker.sol\":204:9066  contract QuestTracker {... */\n  mstore(0x40, 0xe0)\n    /* \"QuestTracker.sol\":2677:3248  constructor(... */\n  callvalue\n  dup1\n  iszero\n  tag_1\n  jumpi\n  0x00\n  dup1\n  revert\ntag_1:\n  pop\n  mload(0x40)\n  sub(codesize, bytecodeSize)\n  dup1\n  bytecodeSize\n  dup4\n  codecopy\n  dup2\n  add\n  0x40\n  dup2\n  swap1\n  mstore\n  tag_2\n  swap2\n  tag_3\n  jump\t// in\ntag_2:\n  sub(shl(0xa0, 0x01), 0x01)\n    /* \"QuestTracker.sol\":2818:2846  _backendWallet != address(0) */\n  dup4\n  and\n    /* \"QuestTracker.sol\":2810:2881  require(_backendWallet != address(0), \"Invalid backend wallet address\") */\n  tag_6\n  jumpi\n  mload(0x40)\n  shl(0xe5, 0x461bcd)\n  dup2\n  mstore\n    /* \"#utility.yul\":633:635   */\n  0x20\n    /* \"QuestTracker.sol\":2810:2881  require(_backendWallet != address(0), \"Invalid backend wallet address\") */\n  0x04\n  dup3\n  add\n    /* \"#utility.yul\":615:636   */\n  mstore\n    /* \"#utility.yul\":672:674   */\n  0x1e\n    /* \"#utility.yul\":652:670   */\n  0x24\n  dup3\n  add\n    /* \"#utility.yul\":645:675   */\n  mstore\n    /* \"#utility.yul\":711:743   */\n  0x496e76616c6964206261636b656e642077616c6c657420616464726573730000\n    /* \"#utility.yul\":691:709   */\n  0x44\n  dup3\n  add\n    /* \"#utility.yul\":684:744   */\n  mstore\n    /* \"#utility.yul\":761:779   */\n  0x64\n  add\n    /* \"QuestTracker.sol\":2810:2881  require(_backendWallet != address(0), \"Invalid backend wallet address\") */\ntag_7:\n  mload(0x40)\n  dup1\n  swap2\n  sub\n  swap1\n  revert\ntag_6:\n    /* \"QuestTracker.sol\":2921:2922  0 */\n  0x00\n    /* \"QuestTracker.sol\":2900:2918  _dailyRewardAmount */\n  dup3\n    /* \"QuestTracker.sol\":2900:2922  _dailyRewardAmount > 0 */\n  gt\n    /* \"QuestTracker.sol\":2892:2962  require(_dailyRewardAmount > 0, \"Daily reward must be greater than 0\") */\n  tag_9\n  jumpi\n  mload(0x40)\n  shl(0xe5, 0x461bcd)\n  dup2\n  mstore\n    /* \"#utility.yul\":992:994   */\n  0x20\n    /* \"QuestTracker.sol\":2892:2962  require(_dailyRewardAmount > 0, \"Daily reward must be greater than 0\") */\n  0x04\n  dup3\n  add\n    /* \"#utility.yul\":974:995   */\n  mstore\n    /* \"#utility.yul\":1031:1033   */\n  0x23\n    /* \"#utility.yul\":1011:1029   */\n  0x24\n  dup3\n  add\n    /* \"#utility.yul\":1004:1034   */\n  mstore\n    /* \"#utility.yul\":1070:1104   */\n  0x4461696c7920726577617264206d757374206265206772656174657220746861\n    /* \"#utility.yul\":1050:1068   */\n  0x44\n  dup3\n  add\n    /* \"#utility.yul\":1043:1105   */\n  mstore\n  shl(0xec, 0x06e203)\n    /* \"#utility.yul\":1121:1139   */\n  0x64\n  dup3\n  add\n    /* \"#utility.yul\":1114:1147   */\n  mstore\n    /* \"#utility.yul\":1164:1183   */\n  0x84\n  add\n    /* \"QuestTracker.sol\":2892:2962  require(_dailyRewardAmount > 0, \"Daily reward must be greater than 0\") */\n  tag_7\n    /* \"#utility.yul\":790:1189   */\n  jump\n    /* \"QuestTracker.sol\":2892:2962  require(_dailyRewardAmount > 0, \"Daily reward must be greater than 0\") */\ntag_9:\n    /* \"QuestTracker.sol\":2999:3006  1 hours */\n  0x0e10\n    /* \"QuestTracker.sol\":2981:2995  _claimCooldown */\n  dup2\n    /* \"QuestTracker.sol\":2981:3006  _claimCooldown >= 1 hours */\n  lt\n  iszero\n    /* \"QuestTracker.sol\":2973:3043  require(_claimCooldown >= 1 hours, \"Cooldown must be at least 1 hour\") */\n  tag_12\n  jumpi\n  mload(0x40)\n  shl(0xe5, 0x461bcd)\n  dup2\n  mstore\n    /* \"#utility.yul\":1396:1398   */\n  0x20\n    /* \"QuestTracker.sol\":2973:3043  require(_claimCooldown >= 1 hours, \"Cooldown must be at least 1 hour\") */\n  0x04\n  dup3\n  add\n    /* \"#utility.yul\":1378:1399   */\n  dup2\n  swap1\n  mstore\n    /* \"#utility.yul\":1415:1433   */\n  0x24\n  dup3\n  add\n    /* \"#utility.yul\":1408:1438   */\n  mstore\n    /* \"#utility.yul\":1474:1508   */\n  0x436f6f6c646f776e206d757374206265206174206c65617374203120686f7572\n    /* \"#utility.yul\":1454:1472   */\n  0x44\n  dup3\n  add\n    /* \"#utility.yul\":1447:1509   */\n  mstore\n    /* \"#utility.yul\":1526:1544   */\n  0x64\n  add\n    /* \"QuestTracker.sol\":2973:3043  require(_claimCooldown >= 1 hours, \"Cooldown must be at least 1 hour\") */\n  tag_7\n    /* \"#utility.yul\":1194:1550   */\n  jump\n    /* \"QuestTracker.sol\":2973:3043  require(_claimCooldown >= 1 hours, \"Cooldown must be at least 1 hour\") */\ntag_12:\n    /* \"QuestTracker.sol\":3064:3069  owner */\n  0x00\n    /* \"QuestTracker.sol\":3064:3082  owner = msg.sender */\n  dup1\n  sload\n  not(sub(shl(0xa0, 0x01), 0x01))\n  and\n    /* \"QuestTracker.sol\":3072:3082  msg.sender */\n  caller\n    /* \"QuestTracker.sol\":3064:3082  owner = msg.sender */\n  or\n  dup2\n  sstore\n  sub(shl(0xa0, 0x01), 0x01)\n    /* \"QuestTracker.sol\":3093:3123  backendWallet = _backendWallet */\n  swap4\n  swap1\n  swap4\n  and\n  0x80\n  mstore\n    /* \"QuestTracker.sol\":3134:3172  dailyRewardAmount = _dailyRewardAmount */\n  0xa0\n  swap2\n  swap1\n  swap2\n  mstore\n    /* \"QuestTracker.sol\":3183:3213  claimCooldown = _claimCooldown */\n  0xc0\n  mstore\n    /* \"QuestTracker.sol\":3064:3082  owner = msg.sender */\n  0x01\n    /* \"QuestTracker.sol\":3224:3240  questCounter = 0 */\n  sstore\n    /* \"QuestTracker.sol\":204:9066  contract QuestTracker {... */\n  jump(tag_16)\n    /* \"#utility.yul\":14:426   */\ntag_3:\n    /* \"#utility.yul\":102:108   */\n  0x00\n    /* \"#utility.yul\":110:116   */\n  dup1\n    /* \"#utility.yul\":118:124   */\n  0x00\n    /* \"#utility.yul\":171:173   */\n  0x60\n    /* \"#utility.yul\":159:168   */\n  dup5\n    /* \"#utility.yul\":150:157   */\n  dup7\n    /* \"#utility.yul\":146:169   */\n  sub\n    /* \"#utility.yul\":142:174   */\n  slt\n    /* \"#utility.yul\":139:191   */\n  iszero\n  tag_18\n  jumpi\n    /* \"#utility.yul\":187:188   */\n  0x00\n    /* \"#utility.yul\":184:185   */\n  dup1\n    /* \"#utility.yul\":177:189   */\n  revert\n    /* \"#utility.yul\":139:191   */\ntag_18:\n    /* \"#utility.yul\":213:229   */\n  dup4\n  mload\n  sub(shl(0xa0, 0x01), 0x01)\n    /* \"#utility.yul\":258:289   */\n  dup2\n  and\n    /* \"#utility.yul\":248:290   */\n  dup2\n  eq\n    /* \"#utility.yul\":238:308   */\n  tag_19\n  jumpi\n    /* \"#utility.yul\":304:305   */\n  0x00\n    /* \"#utility.yul\":301:302   */\n  dup1\n    /* \"#utility.yul\":294:306   */\n  revert\n    /* \"#utility.yul\":238:308   */\ntag_19:\n    /* \"#utility.yul\":372:374   */\n  0x20\n    /* \"#utility.yul\":357:375   */\n  dup6\n  add\n    /* \"#utility.yul\":351:376   */\n  mload\n    /* \"#utility.yul\":416:418   */\n  0x40\n    /* \"#utility.yul\":401:419   */\n  swap1\n  swap6\n  add\n    /* \"#utility.yul\":395:420   */\n  mload\n    /* \"#utility.yul\":327:332   */\n  swap1\n  swap7\n    /* \"#utility.yul\":351:376   */\n  swap5\n  swap6\n  pop\n    /* \"#utility.yul\":395:420   */\n  swap4\n    /* \"#utility.yul\":14:426   */\n  swap3\n  pop\n  pop\n  pop\n  jump\t// out\n    /* \"#utility.yul\":1194:1550   */\ntag_16:\n    /* \"QuestTracker.sol\":204:9066  contract QuestTracker {... */\n  mload(0x80)\n  mload(0xa0)\n  mload(0xc0)\n  codecopy(0x00, dataOffset(sub_0), dataSize(sub_0))\n  0x00\n  assignImmutable(\"0xf1ae7da53f98170be52cc9330214a82f7ba06ee306297b4e1fb86fb21c611aa6\")\n  0x00\n  assignImmutable(\"0x57014f1e5f1d53e43fa40624186159531d6372d1ab8f40ec7882845ca66de31d\")\n  0x00\n  assignImmutable(\"0xe455bf8ea6e7463a1046a0b52804526e119b4bf5136279614e0b1e8e296a4e2d\")\n  return(0x00, dataSize(sub_0))\nstop\n\nsub_0: assembly {\n        /* \"QuestTracker.sol\":204:9066  contract QuestTracker {... */\n      mstore(0x40, 0x80)\n      callvalue\n      dup1\n      iszero\n      tag_1\n      jumpi\n      0x00\n      dup1\n      revert\n    tag_1:\n      pop\n      jumpi(tag_2, lt(calldatasize, 0x04))\n      shr(0xe0, calldataload(0x00))\n      dup1\n      0x9387036d\n      gt\n      tag_19\n      jumpi\n      dup1\n      0xdac297c2\n      gt\n      tag_20\n      jumpi\n      dup1\n      0xdac297c2\n      eq\n      tag_15\n      jumpi\n      dup1\n      0xe085f980\n      eq\n      tag_16\n      jumpi\n      dup1\n      0xfdea3657\n      eq\n      tag_17\n      jumpi\n      dup1\n      0xfe6f1cf4\n      eq\n      tag_18\n      jumpi\n      0x00\n      dup1\n      revert\n    tag_20:\n      dup1\n      0x9387036d\n      eq\n      tag_11\n      jumpi\n      dup1\n      0x9f4d5856\n      eq\n      tag_12\n      jumpi\n      dup1\n      0xa680baaf\n      eq\n      tag_13\n      jumpi\n      dup1\n      0xcc3d967b\n      eq\n      tag_14\n      jumpi\n      0x00\n      dup1\n      revert\n    tag_19:\n      dup1\n      0x7d7591f0\n      gt\n      tag_21\n      jumpi\n      dup1\n      0x7d7591f0\n      eq\n      tag_7\n      jumpi\n      dup1\n      0x7fc573d2\n      eq\n      tag_8\n      jumpi\n      dup1\n      0x8da5cb5b\n      eq\n      tag_9\n      jumpi\n      dup1\n      0x92d588e9\n      eq\n      tag_10\n      jumpi\n      0x00\n      dup1\n      revert\n    tag_21:\n      dup1\n      0x15022d98\n      eq\n      tag_3\n      jumpi\n      dup1\n      0x3bb659a2\n      eq\n      tag_4\n      jumpi\n      dup1\n      0x49f86f34\n      eq\n      tag_5\n      jumpi\n      dup1\n      0x650b4f1e\n      eq\n      tag_6\n      jumpi\n    tag_2:\n      0x00\n      dup1\n      revert\n        /* \"QuestTracker.sol\":1591:1640  mapping(address => DailyClaim) public dailyClaims */\n    tag_3:\n      tag_22\n      tag_23\n      calldatasize\n      0x04\n      tag_24\n      jump\t// in\n    tag_23:\n      mstore(0x20, 0x05)\n      0x00\n      swap1\n      dup2\n      mstore\n      0x40\n      swap1\n      keccak256\n      dup1\n      sload\n      0x01\n      swap1\n      swap2\n      add\n      sload\n      0xff\n      and\n      dup3\n      jump\n    tag_22:\n      0x40\n      dup1\n      mload\n        /* \"#utility.yul\":670:695   */\n      swap3\n      dup4\n      mstore\n        /* \"#utility.yul\":738:752   */\n      swap1\n      iszero\n        /* \"#utility.yul\":731:753   */\n      iszero\n        /* \"#utility.yul\":726:728   */\n      0x20\n        /* \"#utility.yul\":711:729   */\n      dup4\n      add\n        /* \"#utility.yul\":704:754   */\n      mstore\n        /* \"#utility.yul\":643:661   */\n      add\n        /* \"QuestTracker.sol\":1591:1640  mapping(address => DailyClaim) public dailyClaims */\n    tag_26:\n      mload(0x40)\n      dup1\n      swap2\n      sub\n      swap1\n      return\n        /* \"QuestTracker.sol\":8574:8863  function getAllQuests() external view returns (Quest[] memory) {... */\n    tag_4:\n      tag_28\n      tag_29\n      jump\t// in\n    tag_28:\n      mload(0x40)\n      tag_26\n      swap2\n      swap1\n      tag_31\n      jump\t// in\n        /* \"QuestTracker.sol\":8343:8480  function getQuest(uint256 _questId) external view questExists(_questId) returns (Quest memory) {... */\n    tag_5:\n      tag_32\n      tag_33\n      calldatasize\n      0x04\n      tag_34\n      jump\t// in\n    tag_33:\n      tag_35\n      jump\t// in\n    tag_32:\n      mload(0x40)\n      tag_26\n      swap2\n      swap1\n      tag_37\n      jump\t// in\n        /* \"QuestTracker.sol\":1647:1689  uint256 public immutable dailyRewardAmount */\n    tag_6:\n      tag_38\n      immutable(\"0x57014f1e5f1d53e43fa40624186159531d6372d1ab8f40ec7882845ca66de31d\")\n      dup2\n      jump\n    tag_38:\n      mload(0x40)\n        /* \"#utility.yul\":4079:4104   */\n      swap1\n      dup2\n      mstore\n        /* \"#utility.yul\":4067:4069   */\n      0x20\n        /* \"#utility.yul\":4052:4070   */\n      add\n        /* \"QuestTracker.sol\":1647:1689  uint256 public immutable dailyRewardAmount */\n      tag_26\n        /* \"#utility.yul\":3933:4110   */\n      jump\n        /* \"QuestTracker.sol\":1339:1366  uint256 public questCounter */\n    tag_7:\n      tag_38\n      sload(0x01)\n      dup2\n      jump\n        /* \"QuestTracker.sol\":8967:9063  function getTotalQuests() external view returns (uint256) {... */\n    tag_8:\n        /* \"QuestTracker.sol\":9043:9055  questCounter */\n      sload(0x01)\n        /* \"QuestTracker.sol\":8967:9063  function getTotalQuests() external view returns (uint256) {... */\n      jump(tag_38)\n        /* \"QuestTracker.sol\":313:333  address public owner */\n    tag_9:\n      sload(0x00)\n      tag_48\n      swap1\n      sub(shl(0xa0, 0x01), 0x01)\n      and\n      dup2\n      jump\n    tag_48:\n      mload(0x40)\n      sub(shl(0xa0, 0x01), 0x01)\n        /* \"#utility.yul\":4279:4334   */\n      swap1\n      swap2\n      and\n        /* \"#utility.yul\":4261:4335   */\n      dup2\n      mstore\n        /* \"#utility.yul\":4249:4251   */\n      0x20\n        /* \"#utility.yul\":4234:4252   */\n      add\n        /* \"QuestTracker.sol\":313:333  address public owner */\n      tag_26\n        /* \"#utility.yul\":4115:4341   */\n      jump\n        /* \"QuestTracker.sol\":5690:6446  function setDailyClaimed(address _user) external {... */\n    tag_10:\n      tag_52\n      tag_53\n      calldatasize\n      0x04\n      tag_24\n      jump\t// in\n    tag_53:\n      tag_54\n      jump\t// in\n    tag_52:\n      stop\n        /* \"QuestTracker.sol\":3635:4566  function createQuest(... */\n    tag_11:\n      tag_52\n      tag_56\n      calldatasize\n      0x04\n      tag_57\n      jump\t// in\n    tag_56:\n      tag_58\n      jump\t// in\n        /* \"QuestTracker.sol\":1419:1489  mapping(address => mapping(uint256 => UserProgress)) public userQuests */\n    tag_12:\n      tag_59\n      tag_60\n      calldatasize\n      0x04\n      tag_61\n      jump\t// in\n    tag_60:\n      0x03\n      0x20\n      swap1\n      dup2\n      mstore\n      0x00\n      swap3\n      dup4\n      mstore\n      0x40\n      dup1\n      dup5\n      keccak256\n      swap1\n      swap2\n      mstore\n      swap1\n      dup3\n      mstore\n      swap1\n      keccak256\n      dup1\n      sload\n      0x01\n      swap1\n      swap2\n      add\n      sload\n      0xff\n      swap1\n      swap2\n      and\n      swap1\n      dup3\n      jump\n    tag_59:\n      0x40\n      dup1\n      mload\n        /* \"#utility.yul\":7400:7414   */\n      swap3\n      iszero\n        /* \"#utility.yul\":7393:7415   */\n      iszero\n        /* \"#utility.yul\":7375:7416   */\n      dup4\n      mstore\n        /* \"#utility.yul\":7447:7449   */\n      0x20\n        /* \"#utility.yul\":7432:7450   */\n      dup4\n      add\n        /* \"#utility.yul\":7425:7459   */\n      swap2\n      swap1\n      swap2\n      mstore\n        /* \"#utility.yul\":7348:7366   */\n      add\n        /* \"QuestTracker.sol\":1419:1489  mapping(address => mapping(uint256 => UserProgress)) public userQuests */\n      tag_26\n        /* \"#utility.yul\":7207:7465   */\n      jump\n        /* \"QuestTracker.sol\":418:456  address public immutable backendWallet */\n    tag_13:\n      tag_48\n      immutable(\"0xe455bf8ea6e7463a1046a0b52804526e119b4bf5136279614e0b1e8e296a4e2d\")\n      dup2\n      jump\n        /* \"QuestTracker.sol\":6617:8214  function getUserDetails(address _user) external view returns (UserDetails memory) {... */\n    tag_14:\n      tag_68\n      tag_69\n      calldatasize\n      0x04\n      tag_24\n      jump\t// in\n    tag_69:\n      tag_70\n      jump\t// in\n    tag_68:\n      mload(0x40)\n      tag_26\n      swap2\n      swap1\n      tag_72\n      jump\t// in\n        /* \"QuestTracker.sol\":4771:5531  function completeQuestForUser(address _user, uint256 _questId) ... */\n    tag_15:\n      tag_52\n      tag_74\n      calldatasize\n      0x04\n      tag_61\n      jump\t// in\n    tag_74:\n      tag_75\n      jump\t// in\n        /* \"QuestTracker.sol\":1373:1412  mapping(uint256 => Quest) public quests */\n    tag_16:\n      tag_76\n      tag_77\n      calldatasize\n      0x04\n      tag_34\n      jump\t// in\n    tag_77:\n      tag_78\n      jump\t// in\n    tag_76:\n      mload(0x40)\n      tag_26\n      swap9\n      swap8\n      swap7\n      swap6\n      swap5\n      swap4\n      swap3\n      swap2\n      swap1\n      tag_80\n      jump\t// in\n        /* \"QuestTracker.sol\":1696:1734  uint256 public immutable claimCooldown */\n    tag_17:\n      tag_38\n      immutable(\"0xf1ae7da53f98170be52cc9330214a82f7ba06ee306297b4e1fb86fb21c611aa6\")\n      dup2\n      jump\n        /* \"QuestTracker.sol\":1496:1551  mapping(address => uint256) public totalQuestsCompleted */\n    tag_18:\n      tag_38\n      tag_85\n      calldatasize\n      0x04\n      tag_24\n      jump\t// in\n    tag_85:\n      mstore(0x20, 0x04)\n      0x00\n      swap1\n      dup2\n      mstore\n      0x40\n      swap1\n      keccak256\n      sload\n      dup2\n      jump\n        /* \"QuestTracker.sol\":8574:8863  function getAllQuests() external view returns (Quest[] memory) {... */\n    tag_29:\n        /* \"QuestTracker.sol\":8621:8635  Quest[] memory */\n      0x60\n        /* \"QuestTracker.sol\":8648:8672  Quest[] memory allQuests */\n      0x00\n        /* \"QuestTracker.sol\":8687:8699  questCounter */\n      sload(0x01)\n        /* \"QuestTracker.sol\":8675:8700  new Quest[](questCounter) */\n      0xffffffffffffffff\n      dup2\n      gt\n      iszero\n      tag_90\n      jumpi\n      tag_90\n      tag_91\n      jump\t// in\n    tag_90:\n      mload(0x40)\n      swap1\n      dup1\n      dup3\n      mstore\n      dup1\n      0x20\n      mul\n      0x20\n      add\n      dup3\n      add\n      0x40\n      mstore\n      dup1\n      iszero\n      tag_92\n      jumpi\n      dup2\n      0x20\n      add\n    tag_93:\n      tag_94\n      mload(0x40)\n      dup1\n      0x0120\n      add\n      0x40\n      mstore\n      dup1\n      0x00\n      dup2\n      mstore\n      0x20\n      add\n      0x60\n      dup2\n      mstore\n      0x20\n      add\n      0x60\n      dup2\n      mstore\n      0x20\n      add\n      0x00\n      dup2\n      mstore\n      0x20\n      add\n      0x60\n      dup2\n      mstore\n      0x20\n      add\n      0x00\n      dup2\n      mstore\n      0x20\n      add\n      iszero(iszero(0x00))\n      dup2\n      mstore\n      0x20\n      add\n      0x00\n      dup2\n      mstore\n      0x20\n      add\n      0x00\n      dup2\n      mstore\n      pop\n      swap1\n      jump\n    tag_94:\n      dup2\n      mstore\n      0x20\n      add\n      swap1\n      0x01\n      swap1\n      sub\n      swap1\n      dup2\n      tag_93\n      jumpi\n      swap1\n      pop\n    tag_92:\n      pop\n        /* \"QuestTracker.sol\":8648:8700  Quest[] memory allQuests = new Quest[](questCounter) */\n      swap1\n      pop\n        /* \"QuestTracker.sol\":8726:8735  uint256 i */\n      0x00\n        /* \"QuestTracker.sol\":8721:8819  for (uint256 i = 0; i < questCounter; i++) {... */\n    tag_96:\n        /* \"QuestTracker.sol\":8745:8757  questCounter */\n      sload(0x01)\n        /* \"QuestTracker.sol\":8741:8742  i */\n      dup2\n        /* \"QuestTracker.sol\":8741:8757  i < questCounter */\n      lt\n        /* \"QuestTracker.sol\":8721:8819  for (uint256 i = 0; i < questCounter; i++) {... */\n      iszero\n      tag_97\n      jumpi\n        /* \"QuestTracker.sol\":8794:8800  quests */\n      0x02\n        /* \"QuestTracker.sol\":8794:8807  quests[i + 1] */\n      0x00\n        /* \"QuestTracker.sol\":8801:8806  i + 1 */\n      tag_99\n        /* \"QuestTracker.sol\":8801:8802  i */\n      dup4\n        /* \"QuestTracker.sol\":8805:8806  1 */\n      0x01\n        /* \"QuestTracker.sol\":8801:8806  i + 1 */\n      tag_100\n      jump\t// in\n    tag_99:\n        /* \"QuestTracker.sol\":8794:8807  quests[i + 1] */\n      dup2\n      mstore\n      0x20\n      add\n      swap1\n      dup2\n      mstore\n      0x20\n      add\n      0x00\n      keccak256\n        /* \"QuestTracker.sol\":8779:8807  allQuests[i] = quests[i + 1] */\n      mload(0x40)\n      dup1\n      0x0120\n      add\n      0x40\n      mstore\n      swap1\n      dup2\n      0x00\n      dup3\n      add\n      sload\n      dup2\n      mstore\n      0x20\n      add\n      0x01\n      dup3\n      add\n      dup1\n      sload\n      tag_101\n      swap1\n      tag_102\n      jump\t// in\n    tag_101:\n      dup1\n      0x1f\n      add\n      0x20\n      dup1\n      swap2\n      div\n      mul\n      0x20\n      add\n      mload(0x40)\n      swap1\n      dup2\n      add\n      0x40\n      mstore\n      dup1\n      swap3\n      swap2\n      swap1\n      dup2\n      dup2\n      mstore\n      0x20\n      add\n      dup3\n      dup1\n      sload\n      tag_103\n      swap1\n      tag_102\n      jump\t// in\n    tag_103:\n      dup1\n      iszero\n      tag_104\n      jumpi\n      dup1\n      0x1f\n      lt\n      tag_105\n      jumpi\n      0x0100\n      dup1\n      dup4\n      sload\n      div\n      mul\n      dup4\n      mstore\n      swap2\n      0x20\n      add\n      swap2\n      jump(tag_104)\n    tag_105:\n      dup3\n      add\n      swap2\n      swap1\n      0x00\n      mstore\n      keccak256(0x00, 0x20)\n      swap1\n    tag_106:\n      dup2\n      sload\n      dup2\n      mstore\n      swap1\n      0x01\n      add\n      swap1\n      0x20\n      add\n      dup1\n      dup4\n      gt\n      tag_106\n      jumpi\n      dup3\n      swap1\n      sub\n      0x1f\n      and\n      dup3\n      add\n      swap2\n    tag_104:\n      pop\n      pop\n      pop\n      pop\n      pop\n      dup2\n      mstore\n      0x20\n      add\n      0x02\n      dup3\n      add\n      dup1\n      sload\n      tag_107\n      swap1\n      tag_102\n      jump\t// in\n    tag_107:\n      dup1\n      0x1f\n      add\n      0x20\n      dup1\n      swap2\n      div\n      mul\n      0x20\n      add\n      mload(0x40)\n      swap1\n      dup2\n      add\n      0x40\n      mstore\n      dup1\n      swap3\n      swap2\n      swap1\n      dup2\n      dup2\n      mstore\n      0x20\n      add\n      dup3\n      dup1\n      sload\n      tag_108\n      swap1\n      tag_102\n      jump\t// in\n    tag_108:\n      dup1\n      iszero\n      tag_109\n      jumpi\n      dup1\n      0x1f\n      lt\n      tag_110\n      jumpi\n      0x0100\n      dup1\n      dup4\n      sload\n      div\n      mul\n      dup4\n      mstore\n      swap2\n      0x20\n      add\n      swap2\n      jump(tag_109)\n    tag_110:\n      dup3\n      add\n      swap2\n      swap1\n      0x00\n      mstore\n      keccak256(0x00, 0x20)\n      swap1\n    tag_111:\n      dup2\n      sload\n      dup2\n      mstore\n      swap1\n      0x01\n      add\n      swap1\n      0x20\n      add\n      dup1\n      dup4\n      gt\n      tag_111\n      jumpi\n      dup3\n      swap1\n      sub\n      0x1f\n      and\n      dup3\n      add\n      swap2\n    tag_109:\n      pop\n      pop\n      pop\n      pop\n      pop\n      dup2\n      mstore\n      0x20\n      add\n      0x03\n      dup3\n      add\n      sload\n      dup2\n      mstore\n      0x20\n      add\n      0x04\n      dup3\n      add\n      dup1\n      sload\n      dup1\n      0x20\n      mul\n      0x20\n      add\n      mload(0x40)\n      swap1\n      dup2\n      add\n      0x40\n      mstore\n      dup1\n      swap3\n      swap2\n      swap1\n      dup2\n      dup2\n      mstore\n      0x20\n      add\n      0x00\n      swap1\n    tag_112:\n      dup3\n      dup3\n      lt\n      iszero\n      tag_113\n      jumpi\n      dup4\n      dup3\n      swap1\n      0x00\n      mstore\n      keccak256(0x00, 0x20)\n      add\n      dup1\n      sload\n      tag_115\n      swap1\n      tag_102\n      jump\t// in\n    tag_115:\n      dup1\n      0x1f\n      add\n      0x20\n      dup1\n      swap2\n      div\n      mul\n      0x20\n      add\n      mload(0x40)\n      swap1\n      dup2\n      add\n      0x40\n      mstore\n      dup1\n      swap3\n      swap2\n      swap1\n      dup2\n      dup2\n      mstore\n      0x20\n      add\n      dup3\n      dup1\n      sload\n      tag_116\n      swap1\n      tag_102\n      jump\t// in\n    tag_116:\n      dup1\n      iszero\n      tag_117\n      jumpi\n      dup1\n      0x1f\n      lt\n      tag_118\n      jumpi\n      0x0100\n      dup1\n      dup4\n      sload\n      div\n      mul\n      dup4\n      mstore\n      swap2\n      0x20\n      add\n      swap2\n      jump(tag_117)\n    tag_118:\n      dup3\n      add\n      swap2\n      swap1\n      0x00\n      mstore\n      keccak256(0x00, 0x20)\n      swap1\n    tag_119:\n      dup2\n      sload\n      dup2\n      mstore\n      swap1\n      0x01\n      add\n      swap1\n      0x20\n      add\n      dup1\n      dup4\n      gt\n      tag_119\n      jumpi\n      dup3\n      swap1\n      sub\n      0x1f\n      and\n      dup3\n      add\n      swap2\n    tag_117:\n      pop\n      pop\n      pop\n      pop\n      pop\n      dup2\n      mstore\n      0x20\n      add\n      swap1\n      0x01\n      add\n      swap1\n      jump(tag_112)\n    tag_113:\n      pop\n      pop\n      pop\n      swap1\n      dup3\n      mstore\n      pop\n      0x05\n      dup3\n      add\n      sload\n      0x20\n      dup3\n      add\n      mstore\n      0x06\n      dup3\n      add\n      sload\n      0xff\n      and\n      iszero\n      iszero\n      0x40\n      dup3\n      add\n      mstore\n      0x07\n      dup3\n      add\n      sload\n      0x60\n      dup3\n      add\n      mstore\n      0x08\n      swap1\n      swap2\n      add\n      sload\n      0x80\n      swap1\n      swap2\n      add\n      mstore\n        /* \"QuestTracker.sol\":8779:8791  allQuests[i] */\n      dup3\n      mload\n        /* \"QuestTracker.sol\":8779:8788  allQuests */\n      dup4\n      swap1\n        /* \"QuestTracker.sol\":8789:8790  i */\n      dup4\n      swap1\n        /* \"QuestTracker.sol\":8779:8791  allQuests[i] */\n      dup2\n      lt\n      tag_121\n      jumpi\n      tag_121\n      tag_122\n      jump\t// in\n    tag_121:\n      0x20\n      swap1\n      dup2\n      mul\n      swap2\n      swap1\n      swap2\n      add\n      add\n        /* \"QuestTracker.sol\":8779:8807  allQuests[i] = quests[i + 1] */\n      mstore\n        /* \"QuestTracker.sol\":8759:8762  i++ */\n      0x01\n      add\n        /* \"QuestTracker.sol\":8721:8819  for (uint256 i = 0; i < questCounter; i++) {... */\n      jump(tag_96)\n    tag_97:\n      pop\n        /* \"QuestTracker.sol\":8846:8855  allQuests */\n      swap2\n        /* \"QuestTracker.sol\":8574:8863  function getAllQuests() external view returns (Quest[] memory) {... */\n      swap1\n      pop\n      jump\t// out\n        /* \"QuestTracker.sol\":8343:8480  function getQuest(uint256 _questId) external view questExists(_questId) returns (Quest memory) {... */\n    tag_35:\n        /* \"QuestTracker.sol\":8424:8436  Quest memory */\n      tag_123\n      mload(0x40)\n      dup1\n      0x0120\n      add\n      0x40\n      mstore\n      dup1\n      0x00\n      dup2\n      mstore\n      0x20\n      add\n      0x60\n      dup2\n      mstore\n      0x20\n      add\n      0x60\n      dup2\n      mstore\n      0x20\n      add\n      0x00\n      dup2\n      mstore\n      0x20\n      add\n      0x60\n      dup2\n      mstore\n      0x20\n      add\n      0x00\n      dup2\n      mstore\n      0x20\n      add\n      iszero(iszero(0x00))\n      dup2\n      mstore\n      0x20\n      add\n      0x00\n      dup2\n      mstore\n      0x20\n      add\n      0x00\n      dup2\n      mstore\n      pop\n      swap1\n      jump\n    tag_123:\n        /* \"QuestTracker.sol\":8405:8413  _questId */\n      dup2\n        /* \"QuestTracker.sol\":2366:2367  0 */\n      0x00\n        /* \"QuestTracker.sol\":2355:2363  _questId */\n      dup2\n        /* \"QuestTracker.sol\":2355:2367  _questId > 0 */\n      gt\n        /* \"QuestTracker.sol\":2355:2395  _questId > 0 && _questId <= questCounter */\n      dup1\n      iszero\n      tag_125\n      jumpi\n      pop\n        /* \"QuestTracker.sol\":2383:2395  questCounter */\n      sload(0x01)\n        /* \"QuestTracker.sol\":2371:2379  _questId */\n      dup2\n        /* \"QuestTracker.sol\":2371:2395  _questId <= questCounter */\n      gt\n      iszero\n        /* \"QuestTracker.sol\":2355:2395  _questId > 0 && _questId <= questCounter */\n    tag_125:\n        /* \"QuestTracker.sol\":2347:2420  require(_questId > 0 && _questId <= questCounter, \"Quest does not exist\") */\n      tag_126\n      jumpi\n      mload(0x40)\n      shl(0xe5, 0x461bcd)\n      dup2\n      mstore\n        /* \"#utility.yul\":10573:10575   */\n      0x20\n        /* \"QuestTracker.sol\":2347:2420  require(_questId > 0 && _questId <= questCounter, \"Quest does not exist\") */\n      0x04\n      dup3\n      add\n        /* \"#utility.yul\":10555:10576   */\n      mstore\n        /* \"#utility.yul\":10612:10614   */\n      0x14\n        /* \"#utility.yul\":10592:10610   */\n      0x24\n      dup3\n      add\n        /* \"#utility.yul\":10585:10615   */\n      mstore\n        /* \"#utility.yul\":10651:10673   */\n      0x517565737420646f6573206e6f74206578697374000000000000000000000000\n        /* \"#utility.yul\":10631:10649   */\n      0x44\n      dup3\n      add\n        /* \"#utility.yul\":10624:10674   */\n      mstore\n        /* \"#utility.yul\":10691:10709   */\n      0x64\n      add\n        /* \"QuestTracker.sol\":2347:2420  require(_questId > 0 && _questId <= questCounter, \"Quest does not exist\") */\n    tag_127:\n      mload(0x40)\n      dup1\n      swap2\n      sub\n      swap1\n      revert\n    tag_126:\n        /* \"QuestTracker.sol\":8456:8462  quests */\n      0x02\n        /* \"QuestTracker.sol\":8456:8472  quests[_questId] */\n      0x00\n        /* \"QuestTracker.sol\":8463:8471  _questId */\n      dup5\n        /* \"QuestTracker.sol\":8456:8472  quests[_questId] */\n      dup2\n      mstore\n      0x20\n      add\n      swap1\n      dup2\n      mstore\n      0x20\n      add\n      0x00\n      keccak256\n        /* \"QuestTracker.sol\":8449:8472  return quests[_questId] */\n      mload(0x40)\n      dup1\n      0x0120\n      add\n      0x40\n      mstore\n      swap1\n      dup2\n      0x00\n      dup3\n      add\n      sload\n      dup2\n      mstore\n      0x20\n      add\n      0x01\n      dup3\n      add\n      dup1\n      sload\n      tag_130\n      swap1\n      tag_102\n      jump\t// in\n    tag_130:\n      dup1\n      0x1f\n      add\n      0x20\n      dup1\n      swap2\n      div\n      mul\n      0x20\n      add\n      mload(0x40)\n      swap1\n      dup2\n      add\n      0x40\n      mstore\n      dup1\n      swap3\n      swap2\n      swap1\n      dup2\n      dup2\n      mstore\n      0x20\n      add\n      dup3\n      dup1\n      sload\n      tag_131\n      swap1\n      tag_102\n      jump\t// in\n    tag_131:\n      dup1\n      iszero\n      tag_132\n      jumpi\n      dup1\n      0x1f\n      lt\n      tag_133\n      jumpi\n      0x0100\n      dup1\n      dup4\n      sload\n      div\n      mul\n      dup4\n      mstore\n      swap2\n      0x20\n      add\n      swap2\n      jump(tag_132)\n    tag_133:\n      dup3\n      add\n      swap2\n      swap1\n      0x00\n      mstore\n      keccak256(0x00, 0x20)\n      swap1\n    tag_134:\n      dup2\n      sload\n      dup2\n      mstore\n      swap1\n      0x01\n      add\n      swap1\n      0x20\n      add\n      dup1\n      dup4\n      gt\n      tag_134\n      jumpi\n      dup3\n      swap1\n      sub\n      0x1f\n      and\n      dup3\n      add\n      swap2\n    tag_132:\n      pop\n      pop\n      pop\n      pop\n      pop\n      dup2\n      mstore\n      0x20\n      add\n      0x02\n      dup3\n      add\n      dup1\n      sload\n      tag_135\n      swap1\n      tag_102\n      jump\t// in\n    tag_135:\n      dup1\n      0x1f\n      add\n      0x20\n      dup1\n      swap2\n      div\n      mul\n      0x20\n      add\n      mload(0x40)\n      swap1\n      dup2\n      add\n      0x40\n      mstore\n      dup1\n      swap3\n      swap2\n      swap1\n      dup2\n      dup2\n      mstore\n      0x20\n      add\n      dup3\n      dup1\n      sload\n      tag_136\n      swap1\n      tag_102\n      jump\t// in\n    tag_136:\n      dup1\n      iszero\n      tag_137\n      jumpi\n      dup1\n      0x1f\n      lt\n      tag_138\n      jumpi\n      0x0100\n      dup1\n      dup4\n      sload\n      div\n      mul\n      dup4\n      mstore\n      swap2\n      0x20\n      add\n      swap2\n      jump(tag_137)\n    tag_138:\n      dup3\n      add\n      swap2\n      swap1\n      0x00\n      mstore\n      keccak256(0x00, 0x20)\n      swap1\n    tag_139:\n      dup2\n      sload\n      dup2\n      mstore\n      swap1\n      0x01\n      add\n      swap1\n      0x20\n      add\n      dup1\n      dup4\n      gt\n      tag_139\n      jumpi\n      dup3\n      swap1\n      sub\n      0x1f\n      and\n      dup3\n      add\n      swap2\n    tag_137:\n      pop\n      pop\n      pop\n      pop\n      pop\n      dup2\n      mstore\n      0x20\n      add\n      0x03\n      dup3\n      add\n      sload\n      dup2\n      mstore\n      0x20\n      add\n      0x04\n      dup3\n      add\n      dup1\n      sload\n      dup1\n      0x20\n      mul\n      0x20\n      add\n      mload(0x40)\n      swap1\n      dup2\n      add\n      0x40\n      mstore\n      dup1\n      swap3\n      swap2\n      swap1\n      dup2\n      dup2\n      mstore\n      0x20\n      add\n      0x00\n      swap1\n    tag_140:\n      dup3\n      dup3\n      lt\n      iszero\n      tag_141\n      jumpi\n      dup4\n      dup3\n      swap1\n      0x00\n      mstore\n      keccak256(0x00, 0x20)\n      add\n      dup1\n      sload\n      tag_143\n      swap1\n      tag_102\n      jump\t// in\n    tag_143:\n      dup1\n      0x1f\n      add\n      0x20\n      dup1\n      swap2\n      div\n      mul\n      0x20\n      add\n      mload(0x40)\n      swap1\n      dup2\n      add\n      0x40\n      mstore\n      dup1\n      swap3\n      swap2\n      swap1\n      dup2\n      dup2\n      mstore\n      0x20\n      add\n      dup3\n      dup1\n      sload\n      tag_144\n      swap1\n      tag_102\n      jump\t// in\n    tag_144:\n      dup1\n      iszero\n      tag_145\n      jumpi\n      dup1\n      0x1f\n      lt\n      tag_146\n      jumpi\n      0x0100\n      dup1\n      dup4\n      sload\n      div\n      mul\n      dup4\n      mstore\n      swap2\n      0x20\n      add\n      swap2\n      jump(tag_145)\n    tag_146:\n      dup3\n      add\n      swap2\n      swap1\n      0x00\n      mstore\n      keccak256(0x00, 0x20)\n      swap1\n    tag_147:\n      dup2\n      sload\n      dup2\n      mstore\n      swap1\n      0x01\n      add\n      swap1\n      0x20\n      add\n      dup1\n      dup4\n      gt\n      tag_147\n      jumpi\n      dup3\n      swap1\n      sub\n      0x1f\n      and\n      dup3\n      add\n      swap2\n    tag_145:\n      pop\n      pop\n      pop\n      pop\n      pop\n      dup2\n      mstore\n      0x20\n      add\n      swap1\n      0x01\n      add\n      swap1\n      jump(tag_140)\n    tag_141:\n      pop\n      pop\n      pop\n      swap1\n      dup3\n      mstore\n      pop\n      0x05\n      dup3\n      add\n      sload\n      0x20\n      dup3\n      add\n      mstore\n      0x06\n      dup3\n      add\n      sload\n      0xff\n      and\n      iszero\n      iszero\n      0x40\n      dup3\n      add\n      mstore\n      0x07\n      dup3\n      add\n      sload\n      0x60\n      dup3\n      add\n      mstore\n      0x08\n      swap1\n      swap2\n      add\n      sload\n      0x80\n      swap1\n      swap2\n      add\n      mstore\n      swap4\n        /* \"QuestTracker.sol\":8343:8480  function getQuest(uint256 _questId) external view questExists(_questId) returns (Quest memory) {... */\n      swap3\n      pop\n      pop\n      pop\n      jump\t// out\n        /* \"QuestTracker.sol\":5690:6446  function setDailyClaimed(address _user) external {... */\n    tag_54:\n        /* \"QuestTracker.sol\":5772:5777  owner */\n      and(sub(shl(0xa0, 0x01), 0x01), sload(0x00))\n        /* \"QuestTracker.sol\":5758:5768  msg.sender */\n      caller\n        /* \"QuestTracker.sol\":5758:5777  msg.sender == owner */\n      eq\n      dup1\n        /* \"QuestTracker.sol\":5758:5808  msg.sender == owner || msg.sender == backendWallet */\n      tag_150\n      jumpi\n      pop\n        /* \"QuestTracker.sol\":5781:5791  msg.sender */\n      caller\n      sub(shl(0xa0, 0x01), 0x01)\n        /* \"QuestTracker.sol\":5795:5808  backendWallet */\n      immutable(\"0xe455bf8ea6e7463a1046a0b52804526e119b4bf5136279614e0b1e8e296a4e2d\")\n        /* \"QuestTracker.sol\":5781:5808  msg.sender == backendWallet */\n      and\n      eq\n        /* \"QuestTracker.sol\":5758:5808  msg.sender == owner || msg.sender == backendWallet */\n    tag_150:\n        /* \"QuestTracker.sol\":5750:5856  require(msg.sender == owner || msg.sender == backendWallet, \"Only owner or backend can set daily claimed\") */\n      tag_151\n      jumpi\n      mload(0x40)\n      shl(0xe5, 0x461bcd)\n      dup2\n      mstore\n        /* \"#utility.yul\":10922:10924   */\n      0x20\n        /* \"QuestTracker.sol\":5750:5856  require(msg.sender == owner || msg.sender == backendWallet, \"Only owner or backend can set daily claimed\") */\n      0x04\n      dup3\n      add\n        /* \"#utility.yul\":10904:10925   */\n      mstore\n        /* \"#utility.yul\":10961:10963   */\n      0x2b\n        /* \"#utility.yul\":10941:10959   */\n      0x24\n      dup3\n      add\n        /* \"#utility.yul\":10934:10964   */\n      mstore\n        /* \"#utility.yul\":11000:11034   */\n      0x4f6e6c79206f776e6572206f72206261636b656e642063616e20736574206461\n        /* \"#utility.yul\":10980:10998   */\n      0x44\n      dup3\n      add\n        /* \"#utility.yul\":10973:11035   */\n      mstore\n        /* \"#utility.yul\":11071:11084   */\n      0x696c7920636c61696d6564000000000000000000000000000000000000000000\n        /* \"#utility.yul\":11051:11069   */\n      0x64\n      dup3\n      add\n        /* \"#utility.yul\":11044:11085   */\n      mstore\n        /* \"#utility.yul\":11102:11121   */\n      0x84\n      add\n        /* \"QuestTracker.sol\":5750:5856  require(msg.sender == owner || msg.sender == backendWallet, \"Only owner or backend can set daily claimed\") */\n      tag_127\n        /* \"#utility.yul\":10720:11127   */\n      jump\n        /* \"QuestTracker.sol\":5750:5856  require(msg.sender == owner || msg.sender == backendWallet, \"Only owner or backend can set daily claimed\") */\n    tag_151:\n      sub(shl(0xa0, 0x01), 0x01)\n        /* \"QuestTracker.sol\":5875:5894  _user != address(0) */\n      dup2\n      and\n        /* \"QuestTracker.sol\":5867:5919  require(_user != address(0), \"Invalid user address\") */\n      tag_154\n      jumpi\n      mload(0x40)\n      shl(0xe5, 0x461bcd)\n      dup2\n      mstore\n        /* \"#utility.yul\":11334:11336   */\n      0x20\n        /* \"QuestTracker.sol\":5867:5919  require(_user != address(0), \"Invalid user address\") */\n      0x04\n      dup3\n      add\n        /* \"#utility.yul\":11316:11337   */\n      mstore\n        /* \"#utility.yul\":11373:11375   */\n      0x14\n        /* \"#utility.yul\":11353:11371   */\n      0x24\n      dup3\n      add\n        /* \"#utility.yul\":11346:11376   */\n      mstore\n        /* \"#utility.yul\":11412:11434   */\n      0x496e76616c696420757365722061646472657373000000000000000000000000\n        /* \"#utility.yul\":11392:11410   */\n      0x44\n      dup3\n      add\n        /* \"#utility.yul\":11385:11435   */\n      mstore\n        /* \"#utility.yul\":11452:11470   */\n      0x64\n      add\n        /* \"QuestTracker.sol\":5867:5919  require(_user != address(0), \"Invalid user address\") */\n      tag_127\n        /* \"#utility.yul\":11132:11476   */\n      jump\n        /* \"QuestTracker.sol\":5867:5919  require(_user != address(0), \"Invalid user address\") */\n    tag_154:\n      sub(shl(0xa0, 0x01), 0x01)\n        /* \"QuestTracker.sol\":5971:5989  dailyClaims[_user] */\n      dup2\n      and\n        /* \"QuestTracker.sol\":5940:5968  DailyClaim storage userClaim */\n      0x00\n        /* \"QuestTracker.sol\":5971:5989  dailyClaims[_user] */\n      swap1\n      dup2\n      mstore\n        /* \"QuestTracker.sol\":5971:5982  dailyClaims */\n      0x05\n        /* \"QuestTracker.sol\":5971:5989  dailyClaims[_user] */\n      0x20\n      mstore\n      0x40\n      swap1\n      keccak256\n        /* \"QuestTracker.sol\":6156:6179  userClaim.lastClaimTime */\n      dup1\n      sload\n        /* \"QuestTracker.sol\":6022:6037  block.timestamp */\n      timestamp\n      swap1\n        /* \"QuestTracker.sol\":6156:6195  userClaim.lastClaimTime + claimCooldown */\n      tag_157\n      swap1\n        /* \"QuestTracker.sol\":6182:6195  claimCooldown */\n      immutable(\"0xf1ae7da53f98170be52cc9330214a82f7ba06ee306297b4e1fb86fb21c611aa6\")\n      swap1\n        /* \"QuestTracker.sol\":6156:6195  userClaim.lastClaimTime + claimCooldown */\n      tag_100\n      jump\t// in\n    tag_157:\n        /* \"QuestTracker.sol\":6141:6152  currentTime */\n      dup2\n        /* \"QuestTracker.sol\":6141:6195  currentTime >= userClaim.lastClaimTime + claimCooldown */\n      lt\n      iszero\n        /* \"QuestTracker.sol\":6119:6251  require(... */\n      tag_158\n      jumpi\n      mload(0x40)\n      shl(0xe5, 0x461bcd)\n      dup2\n      mstore\n        /* \"#utility.yul\":11683:11685   */\n      0x20\n        /* \"QuestTracker.sol\":6119:6251  require(... */\n      0x04\n      dup3\n      add\n        /* \"#utility.yul\":11665:11686   */\n      mstore\n        /* \"#utility.yul\":11722:11724   */\n      0x1c\n        /* \"#utility.yul\":11702:11720   */\n      0x24\n      dup3\n      add\n        /* \"#utility.yul\":11695:11725   */\n      mstore\n        /* \"#utility.yul\":11761:11791   */\n      0x4461696c7920636c61696d20636f6f6c646f776e206e6f74206d657400000000\n        /* \"#utility.yul\":11741:11759   */\n      0x44\n      dup3\n      add\n        /* \"#utility.yul\":11734:11792   */\n      mstore\n        /* \"#utility.yul\":11809:11827   */\n      0x64\n      add\n        /* \"QuestTracker.sol\":6119:6251  require(... */\n      tag_127\n        /* \"#utility.yul\":11481:11833   */\n      jump\n        /* \"QuestTracker.sol\":6119:6251  require(... */\n    tag_158:\n        /* \"QuestTracker.sol\":6302:6339  userClaim.lastClaimTime = currentTime */\n      dup1\n      dup3\n      sstore\n        /* \"QuestTracker.sol\":6370:6374  true */\n      0x01\n        /* \"QuestTracker.sol\":6350:6367  userClaim.claimed */\n      dup1\n      dup4\n      add\n        /* \"QuestTracker.sol\":6350:6374  userClaim.claimed = true */\n      dup1\n      sload\n      not(0xff)\n      and\n      swap1\n      swap2\n      or\n      swap1\n      sstore\n        /* \"QuestTracker.sol\":6400:6438  DailyClaimed(_user, dailyRewardAmount) */\n      mload(0x40)\n        /* \"QuestTracker.sol\":6420:6437  dailyRewardAmount */\n      immutable(\"0x57014f1e5f1d53e43fa40624186159531d6372d1ab8f40ec7882845ca66de31d\")\n        /* \"#utility.yul\":4079:4104   */\n      dup2\n      mstore\n      sub(shl(0xa0, 0x01), 0x01)\n        /* \"QuestTracker.sol\":6400:6438  DailyClaimed(_user, dailyRewardAmount) */\n      dup5\n      and\n      swap1\n      0xb924ab64c28bc1c27fc5a56df34d576dfebbf347ea99c0e51abc4a46f458a77c\n      swap1\n        /* \"#utility.yul\":4067:4069   */\n      0x20\n        /* \"#utility.yul\":4052:4070   */\n      add\n        /* \"QuestTracker.sol\":6400:6438  DailyClaimed(_user, dailyRewardAmount) */\n      mload(0x40)\n      dup1\n      swap2\n      sub\n      swap1\n      log2\n        /* \"QuestTracker.sol\":5739:6446  {... */\n      pop\n      pop\n        /* \"QuestTracker.sol\":5690:6446  function setDailyClaimed(address _user) external {... */\n      pop\n      jump\t// out\n        /* \"QuestTracker.sol\":3635:4566  function createQuest(... */\n    tag_58:\n        /* \"QuestTracker.sol\":2074:2079  owner */\n      and(sub(shl(0xa0, 0x01), 0x01), sload(0x00))\n        /* \"QuestTracker.sol\":2060:2070  msg.sender */\n      caller\n        /* \"QuestTracker.sol\":2060:2079  msg.sender == owner */\n      eq\n        /* \"QuestTracker.sol\":2052:2117  require(msg.sender == owner, \"Only owner can call this function\") */\n      tag_163\n      jumpi\n      mload(0x40)\n      shl(0xe5, 0x461bcd)\n      dup2\n      mstore\n        /* \"#utility.yul\":12040:12042   */\n      0x20\n        /* \"QuestTracker.sol\":2052:2117  require(msg.sender == owner, \"Only owner can call this function\") */\n      0x04\n      dup3\n      add\n        /* \"#utility.yul\":12022:12043   */\n      mstore\n        /* \"#utility.yul\":12079:12081   */\n      0x21\n        /* \"#utility.yul\":12059:12077   */\n      0x24\n      dup3\n      add\n        /* \"#utility.yul\":12052:12082   */\n      mstore\n        /* \"#utility.yul\":12118:12152   */\n      0x4f6e6c79206f776e65722063616e2063616c6c20746869732066756e6374696f\n        /* \"#utility.yul\":12098:12116   */\n      0x44\n      dup3\n      add\n        /* \"#utility.yul\":12091:12153   */\n      mstore\n      shl(0xf9, 0x37)\n        /* \"#utility.yul\":12169:12187   */\n      0x64\n      dup3\n      add\n        /* \"#utility.yul\":12162:12193   */\n      mstore\n        /* \"#utility.yul\":12210:12229   */\n      0x84\n      add\n        /* \"QuestTracker.sol\":2052:2117  require(msg.sender == owner, \"Only owner can call this function\") */\n      tag_127\n        /* \"#utility.yul\":11838:12235   */\n      jump\n        /* \"QuestTracker.sol\":2052:2117  require(msg.sender == owner, \"Only owner can call this function\") */\n    tag_163:\n        /* \"QuestTracker.sol\":3913:3928  block.timestamp */\n      timestamp\n        /* \"QuestTracker.sol\":3902:3910  _endDate */\n      dup2\n        /* \"QuestTracker.sol\":3902:3928  _endDate > block.timestamp */\n      gt\n        /* \"QuestTracker.sol\":3894:3963  require(_endDate > block.timestamp, \"End date must be in the future\") */\n      tag_167\n      jumpi\n      mload(0x40)\n      shl(0xe5, 0x461bcd)\n      dup2\n      mstore\n        /* \"#utility.yul\":12442:12444   */\n      0x20\n        /* \"QuestTracker.sol\":3894:3963  require(_endDate > block.timestamp, \"End date must be in the future\") */\n      0x04\n      dup3\n      add\n        /* \"#utility.yul\":12424:12445   */\n      mstore\n        /* \"#utility.yul\":12481:12483   */\n      0x1e\n        /* \"#utility.yul\":12461:12479   */\n      0x24\n      dup3\n      add\n        /* \"#utility.yul\":12454:12484   */\n      mstore\n        /* \"#utility.yul\":12520:12552   */\n      0x456e642064617465206d75737420626520696e20746865206675747572650000\n        /* \"#utility.yul\":12500:12518   */\n      0x44\n      dup3\n      add\n        /* \"#utility.yul\":12493:12553   */\n      mstore\n        /* \"#utility.yul\":12570:12588   */\n      0x64\n      add\n        /* \"QuestTracker.sol\":3894:3963  require(_endDate > block.timestamp, \"End date must be in the future\") */\n      tag_127\n        /* \"#utility.yul\":12240:12594   */\n      jump\n        /* \"QuestTracker.sol\":3894:3963  require(_endDate > block.timestamp, \"End date must be in the future\") */\n    tag_167:\n        /* \"QuestTracker.sol\":4005:4006  0 */\n      0x00\n        /* \"QuestTracker.sol\":3982:3995  _requirements */\n      dup4\n        /* \"QuestTracker.sol\":3982:4002  _requirements.length */\n      mload\n        /* \"QuestTracker.sol\":3982:4006  _requirements.length > 0 */\n      gt\n        /* \"QuestTracker.sol\":3974:4051  require(_requirements.length > 0, \"Quest must have at least one requirement\") */\n      tag_170\n      jumpi\n      mload(0x40)\n      shl(0xe5, 0x461bcd)\n      dup2\n      mstore\n        /* \"#utility.yul\":12801:12803   */\n      0x20\n        /* \"QuestTracker.sol\":3974:4051  require(_requirements.length > 0, \"Quest must have at least one requirement\") */\n      0x04\n      dup3\n      add\n        /* \"#utility.yul\":12783:12804   */\n      mstore\n        /* \"#utility.yul\":12840:12842   */\n      0x28\n        /* \"#utility.yul\":12820:12838   */\n      0x24\n      dup3\n      add\n        /* \"#utility.yul\":12813:12843   */\n      mstore\n        /* \"#utility.yul\":12879:12913   */\n      0x5175657374206d7573742068617665206174206c65617374206f6e6520726571\n        /* \"#utility.yul\":12859:12877   */\n      0x44\n      dup3\n      add\n        /* \"#utility.yul\":12852:12914   */\n      mstore\n        /* \"#utility.yul\":12950:12960   */\n      0x756972656d656e74000000000000000000000000000000000000000000000000\n        /* \"#utility.yul\":12930:12948   */\n      0x64\n      dup3\n      add\n        /* \"#utility.yul\":12923:12961   */\n      mstore\n        /* \"#utility.yul\":12978:12997   */\n      0x84\n      add\n        /* \"QuestTracker.sol\":3974:4051  require(_requirements.length > 0, \"Quest must have at least one requirement\") */\n      tag_127\n        /* \"#utility.yul\":12599:13003   */\n      jump\n        /* \"QuestTracker.sol\":3974:4051  require(_requirements.length > 0, \"Quest must have at least one requirement\") */\n    tag_170:\n        /* \"QuestTracker.sol\":4072:4084  questCounter */\n      0x01\n        /* \"QuestTracker.sol\":4072:4086  questCounter++ */\n      dup1\n      sload\n      swap1\n        /* \"QuestTracker.sol\":4072:4084  questCounter */\n      0x00\n        /* \"QuestTracker.sol\":4072:4086  questCounter++ */\n      tag_173\n      dup4\n      tag_174\n      jump\t// in\n    tag_173:\n      swap1\n      swap2\n      sstore\n      pop\n      pop\n        /* \"QuestTracker.sol\":4130:4479  Quest({... */\n      0x40\n      dup1\n      mload\n      0x0120\n      dup2\n      add\n      dup3\n      mstore\n        /* \"QuestTracker.sol\":4155:4167  questCounter */\n      0x01\n      dup1\n      sload\n        /* \"QuestTracker.sol\":4130:4479  Quest({... */\n      dup1\n      dup4\n      mstore\n      0x20\n      dup1\n      dup5\n      add\n      dup12\n      dup2\n      mstore\n      dup5\n      dup7\n      add\n      dup12\n      swap1\n      mstore\n      0x60\n      dup6\n      add\n      dup11\n      swap1\n      mstore\n      0x80\n      dup6\n      add\n      dup10\n      swap1\n      mstore\n      0xa0\n      dup6\n      add\n      dup9\n      swap1\n      mstore\n      0xc0\n      dup6\n      add\n      dup5\n      swap1\n      mstore\n        /* \"QuestTracker.sol\":4420:4435  block.timestamp */\n      timestamp\n        /* \"QuestTracker.sol\":4130:4479  Quest({... */\n      0xe0\n      dup7\n      add\n      mstore\n      0x0100\n      dup6\n      add\n      dup8\n      swap1\n      mstore\n      0x00\n        /* \"QuestTracker.sol\":4107:4127  quests[questCounter] */\n      swap3\n      dup4\n      mstore\n        /* \"QuestTracker.sol\":4107:4113  quests */\n      0x02\n        /* \"QuestTracker.sol\":4107:4127  quests[questCounter] */\n      swap1\n      swap2\n      mstore\n      swap4\n      swap1\n      keccak256\n        /* \"QuestTracker.sol\":4107:4479  quests[questCounter] = Quest({... */\n      dup3\n      mload\n      dup2\n      sstore\n      swap3\n      mload\n        /* \"QuestTracker.sol\":4130:4479  Quest({... */\n      swap2\n      swap3\n        /* \"QuestTracker.sol\":4107:4127  quests[questCounter] */\n      swap2\n        /* \"QuestTracker.sol\":4107:4479  quests[questCounter] = Quest({... */\n      swap1\n      dup3\n      add\n      swap1\n      tag_175\n      swap1\n      dup3\n      tag_176\n      jump\t// in\n    tag_175:\n      pop\n      0x40\n      dup3\n      add\n      mload\n      0x02\n      dup3\n      add\n      swap1\n      tag_177\n      swap1\n      dup3\n      tag_176\n      jump\t// in\n    tag_177:\n      pop\n      0x60\n      dup3\n      add\n      mload\n      0x03\n      dup3\n      add\n      sstore\n      0x80\n      dup3\n      add\n      mload\n      dup1\n      mload\n      tag_178\n      swap2\n      0x04\n      dup5\n      add\n      swap2\n      0x20\n      swap1\n      swap2\n      add\n      swap1\n      tag_179\n      jump\t// in\n    tag_178:\n      pop\n      0xa0\n      dup3\n      add\n      mload\n      0x05\n      dup3\n      add\n      sstore\n      0xc0\n      dup3\n      add\n      mload\n      0x06\n      dup3\n      add\n      dup1\n      sload\n      not(0xff)\n      and\n      swap2\n      iszero\n      iszero\n      swap2\n      swap1\n      swap2\n      or\n      swap1\n      sstore\n      0xe0\n      dup3\n      add\n      mload\n      0x07\n      dup3\n      add\n      sstore\n      0x0100\n      swap1\n      swap2\n      add\n      mload\n      0x08\n      swap1\n      swap2\n      add\n      sstore\n      0x01\n        /* \"QuestTracker.sol\":4518:4530  questCounter */\n      sload\n        /* \"QuestTracker.sol\":4505:4558  QuestCreated(questCounter, _title, _reward, _endDate) */\n      mload(0x40)\n      0x081a3e146b56e9690728c0eb05145923b1d36a59d7dc8175ad7133d1aef84f36\n      swap1\n      tag_180\n      swap1\n        /* \"QuestTracker.sol\":4532:4538  _title */\n      dup10\n      swap1\n        /* \"QuestTracker.sol\":4540:4547  _reward */\n      dup9\n      swap1\n        /* \"QuestTracker.sol\":4549:4557  _endDate */\n      dup7\n      swap1\n        /* \"QuestTracker.sol\":4505:4558  QuestCreated(questCounter, _title, _reward, _endDate) */\n      tag_181\n      jump\t// in\n    tag_180:\n      mload(0x40)\n      dup1\n      swap2\n      sub\n      swap1\n      log2\n        /* \"QuestTracker.sol\":3635:4566  function createQuest(... */\n      pop\n      pop\n      pop\n      pop\n      pop\n      pop\n      jump\t// out\n        /* \"QuestTracker.sol\":6617:8214  function getUserDetails(address _user) external view returns (UserDetails memory) {... */\n    tag_70:\n        /* \"QuestTracker.sol\":6679:6697  UserDetails memory */\n      tag_182\n      tag_183\n      jump\t// in\n    tag_182:\n      sub(shl(0xa0, 0x01), 0x01)\n        /* \"QuestTracker.sol\":6761:6788  totalQuestsCompleted[_user] */\n      dup3\n      and\n        /* \"QuestTracker.sol\":6710:6744  uint256[] memory completedQuestIds */\n      0x00\n        /* \"QuestTracker.sol\":6761:6788  totalQuestsCompleted[_user] */\n      swap1\n      dup2\n      mstore\n        /* \"QuestTracker.sol\":6761:6781  totalQuestsCompleted */\n      0x04\n        /* \"QuestTracker.sol\":6761:6788  totalQuestsCompleted[_user] */\n      0x20\n      mstore\n      0x40\n      dup2\n      keccak256\n      sload\n        /* \"QuestTracker.sol\":6747:6789  new uint256[](totalQuestsCompleted[_user]) */\n      0xffffffffffffffff\n      dup2\n      gt\n      iszero\n      tag_186\n      jumpi\n      tag_186\n      tag_91\n      jump\t// in\n    tag_186:\n      mload(0x40)\n      swap1\n      dup1\n      dup3\n      mstore\n      dup1\n      0x20\n      mul\n      0x20\n      add\n      dup3\n      add\n      0x40\n      mstore\n      dup1\n      iszero\n      tag_187\n      jumpi\n      dup2\n      0x20\n      add\n      0x20\n      dup3\n      mul\n      dup1\n      calldatasize\n      dup4\n      calldatacopy\n      add\n      swap1\n      pop\n    tag_187:\n      pop\n        /* \"QuestTracker.sol\":6710:6789  uint256[] memory completedQuestIds = new uint256[](totalQuestsCompleted[_user]) */\n      swap1\n      pop\n        /* \"QuestTracker.sol\":6800:6822  uint256 completedIndex */\n      0x00\n        /* \"QuestTracker.sol\":6902:6903  1 */\n      0x01\n        /* \"QuestTracker.sol\":6885:7098  for (uint256 i = 1; i <= questCounter; i++) {... */\n    tag_188:\n        /* \"QuestTracker.sol\":6910:6922  questCounter */\n      sload(0x01)\n        /* \"QuestTracker.sol\":6905:6906  i */\n      dup2\n        /* \"QuestTracker.sol\":6905:6922  i <= questCounter */\n      gt\n        /* \"QuestTracker.sol\":6885:7098  for (uint256 i = 1; i <= questCounter; i++) {... */\n      tag_189\n      jumpi\n      sub(shl(0xa0, 0x01), 0x01)\n        /* \"QuestTracker.sol\":6948:6965  userQuests[_user] */\n      dup6\n      and\n      0x00\n      swap1\n      dup2\n      mstore\n        /* \"QuestTracker.sol\":6948:6958  userQuests */\n      0x03\n        /* \"QuestTracker.sol\":6948:6965  userQuests[_user] */\n      0x20\n      swap1\n      dup2\n      mstore\n      0x40\n      dup1\n      dup4\n      keccak256\n        /* \"QuestTracker.sol\":6948:6968  userQuests[_user][i] */\n      dup5\n      dup5\n      mstore\n      swap1\n      swap2\n      mstore\n      swap1\n      keccak256\n        /* \"QuestTracker.sol\":6948:6978  userQuests[_user][i].completed */\n      sload\n      0xff\n      and\n        /* \"QuestTracker.sol\":6944:7087  if (userQuests[_user][i].completed) {... */\n      iszero\n      tag_191\n      jumpi\n        /* \"QuestTracker.sol\":7035:7036  i */\n      dup1\n        /* \"QuestTracker.sol\":6999:7016  completedQuestIds */\n      dup4\n        /* \"QuestTracker.sol\":7017:7031  completedIndex */\n      dup4\n        /* \"QuestTracker.sol\":6999:7032  completedQuestIds[completedIndex] */\n      dup2\n      mload\n      dup2\n      lt\n      tag_193\n      jumpi\n      tag_193\n      tag_122\n      jump\t// in\n    tag_193:\n      0x20\n      swap1\n      dup2\n      mul\n      swap2\n      swap1\n      swap2\n      add\n      add\n        /* \"QuestTracker.sol\":6999:7036  completedQuestIds[completedIndex] = i */\n      mstore\n        /* \"QuestTracker.sol\":7055:7071  completedIndex++ */\n      dup2\n      tag_194\n      dup2\n      tag_174\n      jump\t// in\n    tag_194:\n      swap3\n      pop\n      pop\n        /* \"QuestTracker.sol\":6944:7087  if (userQuests[_user][i].completed) {... */\n    tag_191:\n        /* \"QuestTracker.sol\":6924:6927  i++ */\n      dup1\n      tag_195\n      dup2\n      tag_174\n      jump\t// in\n    tag_195:\n      swap2\n      pop\n      pop\n        /* \"QuestTracker.sol\":6885:7098  for (uint256 i = 1; i <= questCounter; i++) {... */\n      jump(tag_188)\n    tag_189:\n      pop\n      sub(shl(0xa0, 0x01), 0x01)\n        /* \"QuestTracker.sol\":7186:7204  dailyClaims[_user] */\n      dup5\n      and\n        /* \"QuestTracker.sol\":7151:7183  DailyClaim memory dailyClaimInfo */\n      0x00\n        /* \"QuestTracker.sol\":7186:7204  dailyClaims[_user] */\n      swap1\n      dup2\n      mstore\n        /* \"QuestTracker.sol\":7186:7197  dailyClaims */\n      0x05\n        /* \"QuestTracker.sol\":7186:7204  dailyClaims[_user] */\n      0x20\n      swap1\n      dup2\n      mstore\n      0x40\n      dup1\n      dup4\n      keccak256\n        /* \"QuestTracker.sol\":7151:7204  DailyClaim memory dailyClaimInfo = dailyClaims[_user] */\n      dup2\n      mload\n      dup1\n      dup4\n      add\n      swap1\n      swap3\n      mstore\n      dup1\n      sload\n      dup1\n      dup4\n      mstore\n      0x01\n      swap1\n      swap2\n      add\n      sload\n      0xff\n      and\n      iszero\n      iszero\n      swap3\n      dup3\n      add\n      swap3\n      swap1\n      swap3\n      mstore\n      swap2\n        /* \"QuestTracker.sol\":7237:7252  block.timestamp */\n      timestamp\n      swap2\n        /* \"QuestTracker.sol\":7151:7183  DailyClaim memory dailyClaimInfo */\n      dup2\n      swap1\n        /* \"QuestTracker.sol\":7353:7386  dailyClaimInfo.lastClaimTime == 0 */\n      dup2\n      sub\n        /* \"QuestTracker.sol\":7349:7899  if (dailyClaimInfo.lastClaimTime == 0) {... */\n      tag_196\n      jumpi\n      pop\n        /* \"QuestTracker.sol\":7455:7459  true */\n      0x01\n      swap1\n      pop\n        /* \"QuestTracker.sol\":7495:7496  0 */\n      0x00\n        /* \"QuestTracker.sol\":7349:7899  if (dailyClaimInfo.lastClaimTime == 0) {... */\n      jump(tag_197)\n    tag_196:\n        /* \"QuestTracker.sol\":7572:7600  dailyClaimInfo.lastClaimTime */\n      dup4\n      mload\n        /* \"QuestTracker.sol\":7529:7555  uint256 timeSinceLastClaim */\n      0x00\n      swap1\n        /* \"QuestTracker.sol\":7558:7600  currentTime - dailyClaimInfo.lastClaimTime */\n      tag_198\n      swap1\n        /* \"QuestTracker.sol\":7558:7569  currentTime */\n      dup6\n        /* \"QuestTracker.sol\":7558:7600  currentTime - dailyClaimInfo.lastClaimTime */\n      tag_199\n      jump\t// in\n    tag_198:\n        /* \"QuestTracker.sol\":7529:7600  uint256 timeSinceLastClaim = currentTime - dailyClaimInfo.lastClaimTime */\n      swap1\n      pop\n        /* \"QuestTracker.sol\":7641:7654  claimCooldown */\n      immutable(\"0xf1ae7da53f98170be52cc9330214a82f7ba06ee306297b4e1fb86fb21c611aa6\")\n        /* \"QuestTracker.sol\":7619:7637  timeSinceLastClaim */\n      dup2\n        /* \"QuestTracker.sol\":7619:7654  timeSinceLastClaim >= claimCooldown */\n      lt\n        /* \"QuestTracker.sol\":7615:7888  if (timeSinceLastClaim >= claimCooldown) {... */\n      tag_200\n      jumpi\n        /* \"QuestTracker.sol\":7691:7695  true */\n      0x01\n        /* \"QuestTracker.sol\":7675:7695  canClaimDaily = true */\n      swap3\n      pop\n        /* \"QuestTracker.sol\":7735:7736  0 */\n      0x00\n        /* \"QuestTracker.sol\":7714:7736  timeUntilNextClaim = 0 */\n      swap2\n      pop\n        /* \"QuestTracker.sol\":7615:7888  if (timeSinceLastClaim >= claimCooldown) {... */\n      jump(tag_201)\n    tag_200:\n        /* \"QuestTracker.sol\":7793:7798  false */\n      0x00\n      swap3\n      pop\n        /* \"QuestTracker.sol\":7838:7872  claimCooldown - timeSinceLastClaim */\n      tag_202\n        /* \"QuestTracker.sol\":7854:7872  timeSinceLastClaim */\n      dup2\n        /* \"QuestTracker.sol\":7838:7851  claimCooldown */\n      immutable(\"0xf1ae7da53f98170be52cc9330214a82f7ba06ee306297b4e1fb86fb21c611aa6\")\n        /* \"QuestTracker.sol\":7838:7872  claimCooldown - timeSinceLastClaim */\n      tag_199\n      jump\t// in\n    tag_202:\n        /* \"QuestTracker.sol\":7817:7872  timeUntilNextClaim = claimCooldown - timeSinceLastClaim */\n      swap2\n      pop\n        /* \"QuestTracker.sol\":7615:7888  if (timeSinceLastClaim >= claimCooldown) {... */\n    tag_201:\n        /* \"QuestTracker.sol\":7514:7899  {... */\n      pop\n        /* \"QuestTracker.sol\":7349:7899  if (dailyClaimInfo.lastClaimTime == 0) {... */\n    tag_197:\n        /* \"QuestTracker.sol\":7926:8206  UserDetails({... */\n      0x40\n      dup1\n      mload\n      0xa0\n      dup2\n      add\n      dup3\n      mstore\n      swap7\n      dup8\n      mstore\n      sub(shl(0xa0, 0x01), 0x01)\n        /* \"QuestTracker.sol\":8026:8053  totalQuestsCompleted[_user] */\n      swap1\n      swap9\n      and\n      0x00\n      swap1\n      dup2\n      mstore\n        /* \"QuestTracker.sol\":8026:8046  totalQuestsCompleted */\n      0x04\n        /* \"QuestTracker.sol\":7926:8206  UserDetails({... */\n      0x20\n        /* \"QuestTracker.sol\":8026:8053  totalQuestsCompleted[_user] */\n      swap1\n      dup2\n      mstore\n      swap1\n      dup10\n      swap1\n      keccak256\n      sload\n        /* \"QuestTracker.sol\":7926:8206  UserDetails({... */\n      swap1\n      dup8\n      add\n      mstore\n      swap7\n      dup6\n      add\n      swap3\n      swap1\n      swap3\n      mstore\n      pop\n      iszero\n      iszero\n      0x60\n      dup4\n      add\n      mstore\n      pop\n      0x80\n      dup2\n      add\n      swap3\n      swap1\n      swap3\n      mstore\n      pop\n      swap1\n        /* \"QuestTracker.sol\":6617:8214  function getUserDetails(address _user) external view returns (UserDetails memory) {... */\n      jump\t// out\n        /* \"QuestTracker.sol\":4771:5531  function completeQuestForUser(address _user, uint256 _questId) ... */\n    tag_75:\n        /* \"QuestTracker.sol\":4875:4883  _questId */\n      dup1\n        /* \"QuestTracker.sol\":2366:2367  0 */\n      0x00\n        /* \"QuestTracker.sol\":2355:2363  _questId */\n      dup2\n        /* \"QuestTracker.sol\":2355:2367  _questId > 0 */\n      gt\n        /* \"QuestTracker.sol\":2355:2395  _questId > 0 && _questId <= questCounter */\n      dup1\n      iszero\n      tag_204\n      jumpi\n      pop\n        /* \"QuestTracker.sol\":2383:2395  questCounter */\n      sload(0x01)\n        /* \"QuestTracker.sol\":2371:2379  _questId */\n      dup2\n        /* \"QuestTracker.sol\":2371:2395  _questId <= questCounter */\n      gt\n      iszero\n        /* \"QuestTracker.sol\":2355:2395  _questId > 0 && _questId <= questCounter */\n    tag_204:\n        /* \"QuestTracker.sol\":2347:2420  require(_questId > 0 && _questId <= questCounter, \"Quest does not exist\") */\n      tag_205\n      jumpi\n      mload(0x40)\n      shl(0xe5, 0x461bcd)\n      dup2\n      mstore\n        /* \"#utility.yul\":10573:10575   */\n      0x20\n        /* \"QuestTracker.sol\":2347:2420  require(_questId > 0 && _questId <= questCounter, \"Quest does not exist\") */\n      0x04\n      dup3\n      add\n        /* \"#utility.yul\":10555:10576   */\n      mstore\n        /* \"#utility.yul\":10612:10614   */\n      0x14\n        /* \"#utility.yul\":10592:10610   */\n      0x24\n      dup3\n      add\n        /* \"#utility.yul\":10585:10615   */\n      mstore\n        /* \"#utility.yul\":10651:10673   */\n      0x517565737420646f6573206e6f74206578697374000000000000000000000000\n        /* \"#utility.yul\":10631:10649   */\n      0x44\n      dup3\n      add\n        /* \"#utility.yul\":10624:10674   */\n      mstore\n        /* \"#utility.yul\":10691:10709   */\n      0x64\n      add\n        /* \"QuestTracker.sol\":2347:2420  require(_questId > 0 && _questId <= questCounter, \"Quest does not exist\") */\n      tag_127\n        /* \"#utility.yul\":10371:10715   */\n      jump\n        /* \"QuestTracker.sol\":2347:2420  require(_questId > 0 && _questId <= questCounter, \"Quest does not exist\") */\n    tag_205:\n        /* \"QuestTracker.sol\":2512:2528  quests[_questId] */\n      0x00\n      dup3\n      dup2\n      mstore\n        /* \"QuestTracker.sol\":2512:2518  quests */\n      0x02\n        /* \"QuestTracker.sol\":2512:2528  quests[_questId] */\n      0x20\n      mstore\n      0x40\n      swap1\n      keccak256\n        /* \"QuestTracker.sol\":2512:2537  quests[_questId].isActive */\n      0x06\n      add\n      sload\n        /* \"QuestTracker.sol\":4909:4917  _questId */\n      dup3\n      swap1\n        /* \"QuestTracker.sol\":2512:2537  quests[_questId].isActive */\n      0xff\n      and\n        /* \"QuestTracker.sol\":2504:2561  require(quests[_questId].isActive, \"Quest is not active\") */\n      tag_208\n      jumpi\n      mload(0x40)\n      shl(0xe5, 0x461bcd)\n      dup2\n      mstore\n        /* \"#utility.yul\":16020:16022   */\n      0x20\n        /* \"QuestTracker.sol\":2504:2561  require(quests[_questId].isActive, \"Quest is not active\") */\n      0x04\n      dup3\n      add\n        /* \"#utility.yul\":16002:16023   */\n      mstore\n        /* \"#utility.yul\":16059:16061   */\n      0x13\n        /* \"#utility.yul\":16039:16057   */\n      0x24\n      dup3\n      add\n        /* \"#utility.yul\":16032:16062   */\n      mstore\n        /* \"#utility.yul\":16098:16119   */\n      0x5175657374206973206e6f742061637469766500000000000000000000000000\n        /* \"#utility.yul\":16078:16096   */\n      0x44\n      dup3\n      add\n        /* \"#utility.yul\":16071:16120   */\n      mstore\n        /* \"#utility.yul\":16137:16155   */\n      0x64\n      add\n        /* \"QuestTracker.sol\":2504:2561  require(quests[_questId].isActive, \"Quest is not active\") */\n      tag_127\n        /* \"#utility.yul\":15818:16161   */\n      jump\n        /* \"QuestTracker.sol\":2504:2561  require(quests[_questId].isActive, \"Quest is not active\") */\n    tag_208:\n        /* \"QuestTracker.sol\":2599:2615  quests[_questId] */\n      0x00\n      dup2\n      dup2\n      mstore\n        /* \"QuestTracker.sol\":2599:2605  quests */\n      0x02\n        /* \"QuestTracker.sol\":2599:2615  quests[_questId] */\n      0x20\n      mstore\n      0x40\n      swap1\n      keccak256\n        /* \"QuestTracker.sol\":2599:2623  quests[_questId].endDate */\n      0x08\n      add\n      sload\n        /* \"QuestTracker.sol\":2580:2595  block.timestamp */\n      timestamp\n        /* \"QuestTracker.sol\":2580:2623  block.timestamp <= quests[_questId].endDate */\n      gt\n      iszero\n        /* \"QuestTracker.sol\":2572:2645  require(block.timestamp <= quests[_questId].endDate, \"Quest has expired\") */\n      tag_211\n      jumpi\n      mload(0x40)\n      shl(0xe5, 0x461bcd)\n      dup2\n      mstore\n        /* \"#utility.yul\":16368:16370   */\n      0x20\n        /* \"QuestTracker.sol\":2572:2645  require(block.timestamp <= quests[_questId].endDate, \"Quest has expired\") */\n      0x04\n      dup3\n      add\n        /* \"#utility.yul\":16350:16371   */\n      mstore\n        /* \"#utility.yul\":16407:16409   */\n      0x11\n        /* \"#utility.yul\":16387:16405   */\n      0x24\n      dup3\n      add\n        /* \"#utility.yul\":16380:16410   */\n      mstore\n        /* \"#utility.yul\":16446:16465   */\n      0x5175657374206861732065787069726564000000000000000000000000000000\n        /* \"#utility.yul\":16426:16444   */\n      0x44\n      dup3\n      add\n        /* \"#utility.yul\":16419:16466   */\n      mstore\n        /* \"#utility.yul\":16483:16501   */\n      0x64\n      add\n        /* \"QuestTracker.sol\":2572:2645  require(block.timestamp <= quests[_questId].endDate, \"Quest has expired\") */\n      tag_127\n        /* \"#utility.yul\":16166:16507   */\n      jump\n        /* \"QuestTracker.sol\":2572:2645  require(block.timestamp <= quests[_questId].endDate, \"Quest has expired\") */\n    tag_211:\n        /* \"QuestTracker.sol\":4958:4963  owner */\n      and(sub(shl(0xa0, 0x01), 0x01), sload(0x00))\n        /* \"QuestTracker.sol\":4944:4954  msg.sender */\n      caller\n        /* \"QuestTracker.sol\":4944:4963  msg.sender == owner */\n      eq\n      dup1\n        /* \"QuestTracker.sol\":4944:4994  msg.sender == owner || msg.sender == backendWallet */\n      tag_215\n      jumpi\n      pop\n        /* \"QuestTracker.sol\":4967:4977  msg.sender */\n      caller\n      sub(shl(0xa0, 0x01), 0x01)\n        /* \"QuestTracker.sol\":4981:4994  backendWallet */\n      immutable(\"0xe455bf8ea6e7463a1046a0b52804526e119b4bf5136279614e0b1e8e296a4e2d\")\n        /* \"QuestTracker.sol\":4967:4994  msg.sender == backendWallet */\n      and\n      eq\n        /* \"QuestTracker.sol\":4944:4994  msg.sender == owner || msg.sender == backendWallet */\n    tag_215:\n        /* \"QuestTracker.sol\":4936:5040  require(msg.sender == owner || msg.sender == backendWallet, \"Only owner or backend can complete quests\") */\n      tag_216\n      jumpi\n      mload(0x40)\n      shl(0xe5, 0x461bcd)\n      dup2\n      mstore\n        /* \"#utility.yul\":16714:16716   */\n      0x20\n        /* \"QuestTracker.sol\":4936:5040  require(msg.sender == owner || msg.sender == backendWallet, \"Only owner or backend can complete quests\") */\n      0x04\n      dup3\n      add\n        /* \"#utility.yul\":16696:16717   */\n      mstore\n        /* \"#utility.yul\":16753:16755   */\n      0x29\n        /* \"#utility.yul\":16733:16751   */\n      0x24\n      dup3\n      add\n        /* \"#utility.yul\":16726:16756   */\n      mstore\n        /* \"#utility.yul\":16792:16826   */\n      0x4f6e6c79206f776e6572206f72206261636b656e642063616e20636f6d706c65\n        /* \"#utility.yul\":16772:16790   */\n      0x44\n      dup3\n      add\n        /* \"#utility.yul\":16765:16827   */\n      mstore\n        /* \"#utility.yul\":16863:16874   */\n      0x7465207175657374730000000000000000000000000000000000000000000000\n        /* \"#utility.yul\":16843:16861   */\n      0x64\n      dup3\n      add\n        /* \"#utility.yul\":16836:16875   */\n      mstore\n        /* \"#utility.yul\":16892:16911   */\n      0x84\n      add\n        /* \"QuestTracker.sol\":4936:5040  require(msg.sender == owner || msg.sender == backendWallet, \"Only owner or backend can complete quests\") */\n      tag_127\n        /* \"#utility.yul\":16512:16917   */\n      jump\n        /* \"QuestTracker.sol\":4936:5040  require(msg.sender == owner || msg.sender == backendWallet, \"Only owner or backend can complete quests\") */\n    tag_216:\n      sub(shl(0xa0, 0x01), 0x01)\n        /* \"QuestTracker.sol\":5059:5078  _user != address(0) */\n      dup5\n      and\n        /* \"QuestTracker.sol\":5051:5103  require(_user != address(0), \"Invalid user address\") */\n      tag_219\n      jumpi\n      mload(0x40)\n      shl(0xe5, 0x461bcd)\n      dup2\n      mstore\n        /* \"#utility.yul\":11334:11336   */\n      0x20\n        /* \"QuestTracker.sol\":5051:5103  require(_user != address(0), \"Invalid user address\") */\n      0x04\n      dup3\n      add\n        /* \"#utility.yul\":11316:11337   */\n      mstore\n        /* \"#utility.yul\":11373:11375   */\n      0x14\n        /* \"#utility.yul\":11353:11371   */\n      0x24\n      dup3\n      add\n        /* \"#utility.yul\":11346:11376   */\n      mstore\n        /* \"#utility.yul\":11412:11434   */\n      0x496e76616c696420757365722061646472657373000000000000000000000000\n        /* \"#utility.yul\":11392:11410   */\n      0x44\n      dup3\n      add\n        /* \"#utility.yul\":11385:11435   */\n      mstore\n        /* \"#utility.yul\":11452:11470   */\n      0x64\n      add\n        /* \"QuestTracker.sol\":5051:5103  require(_user != address(0), \"Invalid user address\") */\n      tag_127\n        /* \"#utility.yul\":11132:11476   */\n      jump\n        /* \"QuestTracker.sol\":5051:5103  require(_user != address(0), \"Invalid user address\") */\n    tag_219:\n      sub(shl(0xa0, 0x01), 0x01)\n        /* \"QuestTracker.sol\":5123:5140  userQuests[_user] */\n      dup5\n      and\n      0x00\n      swap1\n      dup2\n      mstore\n        /* \"QuestTracker.sol\":5123:5133  userQuests */\n      0x03\n        /* \"QuestTracker.sol\":5123:5140  userQuests[_user] */\n      0x20\n      swap1\n      dup2\n      mstore\n      0x40\n      dup1\n      dup4\n      keccak256\n        /* \"QuestTracker.sol\":5123:5150  userQuests[_user][_questId] */\n      dup7\n      dup5\n      mstore\n      swap1\n      swap2\n      mstore\n      swap1\n      keccak256\n        /* \"QuestTracker.sol\":5123:5160  userQuests[_user][_questId].completed */\n      sload\n      0xff\n      and\n        /* \"QuestTracker.sol\":5122:5160  !userQuests[_user][_questId].completed */\n      iszero\n        /* \"QuestTracker.sol\":5114:5188  require(!userQuests[_user][_questId].completed, \"Quest already completed\") */\n      tag_221\n      jumpi\n      mload(0x40)\n      shl(0xe5, 0x461bcd)\n      dup2\n      mstore\n        /* \"#utility.yul\":17124:17126   */\n      0x20\n        /* \"QuestTracker.sol\":5114:5188  require(!userQuests[_user][_questId].completed, \"Quest already completed\") */\n      0x04\n      dup3\n      add\n        /* \"#utility.yul\":17106:17127   */\n      mstore\n        /* \"#utility.yul\":17163:17165   */\n      0x17\n        /* \"#utility.yul\":17143:17161   */\n      0x24\n      dup3\n      add\n        /* \"#utility.yul\":17136:17166   */\n      mstore\n        /* \"#utility.yul\":17202:17227   */\n      0x517565737420616c726561647920636f6d706c65746564000000000000000000\n        /* \"#utility.yul\":17182:17200   */\n      0x44\n      dup3\n      add\n        /* \"#utility.yul\":17175:17228   */\n      mstore\n        /* \"#utility.yul\":17245:17263   */\n      0x64\n      add\n        /* \"QuestTracker.sol\":5114:5188  require(!userQuests[_user][_questId].completed, \"Quest already completed\") */\n      tag_127\n        /* \"#utility.yul\":16922:17269   */\n      jump\n        /* \"QuestTracker.sol\":5114:5188  require(!userQuests[_user][_questId].completed, \"Quest already completed\") */\n    tag_221:\n        /* \"QuestTracker.sol\":5288:5386  UserProgress({... */\n      0x40\n      dup1\n      mload\n      dup1\n      dup3\n      add\n      dup3\n      mstore\n        /* \"QuestTracker.sol\":5327:5331  true */\n      0x01\n        /* \"QuestTracker.sol\":5288:5386  UserProgress({... */\n      dup1\n      dup3\n      mstore\n        /* \"QuestTracker.sol\":5359:5374  block.timestamp */\n      timestamp\n        /* \"QuestTracker.sol\":5288:5386  UserProgress({... */\n      0x20\n      dup1\n      dup5\n      add\n      swap2\n      dup3\n      mstore\n      sub(shl(0xa0, 0x01), 0x01)\n        /* \"QuestTracker.sol\":5258:5275  userQuests[_user] */\n      dup10\n      and\n      0x00\n      dup2\n      dup2\n      mstore\n        /* \"QuestTracker.sol\":5258:5268  userQuests */\n      0x03\n        /* \"QuestTracker.sol\":5258:5275  userQuests[_user] */\n      dup4\n      mstore\n      dup7\n      dup2\n      keccak256\n        /* \"QuestTracker.sol\":5258:5285  userQuests[_user][_questId] */\n      dup11\n      dup3\n      mstore\n      dup4\n      mstore\n      dup7\n      dup2\n      keccak256\n        /* \"QuestTracker.sol\":5258:5386  userQuests[_user][_questId] = UserProgress({... */\n      swap6\n      mload\n      dup7\n      sload\n      not(0xff)\n      and\n      swap1\n      iszero\n      iszero\n      or\n      dup7\n      sstore\n      swap3\n      mload\n      swap5\n      swap1\n      swap4\n      add\n      swap4\n      swap1\n      swap4\n      sstore\n        /* \"QuestTracker.sol\":5437:5464  totalQuestsCompleted[_user] */\n      swap1\n      dup2\n      mstore\n        /* \"QuestTracker.sol\":5437:5457  totalQuestsCompleted */\n      0x04\n        /* \"QuestTracker.sol\":5437:5464  totalQuestsCompleted[_user] */\n      swap1\n      swap2\n      mstore\n      swap1\n      dup2\n      keccak256\n        /* \"QuestTracker.sol\":5437:5466  totalQuestsCompleted[_user]++ */\n      dup1\n      sload\n      swap2\n      tag_224\n      dup4\n      tag_174\n      jump\t// in\n    tag_224:\n      swap1\n      swap2\n      sstore\n      pop\n      pop\n        /* \"QuestTracker.sol\":5492:5523  QuestCompleted(_user, _questId) */\n      mload(0x40)\n        /* \"QuestTracker.sol\":5514:5522  _questId */\n      dup4\n      swap1\n      sub(shl(0xa0, 0x01), 0x01)\n        /* \"QuestTracker.sol\":5492:5523  QuestCompleted(_user, _questId) */\n      dup7\n      and\n      swap1\n      0x6618f11353f68847dc28cc4b36a04270fab5e356fa35386e6315ba7ff205a633\n      swap1\n      0x00\n      swap1\n      log3\n        /* \"QuestTracker.sol\":2431:2432  _ */\n      pop\n        /* \"QuestTracker.sol\":4771:5531  function completeQuestForUser(address _user, uint256 _questId) ... */\n      pop\n      pop\n      pop\n      jump\t// out\n        /* \"QuestTracker.sol\":1373:1412  mapping(uint256 => Quest) public quests */\n    tag_78:\n      mstore(0x20, 0x02)\n      0x00\n      swap1\n      dup2\n      mstore\n      0x40\n      swap1\n      keccak256\n      dup1\n      sload\n      0x01\n      dup3\n      add\n      dup1\n      sload\n      swap2\n      swap3\n      swap2\n      tag_225\n      swap1\n      tag_102\n      jump\t// in\n    tag_225:\n      dup1\n      0x1f\n      add\n      0x20\n      dup1\n      swap2\n      div\n      mul\n      0x20\n      add\n      mload(0x40)\n      swap1\n      dup2\n      add\n      0x40\n      mstore\n      dup1\n      swap3\n      swap2\n      swap1\n      dup2\n      dup2\n      mstore\n      0x20\n      add\n      dup3\n      dup1\n      sload\n      tag_226\n      swap1\n      tag_102\n      jump\t// in\n    tag_226:\n      dup1\n      iszero\n      tag_227\n      jumpi\n      dup1\n      0x1f\n      lt\n      tag_228\n      jumpi\n      0x0100\n      dup1\n      dup4\n      sload\n      div\n      mul\n      dup4\n      mstore\n      swap2\n      0x20\n      add\n      swap2\n      jump(tag_227)\n    tag_228:\n      dup3\n      add\n      swap2\n      swap1\n      0x00\n      mstore\n      keccak256(0x00, 0x20)\n      swap1\n    tag_229:\n      dup2\n      sload\n      dup2\n      mstore\n      swap1\n      0x01\n      add\n      swap1\n      0x20\n      add\n      dup1\n      dup4\n      gt\n      tag_229\n      jumpi\n      dup3\n      swap1\n      sub\n      0x1f\n      and\n      dup3\n      add\n      swap2\n    tag_227:\n      pop\n      pop\n      pop\n      pop\n      pop\n      swap1\n      dup1\n      0x02\n      add\n      dup1\n      sload\n      tag_230\n      swap1\n      tag_102\n      jump\t// in\n    tag_230:\n      dup1\n      0x1f\n      add\n      0x20\n      dup1\n      swap2\n      div\n      mul\n      0x20\n      add\n      mload(0x40)\n      swap1\n      dup2\n      add\n      0x40\n      mstore\n      dup1\n      swap3\n      swap2\n      swap1\n      dup2\n      dup2\n      mstore\n      0x20\n      add\n      dup3\n      dup1\n      sload\n      tag_231\n      swap1\n      tag_102\n      jump\t// in\n    tag_231:\n      dup1\n      iszero\n      tag_232\n      jumpi\n      dup1\n      0x1f\n      lt\n      tag_233\n      jumpi\n      0x0100\n      dup1\n      dup4\n      sload\n      div\n      mul\n      dup4\n      mstore\n      swap2\n      0x20\n      add\n      swap2\n      jump(tag_232)\n    tag_233:\n      dup3\n      add\n      swap2\n      swap1\n      0x00\n      mstore\n      keccak256(0x00, 0x20)\n      swap1\n    tag_234:\n      dup2\n      sload\n      dup2\n      mstore\n      swap1\n      0x01\n      add\n      swap1\n      0x20\n      add\n      dup1\n      dup4\n      gt\n      tag_234\n      jumpi\n      dup3\n      swap1\n      sub\n      0x1f\n      and\n      dup3\n      add\n      swap2\n    tag_232:\n      pop\n      pop\n      pop\n      0x03\n      dup5\n      add\n      sload\n      0x05\n      dup6\n      add\n      sload\n      0x06\n      dup7\n      add\n      sload\n      0x07\n      dup8\n      add\n      sload\n      0x08\n      swap1\n      swap8\n      add\n      sload\n      swap6\n      swap7\n      swap3\n      swap6\n      swap2\n      swap5\n      pop\n      0xff\n      and\n      swap3\n      pop\n      dup9\n      jump\t// out\n    tag_179:\n      dup3\n      dup1\n      sload\n      dup3\n      dup3\n      sstore\n      swap1\n      0x00\n      mstore\n      keccak256(0x00, 0x20)\n      swap1\n      dup2\n      add\n      swap3\n      dup3\n      iszero\n      tag_237\n      jumpi\n      swap2\n      0x20\n      mul\n      dup3\n      add\n    tag_236:\n      dup3\n      dup2\n      gt\n      iszero\n      tag_237\n      jumpi\n      dup3\n      mload\n      dup3\n      swap1\n      tag_238\n      swap1\n      dup3\n      tag_176\n      jump\t// in\n    tag_238:\n      pop\n      swap2\n      0x20\n      add\n      swap2\n      swap1\n      0x01\n      add\n      swap1\n      jump(tag_236)\n    tag_237:\n      pop\n      tag_239\n      swap3\n      swap2\n      pop\n      tag_240\n      jump\t// in\n    tag_239:\n      pop\n      swap1\n      jump\t// out\n    tag_183:\n      mload(0x40)\n      dup1\n      0xa0\n      add\n      0x40\n      mstore\n      dup1\n      0x60\n      dup2\n      mstore\n      0x20\n      add\n      0x00\n      dup2\n      mstore\n      0x20\n      add\n      tag_241\n      mload(0x40)\n      dup1\n      0x40\n      add\n      0x40\n      mstore\n      dup1\n      0x00\n      dup2\n      mstore\n      0x20\n      add\n      iszero(iszero(0x00))\n      dup2\n      mstore\n      pop\n      swap1\n      jump\n    tag_241:\n      dup2\n      mstore\n      0x00\n      0x20\n      dup3\n      add\n      dup2\n      swap1\n      mstore\n      0x40\n      swap1\n      swap2\n      add\n      mstore\n      swap1\n      jump\t// out\n    tag_240:\n      dup1\n      dup3\n      gt\n      iszero\n      tag_239\n      jumpi\n      0x00\n      tag_245\n      dup3\n      dup3\n      tag_246\n      jump\t// in\n    tag_245:\n      pop\n      0x01\n      add\n      jump(tag_240)\n    tag_246:\n      pop\n      dup1\n      sload\n      tag_247\n      swap1\n      tag_102\n      jump\t// in\n    tag_247:\n      0x00\n      dup3\n      sstore\n      dup1\n      0x1f\n      lt\n      tag_249\n      jumpi\n      pop\n      pop\n      jump\t// out\n    tag_249:\n      0x1f\n      add\n      0x20\n      swap1\n      div\n      swap1\n      0x00\n      mstore\n      keccak256(0x00, 0x20)\n      swap1\n      dup2\n      add\n      swap1\n      tag_250\n      swap2\n      swap1\n      tag_251\n      jump\t// in\n    tag_250:\n      pop\n      jump\t// out\n    tag_251:\n    tag_252:\n      dup1\n      dup3\n      gt\n      iszero\n      tag_239\n      jumpi\n      0x00\n      dup2\n      sstore\n      0x01\n      add\n      jump(tag_252)\n        /* \"#utility.yul\":14:210   */\n    tag_254:\n        /* \"#utility.yul\":82:102   */\n      dup1\n      calldataload\n      sub(shl(0xa0, 0x01), 0x01)\n        /* \"#utility.yul\":131:185   */\n      dup2\n      and\n        /* \"#utility.yul\":121:186   */\n      dup2\n      eq\n        /* \"#utility.yul\":111:204   */\n      tag_268\n      jumpi\n        /* \"#utility.yul\":200:201   */\n      0x00\n        /* \"#utility.yul\":197:198   */\n      dup1\n        /* \"#utility.yul\":190:202   */\n      revert\n        /* \"#utility.yul\":111:204   */\n    tag_268:\n        /* \"#utility.yul\":14:210   */\n      swap2\n      swap1\n      pop\n      jump\t// out\n        /* \"#utility.yul\":215:401   */\n    tag_24:\n        /* \"#utility.yul\":274:280   */\n      0x00\n        /* \"#utility.yul\":327:329   */\n      0x20\n        /* \"#utility.yul\":315:324   */\n      dup3\n        /* \"#utility.yul\":306:313   */\n      dup5\n        /* \"#utility.yul\":302:325   */\n      sub\n        /* \"#utility.yul\":298:330   */\n      slt\n        /* \"#utility.yul\":295:347   */\n      iszero\n      tag_270\n      jumpi\n        /* \"#utility.yul\":343:344   */\n      0x00\n        /* \"#utility.yul\":340:341   */\n      dup1\n        /* \"#utility.yul\":333:345   */\n      revert\n        /* \"#utility.yul\":295:347   */\n    tag_270:\n        /* \"#utility.yul\":366:395   */\n      tag_271\n        /* \"#utility.yul\":385:394   */\n      dup3\n        /* \"#utility.yul\":366:395   */\n      tag_254\n      jump\t// in\n    tag_271:\n        /* \"#utility.yul\":356:395   */\n      swap4\n        /* \"#utility.yul\":215:401   */\n      swap3\n      pop\n      pop\n      pop\n      jump\t// out\n        /* \"#utility.yul\":765:1054   */\n    tag_256:\n        /* \"#utility.yul\":807:810   */\n      0x00\n        /* \"#utility.yul\":845:850   */\n      dup2\n        /* \"#utility.yul\":839:851   */\n      mload\n        /* \"#utility.yul\":872:878   */\n      dup1\n        /* \"#utility.yul\":867:870   */\n      dup5\n        /* \"#utility.yul\":860:879   */\n      mstore\n        /* \"#utility.yul\":928:934   */\n      dup1\n        /* \"#utility.yul\":921:925   */\n      0x20\n        /* \"#utility.yul\":914:919   */\n      dup5\n        /* \"#utility.yul\":910:926   */\n      add\n        /* \"#utility.yul\":903:907   */\n      0x20\n        /* \"#utility.yul\":898:901   */\n      dup7\n        /* \"#utility.yul\":894:908   */\n      add\n        /* \"#utility.yul\":888:935   */\n      mcopy\n        /* \"#utility.yul\":980:981   */\n      0x00\n        /* \"#utility.yul\":973:977   */\n      0x20\n        /* \"#utility.yul\":964:970   */\n      dup3\n        /* \"#utility.yul\":959:962   */\n      dup7\n        /* \"#utility.yul\":955:971   */\n      add\n        /* \"#utility.yul\":951:978   */\n      add\n        /* \"#utility.yul\":944:982   */\n      mstore\n        /* \"#utility.yul\":1043:1047   */\n      0x20\n        /* \"#utility.yul\":1036:1038   */\n      0x1f\n        /* \"#utility.yul\":1032:1039   */\n      not\n        /* \"#utility.yul\":1027:1029   */\n      0x1f\n        /* \"#utility.yul\":1019:1025   */\n      dup4\n        /* \"#utility.yul\":1015:1030   */\n      add\n        /* \"#utility.yul\":1011:1040   */\n      and\n        /* \"#utility.yul\":1006:1009   */\n      dup6\n        /* \"#utility.yul\":1002:1041   */\n      add\n        /* \"#utility.yul\":998:1048   */\n      add\n        /* \"#utility.yul\":991:1048   */\n      swap2\n      pop\n      pop\n        /* \"#utility.yul\":765:1054   */\n      swap3\n      swap2\n      pop\n      pop\n      jump\t// out\n        /* \"#utility.yul\":1059:1657   */\n    tag_257:\n        /* \"#utility.yul\":1111:1114   */\n      0x00\n        /* \"#utility.yul\":1142:1145   */\n      dup3\n        /* \"#utility.yul\":1174:1179   */\n      dup3\n        /* \"#utility.yul\":1168:1180   */\n      mload\n        /* \"#utility.yul\":1201:1207   */\n      dup1\n        /* \"#utility.yul\":1196:1199   */\n      dup6\n        /* \"#utility.yul\":1189:1208   */\n      mstore\n        /* \"#utility.yul\":1227:1231   */\n      0x20\n        /* \"#utility.yul\":1256:1260   */\n      dup1\n        /* \"#utility.yul\":1251:1254   */\n      dup7\n        /* \"#utility.yul\":1247:1261   */\n      add\n        /* \"#utility.yul\":1240:1261   */\n      swap6\n      pop\n        /* \"#utility.yul\":1314:1318   */\n      0x20\n        /* \"#utility.yul\":1304:1310   */\n      dup3\n        /* \"#utility.yul\":1301:1302   */\n      0x05\n        /* \"#utility.yul\":1297:1311   */\n      shl\n        /* \"#utility.yul\":1290:1295   */\n      dup5\n        /* \"#utility.yul\":1286:1312   */\n      add\n        /* \"#utility.yul\":1282:1319   */\n      add\n        /* \"#utility.yul\":1353:1357   */\n      0x20\n        /* \"#utility.yul\":1346:1351   */\n      dup7\n        /* \"#utility.yul\":1342:1358   */\n      add\n        /* \"#utility.yul\":1376:1377   */\n      0x00\n        /* \"#utility.yul\":1386:1631   */\n    tag_276:\n        /* \"#utility.yul\":1400:1406   */\n      dup5\n        /* \"#utility.yul\":1397:1398   */\n      dup2\n        /* \"#utility.yul\":1394:1407   */\n      lt\n        /* \"#utility.yul\":1386:1631   */\n      iszero\n      tag_278\n      jumpi\n        /* \"#utility.yul\":1487:1489   */\n      0x1f\n        /* \"#utility.yul\":1483:1490   */\n      not\n        /* \"#utility.yul\":1475:1480   */\n      dup7\n        /* \"#utility.yul\":1469:1473   */\n      dup5\n        /* \"#utility.yul\":1465:1481   */\n      sub\n        /* \"#utility.yul\":1461:1491   */\n      add\n        /* \"#utility.yul\":1456:1459   */\n      dup10\n        /* \"#utility.yul\":1449:1492   */\n      mstore\n        /* \"#utility.yul\":1513:1551   */\n      tag_279\n        /* \"#utility.yul\":1546:1550   */\n      dup4\n        /* \"#utility.yul\":1537:1543   */\n      dup4\n        /* \"#utility.yul\":1531:1544   */\n      mload\n        /* \"#utility.yul\":1513:1551   */\n      tag_256\n      jump\t// in\n    tag_279:\n        /* \"#utility.yul\":1609:1621   */\n      swap9\n      dup5\n      add\n      swap9\n        /* \"#utility.yul\":1505:1551   */\n      swap3\n      pop\n        /* \"#utility.yul\":1574:1589   */\n      swap1\n      dup4\n      add\n      swap1\n        /* \"#utility.yul\":1422:1423   */\n      0x01\n        /* \"#utility.yul\":1415:1424   */\n      add\n        /* \"#utility.yul\":1386:1631   */\n      jump(tag_276)\n    tag_278:\n      pop\n        /* \"#utility.yul\":1647:1651   */\n      swap1\n      swap8\n        /* \"#utility.yul\":1059:1657   */\n      swap7\n      pop\n      pop\n      pop\n      pop\n      pop\n      pop\n      pop\n      jump\t// out\n        /* \"#utility.yul\":1662:2654   */\n    tag_258:\n        /* \"#utility.yul\":1710:1713   */\n      0x00\n        /* \"#utility.yul\":1738:1744   */\n      0x0120\n        /* \"#utility.yul\":1771:1776   */\n      dup3\n        /* \"#utility.yul\":1765:1777   */\n      mload\n        /* \"#utility.yul\":1760:1763   */\n      dup5\n        /* \"#utility.yul\":1753:1778   */\n      mstore\n        /* \"#utility.yul\":1824:1828   */\n      0x20\n        /* \"#utility.yul\":1817:1822   */\n      dup4\n        /* \"#utility.yul\":1813:1829   */\n      add\n        /* \"#utility.yul\":1807:1830   */\n      mload\n        /* \"#utility.yul\":1862:1864   */\n      dup2\n        /* \"#utility.yul\":1855:1859   */\n      0x20\n        /* \"#utility.yul\":1850:1853   */\n      dup7\n        /* \"#utility.yul\":1846:1860   */\n      add\n        /* \"#utility.yul\":1839:1865   */\n      mstore\n        /* \"#utility.yul\":1886:1931   */\n      tag_281\n        /* \"#utility.yul\":1927:1929   */\n      dup3\n        /* \"#utility.yul\":1922:1925   */\n      dup7\n        /* \"#utility.yul\":1918:1930   */\n      add\n        /* \"#utility.yul\":1904:1916   */\n      dup3\n        /* \"#utility.yul\":1886:1931   */\n      tag_256\n      jump\t// in\n    tag_281:\n        /* \"#utility.yul\":1874:1931   */\n      swap2\n      pop\n      pop\n        /* \"#utility.yul\":1979:1983   */\n      0x40\n        /* \"#utility.yul\":1972:1977   */\n      dup4\n        /* \"#utility.yul\":1968:1984   */\n      add\n        /* \"#utility.yul\":1962:1985   */\n      mload\n        /* \"#utility.yul\":2027:2030   */\n      dup5\n        /* \"#utility.yul\":2021:2025   */\n      dup3\n        /* \"#utility.yul\":2017:2031   */\n      sub\n        /* \"#utility.yul\":2010:2014   */\n      0x40\n        /* \"#utility.yul\":2005:2008   */\n      dup7\n        /* \"#utility.yul\":2001:2015   */\n      add\n        /* \"#utility.yul\":1994:2032   */\n      mstore\n        /* \"#utility.yul\":2055:2094   */\n      tag_282\n        /* \"#utility.yul\":2089:2093   */\n      dup3\n        /* \"#utility.yul\":2073:2087   */\n      dup3\n        /* \"#utility.yul\":2055:2094   */\n      tag_256\n      jump\t// in\n    tag_282:\n        /* \"#utility.yul\":2041:2094   */\n      swap2\n      pop\n      pop\n        /* \"#utility.yul\":2143:2147   */\n      0x60\n        /* \"#utility.yul\":2136:2141   */\n      dup4\n        /* \"#utility.yul\":2132:2148   */\n      add\n        /* \"#utility.yul\":2126:2149   */\n      mload\n        /* \"#utility.yul\":2119:2123   */\n      0x60\n        /* \"#utility.yul\":2114:2117   */\n      dup6\n        /* \"#utility.yul\":2110:2124   */\n      add\n        /* \"#utility.yul\":2103:2150   */\n      mstore\n        /* \"#utility.yul\":2198:2202   */\n      0x80\n        /* \"#utility.yul\":2191:2196   */\n      dup4\n        /* \"#utility.yul\":2187:2203   */\n      add\n        /* \"#utility.yul\":2181:2204   */\n      mload\n        /* \"#utility.yul\":2248:2251   */\n      dup5\n        /* \"#utility.yul\":2240:2246   */\n      dup3\n        /* \"#utility.yul\":2236:2252   */\n      sub\n        /* \"#utility.yul\":2229:2233   */\n      0x80\n        /* \"#utility.yul\":2224:2227   */\n      dup7\n        /* \"#utility.yul\":2220:2234   */\n      add\n        /* \"#utility.yul\":2213:2253   */\n      mstore\n        /* \"#utility.yul\":2276:2327   */\n      tag_283\n        /* \"#utility.yul\":2320:2326   */\n      dup3\n        /* \"#utility.yul\":2304:2318   */\n      dup3\n        /* \"#utility.yul\":2276:2327   */\n      tag_257\n      jump\t// in\n    tag_283:\n        /* \"#utility.yul\":2262:2327   */\n      swap2\n      pop\n      pop\n        /* \"#utility.yul\":2376:2380   */\n      0xa0\n        /* \"#utility.yul\":2369:2374   */\n      dup4\n        /* \"#utility.yul\":2365:2381   */\n      add\n        /* \"#utility.yul\":2359:2382   */\n      mload\n        /* \"#utility.yul\":2352:2356   */\n      0xa0\n        /* \"#utility.yul\":2347:2350   */\n      dup6\n        /* \"#utility.yul\":2343:2357   */\n      add\n        /* \"#utility.yul\":2336:2383   */\n      mstore\n        /* \"#utility.yul\":2431:2435   */\n      0xc0\n        /* \"#utility.yul\":2424:2429   */\n      dup4\n        /* \"#utility.yul\":2420:2436   */\n      add\n        /* \"#utility.yul\":2414:2437   */\n      mload\n        /* \"#utility.yul\":2446:2493   */\n      tag_284\n        /* \"#utility.yul\":2487:2491   */\n      0xc0\n        /* \"#utility.yul\":2482:2485   */\n      dup7\n        /* \"#utility.yul\":2478:2492   */\n      add\n        /* \"#utility.yul\":2462:2476   */\n      dup3\n        /* \"#utility.yul\":476:489   */\n      iszero\n        /* \"#utility.yul\":469:490   */\n      iszero\n        /* \"#utility.yul\":457:491   */\n      swap1\n      mstore\n        /* \"#utility.yul\":406:497   */\n      jump\n        /* \"#utility.yul\":2446:2493   */\n    tag_284:\n      pop\n        /* \"#utility.yul\":2542:2546   */\n      0xe0\n        /* \"#utility.yul\":2531:2547   */\n      dup4\n      dup2\n      add\n        /* \"#utility.yul\":2525:2548   */\n      mload\n        /* \"#utility.yul\":2509:2523   */\n      swap1\n      dup6\n      add\n        /* \"#utility.yul\":2502:2549   */\n      mstore\n        /* \"#utility.yul\":2568:2574   */\n      0x0100\n        /* \"#utility.yul\":2610:2624   */\n      swap3\n      dup4\n      add\n        /* \"#utility.yul\":2604:2625   */\n      mload\n        /* \"#utility.yul\":2590:2602   */\n      swap3\n      swap1\n      swap4\n      add\n        /* \"#utility.yul\":2583:2626   */\n      swap2\n      swap1\n      swap2\n      mstore\n      pop\n        /* \"#utility.yul\":2642:2648   */\n      swap1\n        /* \"#utility.yul\":1662:2654   */\n      jump\t// out\n        /* \"#utility.yul\":2659:3490   */\n    tag_31:\n        /* \"#utility.yul\":2843:2847   */\n      0x00\n        /* \"#utility.yul\":2872:2874   */\n      0x20\n        /* \"#utility.yul\":2912:2914   */\n      dup1\n        /* \"#utility.yul\":2901:2910   */\n      dup4\n        /* \"#utility.yul\":2897:2915   */\n      add\n        /* \"#utility.yul\":2942:2944   */\n      0x20\n        /* \"#utility.yul\":2931:2940   */\n      dup5\n        /* \"#utility.yul\":2924:2945   */\n      mstore\n        /* \"#utility.yul\":2965:2971   */\n      dup1\n        /* \"#utility.yul\":3000:3006   */\n      dup6\n        /* \"#utility.yul\":2994:3007   */\n      mload\n        /* \"#utility.yul\":3031:3037   */\n      dup1\n        /* \"#utility.yul\":3023:3029   */\n      dup4\n        /* \"#utility.yul\":3016:3038   */\n      mstore\n        /* \"#utility.yul\":3069:3071   */\n      0x40\n        /* \"#utility.yul\":3058:3067   */\n      dup7\n        /* \"#utility.yul\":3054:3072   */\n      add\n        /* \"#utility.yul\":3047:3072   */\n      swap2\n      pop\n        /* \"#utility.yul\":3131:3133   */\n      0x40\n        /* \"#utility.yul\":3121:3127   */\n      dup2\n        /* \"#utility.yul\":3118:3119   */\n      0x05\n        /* \"#utility.yul\":3114:3128   */\n      shl\n        /* \"#utility.yul\":3103:3112   */\n      dup8\n        /* \"#utility.yul\":3099:3129   */\n      add\n        /* \"#utility.yul\":3095:3134   */\n      add\n        /* \"#utility.yul\":3081:3134   */\n      swap3\n      pop\n        /* \"#utility.yul\":3169:3171   */\n      0x20\n        /* \"#utility.yul\":3161:3167   */\n      dup8\n        /* \"#utility.yul\":3157:3172   */\n      add\n        /* \"#utility.yul\":3190:3191   */\n      0x00\n        /* \"#utility.yul\":3200:3461   */\n    tag_286:\n        /* \"#utility.yul\":3214:3220   */\n      dup3\n        /* \"#utility.yul\":3211:3212   */\n      dup2\n        /* \"#utility.yul\":3208:3221   */\n      lt\n        /* \"#utility.yul\":3200:3461   */\n      iszero\n      tag_288\n      jumpi\n        /* \"#utility.yul\":3307:3309   */\n      0x3f\n        /* \"#utility.yul\":3303:3310   */\n      not\n        /* \"#utility.yul\":3291:3300   */\n      dup9\n        /* \"#utility.yul\":3283:3289   */\n      dup7\n        /* \"#utility.yul\":3279:3301   */\n      sub\n        /* \"#utility.yul\":3275:3311   */\n      add\n        /* \"#utility.yul\":3270:3273   */\n      dup5\n        /* \"#utility.yul\":3263:3312   */\n      mstore\n        /* \"#utility.yul\":3335:3381   */\n      tag_289\n        /* \"#utility.yul\":3374:3380   */\n      dup6\n        /* \"#utility.yul\":3365:3371   */\n      dup4\n        /* \"#utility.yul\":3359:3372   */\n      mload\n        /* \"#utility.yul\":3335:3381   */\n      tag_258\n      jump\t// in\n    tag_289:\n        /* \"#utility.yul\":3325:3381   */\n      swap5\n      pop\n        /* \"#utility.yul\":3439:3451   */\n      swap3\n      dup6\n      add\n      swap3\n        /* \"#utility.yul\":3404:3419   */\n      swap1\n      dup6\n      add\n      swap1\n        /* \"#utility.yul\":3236:3237   */\n      0x01\n        /* \"#utility.yul\":3229:3238   */\n      add\n        /* \"#utility.yul\":3200:3461   */\n      jump(tag_286)\n    tag_288:\n      pop\n        /* \"#utility.yul\":3478:3484   */\n      swap3\n      swap8\n        /* \"#utility.yul\":2659:3490   */\n      swap7\n      pop\n      pop\n      pop\n      pop\n      pop\n      pop\n      pop\n      jump\t// out\n        /* \"#utility.yul\":3495:3675   */\n    tag_34:\n        /* \"#utility.yul\":3554:3560   */\n      0x00\n        /* \"#utility.yul\":3607:3609   */\n      0x20\n        /* \"#utility.yul\":3595:3604   */\n      dup3\n        /* \"#utility.yul\":3586:3593   */\n      dup5\n        /* \"#utility.yul\":3582:3605   */\n      sub\n        /* \"#utility.yul\":3578:3610   */\n      slt\n        /* \"#utility.yul\":3575:3627   */\n      iszero\n      tag_291\n      jumpi\n        /* \"#utility.yul\":3623:3624   */\n      0x00\n        /* \"#utility.yul\":3620:3621   */\n      dup1\n        /* \"#utility.yul\":3613:3625   */\n      revert\n        /* \"#utility.yul\":3575:3627   */\n    tag_291:\n      pop\n        /* \"#utility.yul\":3646:3669   */\n      calldataload\n      swap2\n        /* \"#utility.yul\":3495:3675   */\n      swap1\n      pop\n      jump\t// out\n        /* \"#utility.yul\":3680:3928   */\n    tag_37:\n        /* \"#utility.yul\":3851:3853   */\n      0x20\n        /* \"#utility.yul\":3840:3849   */\n      dup2\n        /* \"#utility.yul\":3833:3854   */\n      mstore\n        /* \"#utility.yul\":3814:3818   */\n      0x00\n        /* \"#utility.yul\":3871:3922   */\n      tag_271\n        /* \"#utility.yul\":3918:3920   */\n      0x20\n        /* \"#utility.yul\":3907:3916   */\n      dup4\n        /* \"#utility.yul\":3903:3921   */\n      add\n        /* \"#utility.yul\":3895:3901   */\n      dup5\n        /* \"#utility.yul\":3871:3922   */\n      tag_258\n      jump\t// in\n        /* \"#utility.yul\":4346:4473   */\n    tag_91:\n        /* \"#utility.yul\":4407:4417   */\n      0x4e487b71\n        /* \"#utility.yul\":4402:4405   */\n      0xe0\n        /* \"#utility.yul\":4398:4418   */\n      shl\n        /* \"#utility.yul\":4395:4396   */\n      0x00\n        /* \"#utility.yul\":4388:4419   */\n      mstore\n        /* \"#utility.yul\":4438:4442   */\n      0x41\n        /* \"#utility.yul\":4435:4436   */\n      0x04\n        /* \"#utility.yul\":4428:4443   */\n      mstore\n        /* \"#utility.yul\":4462:4466   */\n      0x24\n        /* \"#utility.yul\":4459:4460   */\n      0x00\n        /* \"#utility.yul\":4452:4467   */\n      revert\n        /* \"#utility.yul\":4478:4753   */\n    tag_259:\n        /* \"#utility.yul\":4549:4551   */\n      0x40\n        /* \"#utility.yul\":4543:4552   */\n      mload\n        /* \"#utility.yul\":4614:4616   */\n      0x1f\n        /* \"#utility.yul\":4595:4608   */\n      dup3\n      add\n      not(0x1f)\n        /* \"#utility.yul\":4591:4618   */\n      and\n        /* \"#utility.yul\":4579:4619   */\n      dup2\n      add\n        /* \"#utility.yul\":4649:4667   */\n      0xffffffffffffffff\n        /* \"#utility.yul\":4634:4668   */\n      dup2\n      gt\n        /* \"#utility.yul\":4670:4692   */\n      dup3\n      dup3\n      lt\n        /* \"#utility.yul\":4631:4693   */\n      or\n        /* \"#utility.yul\":4628:4716   */\n      iszero\n      tag_299\n      jumpi\n        /* \"#utility.yul\":4696:4714   */\n      tag_299\n      tag_91\n      jump\t// in\n    tag_299:\n        /* \"#utility.yul\":4732:4734   */\n      0x40\n        /* \"#utility.yul\":4725:4747   */\n      mstore\n        /* \"#utility.yul\":4478:4753   */\n      swap2\n      swap1\n      pop\n      jump\t// out\n        /* \"#utility.yul\":4758:5289   */\n    tag_260:\n        /* \"#utility.yul\":4801:4806   */\n      0x00\n        /* \"#utility.yul\":4854:4857   */\n      dup3\n        /* \"#utility.yul\":4847:4851   */\n      0x1f\n        /* \"#utility.yul\":4839:4845   */\n      dup4\n        /* \"#utility.yul\":4835:4852   */\n      add\n        /* \"#utility.yul\":4831:4858   */\n      slt\n        /* \"#utility.yul\":4821:4876   */\n      tag_301\n      jumpi\n        /* \"#utility.yul\":4872:4873   */\n      0x00\n        /* \"#utility.yul\":4869:4870   */\n      dup1\n        /* \"#utility.yul\":4862:4874   */\n      revert\n        /* \"#utility.yul\":4821:4876   */\n    tag_301:\n        /* \"#utility.yul\":4908:4914   */\n      dup2\n        /* \"#utility.yul\":4895:4915   */\n      calldataload\n        /* \"#utility.yul\":4934:4952   */\n      0xffffffffffffffff\n        /* \"#utility.yul\":4930:4932   */\n      dup2\n        /* \"#utility.yul\":4927:4953   */\n      gt\n        /* \"#utility.yul\":4924:4976   */\n      iszero\n      tag_303\n      jumpi\n        /* \"#utility.yul\":4956:4974   */\n      tag_303\n      tag_91\n      jump\t// in\n    tag_303:\n        /* \"#utility.yul\":5000:5055   */\n      tag_304\n        /* \"#utility.yul\":5043:5045   */\n      0x1f\n        /* \"#utility.yul\":5024:5037   */\n      dup3\n      add\n      not(0x1f)\n        /* \"#utility.yul\":5020:5047   */\n      and\n        /* \"#utility.yul\":5049:5053   */\n      0x20\n        /* \"#utility.yul\":5016:5054   */\n      add\n        /* \"#utility.yul\":5000:5055   */\n      tag_259\n      jump\t// in\n    tag_304:\n        /* \"#utility.yul\":5080:5082   */\n      dup2\n        /* \"#utility.yul\":5071:5078   */\n      dup2\n        /* \"#utility.yul\":5064:5083   */\n      mstore\n        /* \"#utility.yul\":5126:5129   */\n      dup5\n        /* \"#utility.yul\":5119:5123   */\n      0x20\n        /* \"#utility.yul\":5114:5116   */\n      dup4\n        /* \"#utility.yul\":5106:5112   */\n      dup7\n        /* \"#utility.yul\":5102:5117   */\n      add\n        /* \"#utility.yul\":5098:5124   */\n      add\n        /* \"#utility.yul\":5095:5130   */\n      gt\n        /* \"#utility.yul\":5092:5147   */\n      iszero\n      tag_305\n      jumpi\n        /* \"#utility.yul\":5143:5144   */\n      0x00\n        /* \"#utility.yul\":5140:5141   */\n      dup1\n        /* \"#utility.yul\":5133:5145   */\n      revert\n        /* \"#utility.yul\":5092:5147   */\n    tag_305:\n        /* \"#utility.yul\":5208:5210   */\n      dup2\n        /* \"#utility.yul\":5201:5205   */\n      0x20\n        /* \"#utility.yul\":5193:5199   */\n      dup6\n        /* \"#utility.yul\":5189:5206   */\n      add\n        /* \"#utility.yul\":5182:5186   */\n      0x20\n        /* \"#utility.yul\":5173:5180   */\n      dup4\n        /* \"#utility.yul\":5169:5187   */\n      add\n        /* \"#utility.yul\":5156:5211   */\n      calldatacopy\n        /* \"#utility.yul\":5256:5257   */\n      0x00\n        /* \"#utility.yul\":5231:5247   */\n      swap2\n      dup2\n      add\n        /* \"#utility.yul\":5249:5253   */\n      0x20\n        /* \"#utility.yul\":5227:5254   */\n      add\n        /* \"#utility.yul\":5220:5258   */\n      swap2\n      swap1\n      swap2\n      mstore\n        /* \"#utility.yul\":5235:5242   */\n      swap4\n        /* \"#utility.yul\":4758:5289   */\n      swap3\n      pop\n      pop\n      pop\n      jump\t// out\n        /* \"#utility.yul\":5294:6943   */\n    tag_57:\n        /* \"#utility.yul\":5453:5459   */\n      0x00\n        /* \"#utility.yul\":5461:5467   */\n      dup1\n        /* \"#utility.yul\":5469:5475   */\n      0x00\n        /* \"#utility.yul\":5477:5483   */\n      dup1\n        /* \"#utility.yul\":5485:5491   */\n      0x00\n        /* \"#utility.yul\":5493:5499   */\n      dup1\n        /* \"#utility.yul\":5546:5549   */\n      0xc0\n        /* \"#utility.yul\":5534:5543   */\n      dup8\n        /* \"#utility.yul\":5525:5532   */\n      dup10\n        /* \"#utility.yul\":5521:5544   */\n      sub\n        /* \"#utility.yul\":5517:5550   */\n      slt\n        /* \"#utility.yul\":5514:5567   */\n      iszero\n      tag_307\n      jumpi\n        /* \"#utility.yul\":5563:5564   */\n      0x00\n        /* \"#utility.yul\":5560:5561   */\n      dup1\n        /* \"#utility.yul\":5553:5565   */\n      revert\n        /* \"#utility.yul\":5514:5567   */\n    tag_307:\n        /* \"#utility.yul\":5586:5604   */\n      0xffffffffffffffff\n        /* \"#utility.yul\":5644:5646   */\n      dup1\n        /* \"#utility.yul\":5632:5641   */\n      dup9\n        /* \"#utility.yul\":5619:5642   */\n      calldataload\n        /* \"#utility.yul\":5616:5647   */\n      gt\n        /* \"#utility.yul\":5613:5664   */\n      iszero\n      tag_308\n      jumpi\n        /* \"#utility.yul\":5660:5661   */\n      0x00\n        /* \"#utility.yul\":5657:5658   */\n      dup1\n        /* \"#utility.yul\":5650:5662   */\n      revert\n        /* \"#utility.yul\":5613:5664   */\n    tag_308:\n        /* \"#utility.yul\":5683:5750   */\n      tag_309\n        /* \"#utility.yul\":5742:5749   */\n      dup10\n        /* \"#utility.yul\":5729:5738   */\n      dup10\n        /* \"#utility.yul\":5716:5739   */\n      calldataload\n        /* \"#utility.yul\":5705:5714   */\n      dup11\n        /* \"#utility.yul\":5701:5740   */\n      add\n        /* \"#utility.yul\":5683:5750   */\n      tag_260\n      jump\t// in\n    tag_309:\n        /* \"#utility.yul\":5673:5750   */\n      swap7\n      pop\n        /* \"#utility.yul\":5769:5771   */\n      0x20\n        /* \"#utility.yul\":5822:5824   */\n      dup1\n        /* \"#utility.yul\":5811:5820   */\n      dup10\n        /* \"#utility.yul\":5807:5825   */\n      add\n        /* \"#utility.yul\":5794:5826   */\n      calldataload\n        /* \"#utility.yul\":5849:5851   */\n      dup3\n        /* \"#utility.yul\":5841:5847   */\n      dup2\n        /* \"#utility.yul\":5838:5852   */\n      gt\n        /* \"#utility.yul\":5835:5869   */\n      iszero\n      tag_310\n      jumpi\n        /* \"#utility.yul\":5865:5866   */\n      0x00\n        /* \"#utility.yul\":5862:5863   */\n      dup1\n        /* \"#utility.yul\":5855:5867   */\n      revert\n        /* \"#utility.yul\":5835:5869   */\n    tag_310:\n        /* \"#utility.yul\":5888:5938   */\n      tag_311\n        /* \"#utility.yul\":5930:5937   */\n      dup12\n        /* \"#utility.yul\":5921:5927   */\n      dup3\n        /* \"#utility.yul\":5910:5919   */\n      dup13\n        /* \"#utility.yul\":5906:5928   */\n      add\n        /* \"#utility.yul\":5888:5938   */\n      tag_260\n      jump\t// in\n    tag_311:\n        /* \"#utility.yul\":5878:5938   */\n      swap8\n      pop\n      pop\n        /* \"#utility.yul\":5985:5987   */\n      0x40\n        /* \"#utility.yul\":5974:5983   */\n      dup10\n        /* \"#utility.yul\":5970:5988   */\n      add\n        /* \"#utility.yul\":5957:5989   */\n      calldataload\n        /* \"#utility.yul\":5947:5989   */\n      swap6\n      pop\n        /* \"#utility.yul\":6042:6044   */\n      0x60\n        /* \"#utility.yul\":6031:6040   */\n      dup10\n        /* \"#utility.yul\":6027:6045   */\n      add\n        /* \"#utility.yul\":6014:6046   */\n      calldataload\n        /* \"#utility.yul\":6071:6073   */\n      dup3\n        /* \"#utility.yul\":6061:6069   */\n      dup2\n        /* \"#utility.yul\":6058:6074   */\n      gt\n        /* \"#utility.yul\":6055:6091   */\n      iszero\n      tag_312\n      jumpi\n        /* \"#utility.yul\":6087:6088   */\n      0x00\n        /* \"#utility.yul\":6084:6085   */\n      dup1\n        /* \"#utility.yul\":6077:6089   */\n      revert\n        /* \"#utility.yul\":6055:6091   */\n    tag_312:\n        /* \"#utility.yul\":6110:6134   */\n      dup10\n      add\n        /* \"#utility.yul\":6165:6169   */\n      0x1f\n        /* \"#utility.yul\":6157:6170   */\n      dup2\n      add\n        /* \"#utility.yul\":6153:6180   */\n      dup12\n      sgt\n        /* \"#utility.yul\":6143:6198   */\n      tag_313\n      jumpi\n        /* \"#utility.yul\":6194:6195   */\n      0x00\n        /* \"#utility.yul\":6191:6192   */\n      dup1\n        /* \"#utility.yul\":6184:6196   */\n      revert\n        /* \"#utility.yul\":6143:6198   */\n    tag_313:\n        /* \"#utility.yul\":6230:6232   */\n      dup1\n        /* \"#utility.yul\":6217:6233   */\n      calldataload\n        /* \"#utility.yul\":6252:6254   */\n      dup4\n        /* \"#utility.yul\":6248:6250   */\n      dup2\n        /* \"#utility.yul\":6245:6255   */\n      gt\n        /* \"#utility.yul\":6242:6278   */\n      iszero\n      tag_315\n      jumpi\n        /* \"#utility.yul\":6258:6276   */\n      tag_315\n      tag_91\n      jump\t// in\n    tag_315:\n        /* \"#utility.yul\":6304:6306   */\n      dup1\n        /* \"#utility.yul\":6301:6302   */\n      0x05\n        /* \"#utility.yul\":6297:6307   */\n      shl\n        /* \"#utility.yul\":6327:6355   */\n      tag_316\n        /* \"#utility.yul\":6351:6353   */\n      dup5\n        /* \"#utility.yul\":6347:6349   */\n      dup3\n        /* \"#utility.yul\":6343:6354   */\n      add\n        /* \"#utility.yul\":6327:6355   */\n      tag_259\n      jump\t// in\n    tag_316:\n        /* \"#utility.yul\":6389:6404   */\n      swap2\n      dup3\n      mstore\n        /* \"#utility.yul\":6459:6470   */\n      dup3\n      dup2\n      add\n        /* \"#utility.yul\":6455:6475   */\n      dup5\n      add\n      swap2\n        /* \"#utility.yul\":6420:6432   */\n      dup5\n      dup2\n      add\n      swap1\n        /* \"#utility.yul\":6487:6506   */\n      dup15\n      dup5\n      gt\n        /* \"#utility.yul\":6484:6523   */\n      iszero\n      tag_317\n      jumpi\n        /* \"#utility.yul\":6519:6520   */\n      0x00\n        /* \"#utility.yul\":6516:6517   */\n      dup1\n        /* \"#utility.yul\":6509:6521   */\n      revert\n        /* \"#utility.yul\":6484:6523   */\n    tag_317:\n        /* \"#utility.yul\":6551:6553   */\n      dup6\n        /* \"#utility.yul\":6547:6549   */\n      dup6\n        /* \"#utility.yul\":6543:6554   */\n      add\n        /* \"#utility.yul\":6532:6554   */\n      swap3\n      pop\n        /* \"#utility.yul\":6563:6809   */\n    tag_318:\n        /* \"#utility.yul\":6579:6585   */\n      dup4\n        /* \"#utility.yul\":6574:6577   */\n      dup4\n        /* \"#utility.yul\":6571:6586   */\n      lt\n        /* \"#utility.yul\":6563:6809   */\n      iszero\n      tag_320\n      jumpi\n        /* \"#utility.yul\":6658:6660   */\n      dup7\n        /* \"#utility.yul\":6652:6655   */\n      dup4\n        /* \"#utility.yul\":6639:6656   */\n      calldataload\n        /* \"#utility.yul\":6636:6661   */\n      gt\n        /* \"#utility.yul\":6633:6678   */\n      iszero\n      tag_321\n      jumpi\n        /* \"#utility.yul\":6674:6675   */\n      0x00\n        /* \"#utility.yul\":6671:6672   */\n      dup1\n        /* \"#utility.yul\":6664:6676   */\n      revert\n        /* \"#utility.yul\":6633:6678   */\n    tag_321:\n        /* \"#utility.yul\":6703:6766   */\n      tag_322\n        /* \"#utility.yul\":6758:6765   */\n      dup16\n        /* \"#utility.yul\":6753:6755   */\n      dup8\n        /* \"#utility.yul\":6746:6749   */\n      dup6\n        /* \"#utility.yul\":6733:6750   */\n      calldataload\n        /* \"#utility.yul\":6729:6731   */\n      dup9\n        /* \"#utility.yul\":6725:6751   */\n      add\n        /* \"#utility.yul\":6721:6756   */\n      add\n        /* \"#utility.yul\":6703:6766   */\n      tag_260\n      jump\t// in\n    tag_322:\n        /* \"#utility.yul\":6691:6767   */\n      dup3\n      mstore\n        /* \"#utility.yul\":6596:6608   */\n      swap2\n      dup6\n      add\n      swap2\n        /* \"#utility.yul\":6787:6799   */\n      swap1\n      dup6\n      add\n      swap1\n        /* \"#utility.yul\":6563:6809   */\n      jump(tag_318)\n    tag_320:\n        /* \"#utility.yul\":5294:6943   */\n      swap12\n      swap15\n      swap11\n      swap14\n      pop\n      swap9\n      swap12\n        /* \"#utility.yul\":6880:6883   */\n      0x80\n        /* \"#utility.yul\":6865:6884   */\n      dup2\n      add\n        /* \"#utility.yul\":6852:6885   */\n      calldataload\n      swap11\n        /* \"#utility.yul\":6932:6935   */\n      0xa0\n        /* \"#utility.yul\":6917:6936   */\n      swap1\n      swap2\n      add\n        /* \"#utility.yul\":6904:6937   */\n      calldataload\n      swap10\n      pop\n        /* \"#utility.yul\":5294:6943   */\n      swap8\n      pop\n      pop\n      pop\n      pop\n      pop\n      pop\n      pop\n      pop\n      jump\t// out\n        /* \"#utility.yul\":6948:7202   */\n    tag_61:\n        /* \"#utility.yul\":7016:7022   */\n      0x00\n        /* \"#utility.yul\":7024:7030   */\n      dup1\n        /* \"#utility.yul\":7077:7079   */\n      0x40\n        /* \"#utility.yul\":7065:7074   */\n      dup4\n        /* \"#utility.yul\":7056:7063   */\n      dup6\n        /* \"#utility.yul\":7052:7075   */\n      sub\n        /* \"#utility.yul\":7048:7080   */\n      slt\n        /* \"#utility.yul\":7045:7097   */\n      iszero\n      tag_324\n      jumpi\n        /* \"#utility.yul\":7093:7094   */\n      0x00\n        /* \"#utility.yul\":7090:7091   */\n      dup1\n        /* \"#utility.yul\":7083:7095   */\n      revert\n        /* \"#utility.yul\":7045:7097   */\n    tag_324:\n        /* \"#utility.yul\":7116:7145   */\n      tag_325\n        /* \"#utility.yul\":7135:7144   */\n      dup4\n        /* \"#utility.yul\":7116:7145   */\n      tag_254\n      jump\t// in\n    tag_325:\n        /* \"#utility.yul\":7106:7145   */\n      swap5\n        /* \"#utility.yul\":7192:7194   */\n      0x20\n        /* \"#utility.yul\":7177:7195   */\n      swap4\n      swap1\n      swap4\n      add\n        /* \"#utility.yul\":7164:7196   */\n      calldataload\n      swap4\n      pop\n      pop\n      pop\n        /* \"#utility.yul\":6948:7202   */\n      jump\t// out\n        /* \"#utility.yul\":7642:8737   */\n    tag_72:\n        /* \"#utility.yul\":7817:7819   */\n      0x20\n        /* \"#utility.yul\":7828:7849   */\n      dup1\n      dup3\n      mstore\n        /* \"#utility.yul\":7920:7933   */\n      dup3\n      mload\n        /* \"#utility.yul\":7969:7973   */\n      0xc0\n        /* \"#utility.yul\":7949:7967   */\n      dup4\n      dup4\n      add\n        /* \"#utility.yul\":7942:7974   */\n      mstore\n        /* \"#utility.yul\":8023:8042   */\n      dup1\n      mload\n        /* \"#utility.yul\":7887:7890   */\n      0xe0\n        /* \"#utility.yul\":7872:7891   */\n      dup5\n      add\n        /* \"#utility.yul\":8051:8073   */\n      dup2\n      swap1\n      mstore\n        /* \"#utility.yul\":7788:7792   */\n      0x00\n      swap3\n        /* \"#utility.yul\":7817:7819   */\n      swap2\n        /* \"#utility.yul\":8131:8152   */\n      dup3\n      add\n      swap1\n        /* \"#utility.yul\":7788:7792   */\n      dup4\n      swap1\n        /* \"#utility.yul\":8104:8107   */\n      0x0100\n        /* \"#utility.yul\":8089:8108   */\n      dup7\n      add\n      swap1\n        /* \"#utility.yul\":8180:8349   */\n    tag_329:\n        /* \"#utility.yul\":8194:8200   */\n      dup1\n        /* \"#utility.yul\":8191:8192   */\n      dup4\n        /* \"#utility.yul\":8188:8201   */\n      lt\n        /* \"#utility.yul\":8180:8349   */\n      iszero\n      tag_331\n      jumpi\n        /* \"#utility.yul\":8255:8268   */\n      dup4\n      mload\n        /* \"#utility.yul\":8243:8269   */\n      dup3\n      mstore\n        /* \"#utility.yul\":8324:8339   */\n      swap3\n      dup5\n      add\n      swap3\n        /* \"#utility.yul\":8216:8217   */\n      0x01\n        /* \"#utility.yul\":8209:8218   */\n      swap3\n      swap1\n      swap3\n      add\n      swap2\n        /* \"#utility.yul\":8289:8301   */\n      swap1\n      dup5\n      add\n      swap1\n        /* \"#utility.yul\":8180:8349   */\n      jump(tag_329)\n    tag_331:\n        /* \"#utility.yul\":8184:8187   */\n      pop\n        /* \"#utility.yul\":8403:8405   */\n      dup4\n        /* \"#utility.yul\":8395:8401   */\n      dup8\n        /* \"#utility.yul\":8391:8406   */\n      add\n        /* \"#utility.yul\":8385:8407   */\n      mload\n        /* \"#utility.yul\":8380:8382   */\n      0x40\n        /* \"#utility.yul\":8369:8378   */\n      dup8\n        /* \"#utility.yul\":8365:8383   */\n      add\n        /* \"#utility.yul\":8358:8408   */\n      mstore\n        /* \"#utility.yul\":8457:8459   */\n      0x40\n        /* \"#utility.yul\":8449:8455   */\n      dup8\n        /* \"#utility.yul\":8445:8460   */\n      add\n        /* \"#utility.yul\":8439:8461   */\n      mload\n        /* \"#utility.yul\":8417:8461   */\n      swap4\n      pop\n        /* \"#utility.yul\":8470:8534   */\n      tag_332\n        /* \"#utility.yul\":8530:8532   */\n      0x60\n        /* \"#utility.yul\":8519:8528   */\n      dup8\n        /* \"#utility.yul\":8515:8533   */\n      add\n        /* \"#utility.yul\":8499:8513   */\n      dup6\n        /* \"#utility.yul\":7546:7558   */\n      dup1\n      mload\n        /* \"#utility.yul\":7534:7559   */\n      dup3\n      mstore\n        /* \"#utility.yul\":7622:7626   */\n      0x20\n        /* \"#utility.yul\":7611:7627   */\n      swap1\n      dup2\n      add\n        /* \"#utility.yul\":7605:7628   */\n      mload\n        /* \"#utility.yul\":7598:7629   */\n      iszero\n        /* \"#utility.yul\":7591:7630   */\n      iszero\n        /* \"#utility.yul\":7575:7589   */\n      swap2\n      add\n        /* \"#utility.yul\":7568:7631   */\n      mstore\n        /* \"#utility.yul\":7470:7637   */\n      jump\n        /* \"#utility.yul\":8470:8534   */\n    tag_332:\n        /* \"#utility.yul\":8583:8585   */\n      0x60\n        /* \"#utility.yul\":8571:8586   */\n      dup8\n      add\n        /* \"#utility.yul\":8565:8587   */\n      mload\n        /* \"#utility.yul\":476:489   */\n      iszero\n        /* \"#utility.yul\":469:490   */\n      iszero\n        /* \"#utility.yul\":8643:8646   */\n      0xa0\n        /* \"#utility.yul\":8628:8647   */\n      dup8\n      add\n        /* \"#utility.yul\":457:491   */\n      mstore\n        /* \"#utility.yul\":8704:8708   */\n      0x80\n        /* \"#utility.yul\":8692:8709   */\n      swap1\n      swap7\n      add\n        /* \"#utility.yul\":8686:8710   */\n      mload\n        /* \"#utility.yul\":8679:8683   */\n      0xc0\n        /* \"#utility.yul\":8664:8684   */\n      swap1\n      swap6\n      add\n        /* \"#utility.yul\":8657:8711   */\n      swap5\n      swap1\n      swap5\n      mstore\n      pop\n        /* \"#utility.yul\":8728:8731   */\n      swap3\n      swap4\n        /* \"#utility.yul\":7642:8737   */\n      swap3\n      pop\n      pop\n      pop\n      jump\t// out\n        /* \"#utility.yul\":8742:9587   */\n    tag_80:\n        /* \"#utility.yul\":9064:9068   */\n      0x00\n        /* \"#utility.yul\":9093:9096   */\n      0x0100\n        /* \"#utility.yul\":9123:9129   */\n      dup11\n        /* \"#utility.yul\":9112:9121   */\n      dup4\n        /* \"#utility.yul\":9105:9130   */\n      mstore\n        /* \"#utility.yul\":9166:9168   */\n      dup1\n        /* \"#utility.yul\":9161:9163   */\n      0x20\n        /* \"#utility.yul\":9150:9159   */\n      dup5\n        /* \"#utility.yul\":9146:9164   */\n      add\n        /* \"#utility.yul\":9139:9169   */\n      mstore\n        /* \"#utility.yul\":9192:9237   */\n      tag_335\n        /* \"#utility.yul\":9233:9235   */\n      dup2\n        /* \"#utility.yul\":9222:9231   */\n      dup5\n        /* \"#utility.yul\":9218:9236   */\n      add\n        /* \"#utility.yul\":9210:9216   */\n      dup12\n        /* \"#utility.yul\":9192:9237   */\n      tag_256\n      jump\t// in\n    tag_335:\n        /* \"#utility.yul\":9178:9237   */\n      swap1\n      pop\n        /* \"#utility.yul\":9285:9294   */\n      dup3\n        /* \"#utility.yul\":9277:9283   */\n      dup2\n        /* \"#utility.yul\":9273:9295   */\n      sub\n        /* \"#utility.yul\":9268:9270   */\n      0x40\n        /* \"#utility.yul\":9257:9266   */\n      dup5\n        /* \"#utility.yul\":9253:9271   */\n      add\n        /* \"#utility.yul\":9246:9296   */\n      mstore\n        /* \"#utility.yul\":9313:9346   */\n      tag_336\n        /* \"#utility.yul\":9339:9345   */\n      dup2\n        /* \"#utility.yul\":9331:9337   */\n      dup11\n        /* \"#utility.yul\":9313:9346   */\n      tag_256\n      jump\t// in\n    tag_336:\n        /* \"#utility.yul\":9377:9379   */\n      0x60\n        /* \"#utility.yul\":9362:9380   */\n      dup5\n      add\n        /* \"#utility.yul\":9355:9389   */\n      swap9\n      swap1\n      swap9\n      mstore\n      pop\n      pop\n        /* \"#utility.yul\":9420:9423   */\n      0x80\n        /* \"#utility.yul\":9405:9424   */\n      dup2\n      add\n        /* \"#utility.yul\":9398:9433   */\n      swap5\n      swap1\n      swap5\n      mstore\n        /* \"#utility.yul\":9477:9491   */\n      swap2\n      iszero\n        /* \"#utility.yul\":9470:9492   */\n      iszero\n        /* \"#utility.yul\":9464:9467   */\n      0xa0\n        /* \"#utility.yul\":9449:9468   */\n      dup5\n      add\n        /* \"#utility.yul\":9442:9493   */\n      mstore\n        /* \"#utility.yul\":9524:9527   */\n      0xc0\n        /* \"#utility.yul\":9509:9528   */\n      dup4\n      add\n        /* \"#utility.yul\":9502:9537   */\n      mstore\n        /* \"#utility.yul\":9568:9571   */\n      0xe0\n        /* \"#utility.yul\":9553:9572   */\n      swap1\n      swap2\n      add\n        /* \"#utility.yul\":9546:9581   */\n      mstore\n        /* \"#utility.yul\":9305:9346   */\n      swap4\n        /* \"#utility.yul\":8742:9587   */\n      swap3\n      pop\n      pop\n      pop\n      jump\t// out\n        /* \"#utility.yul\":9592:9719   */\n    tag_262:\n        /* \"#utility.yul\":9653:9663   */\n      0x4e487b71\n        /* \"#utility.yul\":9648:9651   */\n      0xe0\n        /* \"#utility.yul\":9644:9664   */\n      shl\n        /* \"#utility.yul\":9641:9642   */\n      0x00\n        /* \"#utility.yul\":9634:9665   */\n      mstore\n        /* \"#utility.yul\":9684:9688   */\n      0x11\n        /* \"#utility.yul\":9681:9682   */\n      0x04\n        /* \"#utility.yul\":9674:9689   */\n      mstore\n        /* \"#utility.yul\":9708:9712   */\n      0x24\n        /* \"#utility.yul\":9705:9706   */\n      0x00\n        /* \"#utility.yul\":9698:9713   */\n      revert\n        /* \"#utility.yul\":9724:9849   */\n    tag_100:\n        /* \"#utility.yul\":9789:9798   */\n      dup1\n      dup3\n      add\n        /* \"#utility.yul\":9810:9820   */\n      dup1\n      dup3\n      gt\n        /* \"#utility.yul\":9807:9843   */\n      iszero\n      tag_340\n      jumpi\n        /* \"#utility.yul\":9823:9841   */\n      tag_340\n      tag_262\n      jump\t// in\n    tag_340:\n        /* \"#utility.yul\":9724:9849   */\n      swap3\n      swap2\n      pop\n      pop\n      jump\t// out\n        /* \"#utility.yul\":9854:10234   */\n    tag_102:\n        /* \"#utility.yul\":9933:9934   */\n      0x01\n        /* \"#utility.yul\":9929:9941   */\n      dup2\n      dup2\n      shr\n      swap1\n        /* \"#utility.yul\":9976:9988   */\n      dup3\n      and\n      dup1\n        /* \"#utility.yul\":9997:10058   */\n      tag_342\n      jumpi\n        /* \"#utility.yul\":10051:10055   */\n      0x7f\n        /* \"#utility.yul\":10043:10049   */\n      dup3\n        /* \"#utility.yul\":10039:10056   */\n      and\n        /* \"#utility.yul\":10029:10056   */\n      swap2\n      pop\n        /* \"#utility.yul\":9997:10058   */\n    tag_342:\n        /* \"#utility.yul\":10104:10106   */\n      0x20\n        /* \"#utility.yul\":10096:10102   */\n      dup3\n        /* \"#utility.yul\":10093:10107   */\n      lt\n        /* \"#utility.yul\":10073:10091   */\n      dup2\n        /* \"#utility.yul\":10070:10108   */\n      sub\n        /* \"#utility.yul\":10067:10228   */\n      tag_97\n      jumpi\n        /* \"#utility.yul\":10150:10160   */\n      0x4e487b71\n        /* \"#utility.yul\":10145:10148   */\n      0xe0\n        /* \"#utility.yul\":10141:10161   */\n      shl\n        /* \"#utility.yul\":10138:10139   */\n      0x00\n        /* \"#utility.yul\":10131:10162   */\n      mstore\n        /* \"#utility.yul\":10185:10189   */\n      0x22\n        /* \"#utility.yul\":10182:10183   */\n      0x04\n        /* \"#utility.yul\":10175:10190   */\n      mstore\n        /* \"#utility.yul\":10213:10217   */\n      0x24\n        /* \"#utility.yul\":10210:10211   */\n      0x00\n        /* \"#utility.yul\":10203:10218   */\n      revert\n        /* \"#utility.yul\":10239:10366   */\n    tag_122:\n        /* \"#utility.yul\":10300:10310   */\n      0x4e487b71\n        /* \"#utility.yul\":10295:10298   */\n      0xe0\n        /* \"#utility.yul\":10291:10311   */\n      shl\n        /* \"#utility.yul\":10288:10289   */\n      0x00\n        /* \"#utility.yul\":10281:10312   */\n      mstore\n        /* \"#utility.yul\":10331:10335   */\n      0x32\n        /* \"#utility.yul\":10328:10329   */\n      0x04\n        /* \"#utility.yul\":10321:10336   */\n      mstore\n        /* \"#utility.yul\":10355:10359   */\n      0x24\n        /* \"#utility.yul\":10352:10353   */\n      0x00\n        /* \"#utility.yul\":10345:10360   */\n      revert\n        /* \"#utility.yul\":13008:13143   */\n    tag_174:\n        /* \"#utility.yul\":13047:13050   */\n      0x00\n        /* \"#utility.yul\":13068:13085   */\n      0x01\n      dup3\n      add\n        /* \"#utility.yul\":13065:13108   */\n      tag_354\n      jumpi\n        /* \"#utility.yul\":13088:13106   */\n      tag_354\n      tag_262\n      jump\t// in\n    tag_354:\n      pop\n        /* \"#utility.yul\":13135:13136   */\n      0x01\n        /* \"#utility.yul\":13124:13137   */\n      add\n      swap1\n        /* \"#utility.yul\":13008:13143   */\n      jump\t// out\n        /* \"#utility.yul\":13274:13792   */\n    tag_264:\n        /* \"#utility.yul\":13376:13378   */\n      0x1f\n        /* \"#utility.yul\":13371:13374   */\n      dup3\n        /* \"#utility.yul\":13368:13379   */\n      gt\n        /* \"#utility.yul\":13365:13786   */\n      iszero\n      tag_357\n      jumpi\n        /* \"#utility.yul\":13412:13417   */\n      dup1\n        /* \"#utility.yul\":13409:13410   */\n      0x00\n        /* \"#utility.yul\":13402:13418   */\n      mstore\n        /* \"#utility.yul\":13456:13460   */\n      0x20\n        /* \"#utility.yul\":13453:13454   */\n      0x00\n        /* \"#utility.yul\":13443:13461   */\n      keccak256\n        /* \"#utility.yul\":13526:13528   */\n      0x1f\n        /* \"#utility.yul\":13514:13524   */\n      dup5\n        /* \"#utility.yul\":13510:13529   */\n      add\n        /* \"#utility.yul\":13507:13508   */\n      0x05\n        /* \"#utility.yul\":13503:13530   */\n      shr\n        /* \"#utility.yul\":13497:13501   */\n      dup2\n        /* \"#utility.yul\":13493:13531   */\n      add\n        /* \"#utility.yul\":13562:13566   */\n      0x20\n        /* \"#utility.yul\":13550:13560   */\n      dup6\n        /* \"#utility.yul\":13547:13567   */\n      lt\n        /* \"#utility.yul\":13544:13591   */\n      iszero\n      tag_358\n      jumpi\n      pop\n        /* \"#utility.yul\":13585:13589   */\n      dup1\n        /* \"#utility.yul\":13544:13591   */\n    tag_358:\n        /* \"#utility.yul\":13640:13642   */\n      0x1f\n        /* \"#utility.yul\":13635:13638   */\n      dup5\n        /* \"#utility.yul\":13631:13643   */\n      add\n        /* \"#utility.yul\":13628:13629   */\n      0x05\n        /* \"#utility.yul\":13624:13644   */\n      shr\n        /* \"#utility.yul\":13618:13622   */\n      dup3\n        /* \"#utility.yul\":13614:13645   */\n      add\n        /* \"#utility.yul\":13604:13645   */\n      swap2\n      pop\n        /* \"#utility.yul\":13695:13776   */\n    tag_359:\n        /* \"#utility.yul\":13713:13715   */\n      dup2\n        /* \"#utility.yul\":13706:13711   */\n      dup2\n        /* \"#utility.yul\":13703:13716   */\n      lt\n        /* \"#utility.yul\":13695:13776   */\n      iszero\n      tag_361\n      jumpi\n        /* \"#utility.yul\":13772:13773   */\n      0x00\n        /* \"#utility.yul\":13758:13774   */\n      dup2\n      sstore\n        /* \"#utility.yul\":13739:13740   */\n      0x01\n        /* \"#utility.yul\":13728:13741   */\n      add\n        /* \"#utility.yul\":13695:13776   */\n      jump(tag_359)\n    tag_361:\n        /* \"#utility.yul\":13699:13702   */\n      pop\n      pop\n        /* \"#utility.yul\":13365:13786   */\n    tag_357:\n        /* \"#utility.yul\":13274:13792   */\n      pop\n      pop\n      pop\n      jump\t// out\n        /* \"#utility.yul\":13968:15313   */\n    tag_176:\n        /* \"#utility.yul\":14094:14097   */\n      dup2\n        /* \"#utility.yul\":14088:14098   */\n      mload\n        /* \"#utility.yul\":14121:14139   */\n      0xffffffffffffffff\n        /* \"#utility.yul\":14113:14119   */\n      dup2\n        /* \"#utility.yul\":14110:14140   */\n      gt\n        /* \"#utility.yul\":14107:14163   */\n      iszero\n      tag_365\n      jumpi\n        /* \"#utility.yul\":14143:14161   */\n      tag_365\n      tag_91\n      jump\t// in\n    tag_365:\n        /* \"#utility.yul\":14172:14269   */\n      tag_366\n        /* \"#utility.yul\":14262:14268   */\n      dup2\n        /* \"#utility.yul\":14222:14260   */\n      tag_367\n        /* \"#utility.yul\":14254:14258   */\n      dup5\n        /* \"#utility.yul\":14248:14259   */\n      sload\n        /* \"#utility.yul\":14222:14260   */\n      tag_102\n      jump\t// in\n    tag_367:\n        /* \"#utility.yul\":14216:14220   */\n      dup5\n        /* \"#utility.yul\":14172:14269   */\n      tag_264\n      jump\t// in\n    tag_366:\n        /* \"#utility.yul\":14324:14328   */\n      0x20\n      dup1\n        /* \"#utility.yul\":14381:14383   */\n      0x1f\n        /* \"#utility.yul\":14370:14384   */\n      dup4\n      gt\n        /* \"#utility.yul\":14398:14399   */\n      0x01\n        /* \"#utility.yul\":14393:15056   */\n      dup2\n      eq\n      tag_369\n      jumpi\n        /* \"#utility.yul\":15100:15101   */\n      0x00\n        /* \"#utility.yul\":15117:15123   */\n      dup5\n        /* \"#utility.yul\":15114:15203   */\n      iszero\n      tag_370\n      jumpi\n      pop\n        /* \"#utility.yul\":15169:15188   */\n      dup6\n      dup4\n      add\n        /* \"#utility.yul\":15163:15189   */\n      mload\n        /* \"#utility.yul\":15114:15203   */\n    tag_370:\n      not(0x00)\n        /* \"#utility.yul\":13925:13926   */\n      0x03\n        /* \"#utility.yul\":13921:13932   */\n      dup7\n      swap1\n      shl\n        /* \"#utility.yul\":13917:13941   */\n      shr\n        /* \"#utility.yul\":13913:13942   */\n      not\n        /* \"#utility.yul\":13903:13943   */\n      and\n        /* \"#utility.yul\":13949:13950   */\n      0x01\n        /* \"#utility.yul\":13945:13956   */\n      dup6\n      swap1\n      shl\n        /* \"#utility.yul\":13900:13957   */\n      or\n        /* \"#utility.yul\":15216:15297   */\n      dup6\n      sstore\n        /* \"#utility.yul\":14363:15307   */\n      jump(tag_368)\n        /* \"#utility.yul\":14393:15056   */\n    tag_369:\n        /* \"#utility.yul\":13221:13222   */\n      0x00\n        /* \"#utility.yul\":13214:13228   */\n      dup6\n      dup2\n      mstore\n        /* \"#utility.yul\":13258:13262   */\n      0x20\n        /* \"#utility.yul\":13245:13263   */\n      dup2\n      keccak256\n      not(0x1f)\n        /* \"#utility.yul\":14429:14449   */\n      dup7\n      and\n      swap2\n        /* \"#utility.yul\":14547:14783   */\n    tag_373:\n        /* \"#utility.yul\":14561:14568   */\n      dup3\n        /* \"#utility.yul\":14558:14559   */\n      dup2\n        /* \"#utility.yul\":14555:14569   */\n      lt\n        /* \"#utility.yul\":14547:14783   */\n      iszero\n      tag_375\n      jumpi\n        /* \"#utility.yul\":14650:14669   */\n      dup9\n      dup7\n      add\n        /* \"#utility.yul\":14644:14670   */\n      mload\n        /* \"#utility.yul\":14629:14671   */\n      dup3\n      sstore\n        /* \"#utility.yul\":14742:14769   */\n      swap5\n      dup5\n      add\n      swap5\n        /* \"#utility.yul\":14710:14711   */\n      0x01\n        /* \"#utility.yul\":14698:14712   */\n      swap1\n      swap2\n      add\n      swap1\n        /* \"#utility.yul\":14577:14596   */\n      dup5\n      add\n        /* \"#utility.yul\":14547:14783   */\n      jump(tag_373)\n    tag_375:\n        /* \"#utility.yul\":14551:14554   */\n      pop\n        /* \"#utility.yul\":14811:14817   */\n      dup6\n        /* \"#utility.yul\":14802:14809   */\n      dup3\n        /* \"#utility.yul\":14799:14818   */\n      lt\n        /* \"#utility.yul\":14796:14997   */\n      iszero\n      tag_376\n      jumpi\n        /* \"#utility.yul\":14872:14891   */\n      dup8\n      dup6\n      add\n        /* \"#utility.yul\":14866:14892   */\n      mload\n      not(0x00)\n        /* \"#utility.yul\":14955:14956   */\n      0x03\n        /* \"#utility.yul\":14951:14965   */\n      dup9\n      swap1\n      shl\n        /* \"#utility.yul\":14967:14970   */\n      0xf8\n        /* \"#utility.yul\":14947:14971   */\n      and\n        /* \"#utility.yul\":14943:14980   */\n      shr\n        /* \"#utility.yul\":14939:14981   */\n      not\n        /* \"#utility.yul\":14924:14982   */\n      and\n        /* \"#utility.yul\":14909:14983   */\n      dup2\n      sstore\n        /* \"#utility.yul\":14796:14997   */\n    tag_376:\n      pop\n      pop\n        /* \"#utility.yul\":15043:15044   */\n      0x01\n        /* \"#utility.yul\":15034:15040   */\n      dup5\n        /* \"#utility.yul\":15031:15032   */\n      0x01\n        /* \"#utility.yul\":15027:15041   */\n      shl\n        /* \"#utility.yul\":15023:15045   */\n      add\n        /* \"#utility.yul\":15017:15021   */\n      dup6\n        /* \"#utility.yul\":15010:15046   */\n      sstore\n        /* \"#utility.yul\":14363:15307   */\n    tag_368:\n      pop\n      pop\n      pop\n      pop\n        /* \"#utility.yul\":13968:15313   */\n      pop\n      pop\n      jump\t// out\n        /* \"#utility.yul\":15318:15680   */\n    tag_181:\n        /* \"#utility.yul\":15523:15525   */\n      0x60\n        /* \"#utility.yul\":15512:15521   */\n      dup2\n        /* \"#utility.yul\":15505:15526   */\n      mstore\n        /* \"#utility.yul\":15486:15490   */\n      0x00\n        /* \"#utility.yul\":15543:15588   */\n      tag_378\n        /* \"#utility.yul\":15584:15586   */\n      0x60\n        /* \"#utility.yul\":15573:15582   */\n      dup4\n        /* \"#utility.yul\":15569:15587   */\n      add\n        /* \"#utility.yul\":15561:15567   */\n      dup7\n        /* \"#utility.yul\":15543:15588   */\n      tag_256\n      jump\t// in\n    tag_378:\n        /* \"#utility.yul\":15619:15621   */\n      0x20\n        /* \"#utility.yul\":15604:15622   */\n      dup4\n      add\n        /* \"#utility.yul\":15597:15631   */\n      swap5\n      swap1\n      swap5\n      mstore\n      pop\n        /* \"#utility.yul\":15662:15664   */\n      0x40\n        /* \"#utility.yul\":15647:15665   */\n      add\n        /* \"#utility.yul\":15640:15674   */\n      mstore\n        /* \"#utility.yul\":15535:15588   */\n      swap2\n        /* \"#utility.yul\":15318:15680   */\n      swap1\n      pop\n      jump\t// out\n        /* \"#utility.yul\":15685:15813   */\n    tag_199:\n        /* \"#utility.yul\":15752:15761   */\n      dup2\n      dup2\n      sub\n        /* \"#utility.yul\":15773:15784   */\n      dup2\n      dup2\n      gt\n        /* \"#utility.yul\":15770:15807   */\n      iszero\n      tag_340\n      jumpi\n        /* \"#utility.yul\":15787:15805   */\n      tag_340\n      tag_262\n      jump\t// in\n\n    auxdata: 0xa2646970667358221220b70653abdbe7dfd488c53ac09b6eea50d54c9b3387aca998681b67d478ad0d1b64736f6c63430008190033\n}\n",
    "bytecode": {
      "linkReferences": {},
      "object": "60e060405234801561000f575f80fd5b50604051611e10380380611e1083398101604081905261002e91610167565b6001600160a01b0383166100895760405162461bcd60e51b815260206004820152601e60248201527f496e76616c6964206261636b656e642077616c6c65742061646472657373000060448201526064015b60405180910390fd5b5f82116100e45760405162461bcd60e51b815260206004820152602360248201527f4461696c7920726577617264206d75737420626520677265617465722074686160448201526206e20360ec1b6064820152608401610080565b610e108110156101365760405162461bcd60e51b815260206004820181905260248201527f436f6f6c646f776e206d757374206265206174206c65617374203120686f75726044820152606401610080565b5f80546001600160a01b031916331781556001600160a01b039390931660805260a09190915260c0526001556101a6565b5f805f60608486031215610179575f80fd5b83516001600160a01b038116811461018f575f80fd5b602085015160409095015190969495509392505050565b60805160a05160c051611c166101fa5f395f81816102e301528181610a8601528181610f110152610f4b01525f818161017c0152610b1201525f81816102620152818161097b01526110fa0152611c165ff3fe608060405234801561000f575f80fd5b50600436106100fb575f3560e01c80639387036d11610093578063dac297c211610063578063dac297c2146102a4578063e085f980146102b7578063fdea3657146102de578063fe6f1cf414610305575f80fd5b80639387036d146101fc5780639f4d58561461020f578063a680baaf1461025d578063cc3d967b14610284575f80fd5b80637d7591f0116100ce5780637d7591f0146101ac5780637fc573d2146101b55780638da5cb5b146101bd57806392d588e9146101e7575f80fd5b806315022d98146100ff5780633bb659a21461014257806349f86f3414610157578063650b4f1e14610177575b5f80fd5b61012861010d36600461156b565b60056020525f90815260409020805460019091015460ff1682565b604080519283529015156020830152015b60405180910390f35b61014a610324565b60405161013991906116ac565b61016a61016536600461170e565b610656565b6040516101399190611725565b61019e7f000000000000000000000000000000000000000000000000000000000000000081565b604051908152602001610139565b61019e60015481565b60015461019e565b5f546101cf906001600160a01b031681565b6040516001600160a01b039091168152602001610139565b6101fa6101f536600461156b565b61095d565b005b6101fa61020a3660046117e8565b610b70565b61024661021d3660046118fe565b600360209081525f92835260408084209091529082529020805460019091015460ff9091169082565b604080519215158352602083019190915201610139565b6101cf7f000000000000000000000000000000000000000000000000000000000000000081565b61029761029236600461156b565b610dd5565b6040516101399190611926565b6101fa6102b23660046118fe565b610fbc565b6102ca6102c536600461170e565b6112fa565b6040516101399897969594939291906119b9565b61019e7f000000000000000000000000000000000000000000000000000000000000000081565b61019e61031336600461156b565b60046020525f908152604090205481565b60605f60015467ffffffffffffffff81111561034257610342611737565b6040519080825280602002602001820160405280156103be57816020015b6103ab6040518061012001604052805f815260200160608152602001606081526020015f8152602001606081526020015f81526020015f151581526020015f81526020015f81525090565b8152602001906001900390816103605790505b5090505f5b6001548110156106505760025f6103db836001611a26565b81526020019081526020015f20604051806101200160405290815f820154815260200160018201805461040d90611a3f565b80601f016020809104026020016040519081016040528092919081815260200182805461043990611a3f565b80156104845780601f1061045b57610100808354040283529160200191610484565b820191905f5260205f20905b81548152906001019060200180831161046757829003601f168201915b5050505050815260200160028201805461049d90611a3f565b80601f01602080910402602001604051908101604052809291908181526020018280546104c990611a3f565b80156105145780601f106104eb57610100808354040283529160200191610514565b820191905f5260205f20905b8154815290600101906020018083116104f757829003601f168201915b505050505081526020016003820154815260200160048201805480602002602001604051908101604052809291908181526020015f905b828210156105f3578382905f5260205f2001805461056890611a3f565b80601f016020809104026020016040519081016040528092919081815260200182805461059490611a3f565b80156105df5780601f106105b6576101008083540402835291602001916105df565b820191905f5260205f20905b8154815290600101906020018083116105c257829003601f168201915b50505050508152602001906001019061054b565b5050509082525060058201546020820152600682015460ff161515604082015260078201546060820152600890910154608090910152825183908390811061063d5761063d611a71565b60209081029190910101526001016103c3565b50919050565b6106a16040518061012001604052805f815260200160608152602001606081526020015f8152602001606081526020015f81526020015f151581526020015f81526020015f81525090565b815f811180156106b357506001548111155b6107045760405162461bcd60e51b815260206004820152601460248201527f517565737420646f6573206e6f7420657869737400000000000000000000000060448201526064015b60405180910390fd5b60025f8481526020019081526020015f20604051806101200160405290815f820154815260200160018201805461073a90611a3f565b80601f016020809104026020016040519081016040528092919081815260200182805461076690611a3f565b80156107b15780601f10610788576101008083540402835291602001916107b1565b820191905f5260205f20905b81548152906001019060200180831161079457829003601f168201915b505050505081526020016002820180546107ca90611a3f565b80601f01602080910402602001604051908101604052809291908181526020018280546107f690611a3f565b80156108415780601f1061081857610100808354040283529160200191610841565b820191905f5260205f20905b81548152906001019060200180831161082457829003601f168201915b505050505081526020016003820154815260200160048201805480602002602001604051908101604052809291908181526020015f905b82821015610920578382905f5260205f2001805461089590611a3f565b80601f01602080910402602001604051908101604052809291908181526020018280546108c190611a3f565b801561090c5780601f106108e35761010080835404028352916020019161090c565b820191905f5260205f20905b8154815290600101906020018083116108ef57829003601f168201915b505050505081526020019060010190610878565b5050509082525060058201546020820152600682015460ff1615156040820152600782015460608201526008909101546080909101529392505050565b5f546001600160a01b031633148061099d5750336001600160a01b037f000000000000000000000000000000000000000000000000000000000000000016145b610a0f5760405162461bcd60e51b815260206004820152602b60248201527f4f6e6c79206f776e6572206f72206261636b656e642063616e2073657420646160448201527f696c7920636c61696d656400000000000000000000000000000000000000000060648201526084016106fb565b6001600160a01b038116610a655760405162461bcd60e51b815260206004820152601460248201527f496e76616c69642075736572206164647265737300000000000000000000000060448201526064016106fb565b6001600160a01b0381165f90815260056020526040902080544290610aab907f000000000000000000000000000000000000000000000000000000000000000090611a26565b811015610afa5760405162461bcd60e51b815260206004820152601c60248201527f4461696c7920636c61696d20636f6f6c646f776e206e6f74206d65740000000060448201526064016106fb565b8082556001808301805460ff191690911790556040517f000000000000000000000000000000000000000000000000000000000000000081526001600160a01b038416907fb924ab64c28bc1c27fc5a56df34d576dfebbf347ea99c0e51abc4a46f458a77c9060200160405180910390a2505050565b5f546001600160a01b03163314610bd35760405162461bcd60e51b815260206004820152602160248201527f4f6e6c79206f776e65722063616e2063616c6c20746869732066756e6374696f6044820152603760f91b60648201526084016106fb565b428111610c225760405162461bcd60e51b815260206004820152601e60248201527f456e642064617465206d75737420626520696e2074686520667574757265000060448201526064016106fb565b5f835111610c985760405162461bcd60e51b815260206004820152602860248201527f5175657374206d7573742068617665206174206c65617374206f6e652072657160448201527f756972656d656e7400000000000000000000000000000000000000000000000060648201526084016106fb565b60018054905f610ca783611a85565b909155505060408051610120810182526001805480835260208084018b81528486018b9052606085018a90526080850189905260a0850188905260c085018490524260e086015261010085018790525f928352600290915293902082518155925191929190820190610d199082611ae9565b5060408201516002820190610d2e9082611ae9565b506060820151600382015560808201518051610d5491600484019160209091019061144a565b5060a0820151600582015560c082015160068201805460ff191691151591909117905560e08201516007820155610100909101516008909101556001546040517f081a3e146b56e9690728c0eb05145923b1d36a59d7dc8175ad7133d1aef84f3690610dc590899088908690611ba9565b60405180910390a2505050505050565b610ddd61149e565b6001600160a01b0382165f9081526004602052604081205467ffffffffffffffff811115610e0d57610e0d611737565b604051908082528060200260200182016040528015610e36578160200160208202803683370190505b5090505f60015b6001548111610eaf576001600160a01b0385165f90815260036020908152604080832084845290915290205460ff1615610e9d5780838381518110610e8457610e84611a71565b602090810291909101015281610e9981611a85565b9250505b80610ea781611a85565b915050610e3d565b506001600160a01b0384165f9081526005602090815260408083208151808301909252805480835260019091015460ff1615159282019290925291429181908103610eff5750600190505f610f74565b83515f90610f0d9085611bcd565b90507f00000000000000000000000000000000000000000000000000000000000000008110610f4257600192505f9150610f72565b5f9250610f6f817f0000000000000000000000000000000000000000000000000000000000000000611bcd565b91505b505b6040805160a0810182529687526001600160a01b039098165f908152600460209081529089902054908701529685019290925250151560608301525060808101929092525090565b805f81118015610fce57506001548111155b61101a5760405162461bcd60e51b815260206004820152601460248201527f517565737420646f6573206e6f7420657869737400000000000000000000000060448201526064016106fb565b5f82815260026020526040902060060154829060ff1661107c5760405162461bcd60e51b815260206004820152601360248201527f5175657374206973206e6f74206163746976650000000000000000000000000060448201526064016106fb565b5f818152600260205260409020600801544211156110dc5760405162461bcd60e51b815260206004820152601160248201527f517565737420686173206578706972656400000000000000000000000000000060448201526064016106fb565b5f546001600160a01b031633148061111c5750336001600160a01b037f000000000000000000000000000000000000000000000000000000000000000016145b61118e5760405162461bcd60e51b815260206004820152602960248201527f4f6e6c79206f776e6572206f72206261636b656e642063616e20636f6d706c6560448201527f746520717565737473000000000000000000000000000000000000000000000060648201526084016106fb565b6001600160a01b0384166111e45760405162461bcd60e51b815260206004820152601460248201527f496e76616c69642075736572206164647265737300000000000000000000000060448201526064016106fb565b6001600160a01b0384165f90815260036020908152604080832086845290915290205460ff16156112575760405162461bcd60e51b815260206004820152601760248201527f517565737420616c726561647920636f6d706c6574656400000000000000000060448201526064016106fb565b60408051808201825260018082524260208084019182526001600160a01b0389165f818152600383528681208a825283528681209551865460ff19169015151786559251949093019390935590815260049091529081208054916112ba83611a85565b909155505060405183906001600160a01b038616907f6618f11353f68847dc28cc4b36a04270fab5e356fa35386e6315ba7ff205a633905f90a350505050565b60026020525f90815260409020805460018201805491929161131b90611a3f565b80601f016020809104026020016040519081016040528092919081815260200182805461134790611a3f565b80156113925780601f1061136957610100808354040283529160200191611392565b820191905f5260205f20905b81548152906001019060200180831161137557829003601f168201915b5050505050908060020180546113a790611a3f565b80601f01602080910402602001604051908101604052809291908181526020018280546113d390611a3f565b801561141e5780601f106113f55761010080835404028352916020019161141e565b820191905f5260205f20905b81548152906001019060200180831161140157829003601f168201915b50505060038401546005850154600686015460078701546008909701549596929591945060ff16925088565b828054828255905f5260205f2090810192821561148e579160200282015b8281111561148e578251829061147e9082611ae9565b5091602001919060010190611468565b5061149a9291506114e6565b5090565b6040518060a00160405280606081526020015f81526020016114d360405180604001604052805f81526020015f151581525090565b81525f6020820181905260409091015290565b8082111561149a575f6114f98282611502565b506001016114e6565b50805461150e90611a3f565b5f825580601f1061151d575050565b601f0160209004905f5260205f2090810190611539919061153c565b50565b5b8082111561149a575f815560010161153d565b80356001600160a01b0381168114611566575f80fd5b919050565b5f6020828403121561157b575f80fd5b61158482611550565b9392505050565b5f81518084528060208401602086015e5f602082860101526020601f19601f83011685010191505092915050565b5f8282518085526020808601955060208260051b840101602086015f5b8481101561160457601f198684030189526115f283835161158b565b988401989250908301906001016115d6565b5090979650505050505050565b5f6101208251845260208301518160208601526116308286018261158b565b9150506040830151848203604086015261164a828261158b565b915050606083015160608501526080830151848203608086015261166e82826115b9565b91505060a083015160a085015260c083015161168e60c086018215159052565b5060e083810151908501526101009283015192909301919091525090565b5f60208083016020845280855180835260408601915060408160051b8701019250602087015f5b8281101561170157603f198886030184526116ef858351611611565b945092850192908501906001016116d3565b5092979650505050505050565b5f6020828403121561171e575f80fd5b5035919050565b602081525f6115846020830184611611565b634e487b7160e01b5f52604160045260245ffd5b604051601f8201601f1916810167ffffffffffffffff8111828210171561177457611774611737565b604052919050565b5f82601f83011261178b575f80fd5b813567ffffffffffffffff8111156117a5576117a5611737565b6117b8601f8201601f191660200161174b565b8181528460208386010111156117cc575f80fd5b816020850160208301375f918101602001919091529392505050565b5f805f805f8060c087890312156117fd575f80fd5b67ffffffffffffffff8088351115611813575f80fd5b6118208989358a0161177c565b965060208089013582811115611834575f80fd5b6118408b828c0161177c565b9750506040890135955060608901358281111561185b575f80fd5b8901601f81018b1361186b575f80fd5b80358381111561187d5761187d611737565b8060051b61188c84820161174b565b918252828101840191848101908e8411156118a5575f80fd5b85850192505b838310156118de5786833511156118c0575f80fd5b6118cf8f87853588010161177c565b825291850191908501906118ab565b9b9e9a9d50989b60808101359a60a0909101359950975050505050505050565b5f806040838503121561190f575f80fd5b61191883611550565b946020939093013593505050565b6020808252825160c083830152805160e084018190525f929182019083906101008601905b8083101561196b578351825292840192600192909201919084019061194b565b50838701516040870152604087015193506119956060870185805182526020908101511515910152565b6060870151151560a087015260809096015160c09095019490945250929392505050565b5f6101008a83528060208401526119d28184018b61158b565b905082810360408401526119e6818a61158b565b60608401989098525050608081019490945291151560a084015260c083015260e0909101529392505050565b634e487b7160e01b5f52601160045260245ffd5b80820180821115611a3957611a39611a12565b92915050565b600181811c90821680611a5357607f821691505b60208210810361065057634e487b7160e01b5f52602260045260245ffd5b634e487b7160e01b5f52603260045260245ffd5b5f60018201611a9657611a96611a12565b5060010190565b601f821115611ae457805f5260205f20601f840160051c81016020851015611ac25750805b601f840160051c820191505b81811015611ae1575f8155600101611ace565b50505b505050565b815167ffffffffffffffff811115611b0357611b03611737565b611b1781611b118454611a3f565b84611a9d565b602080601f831160018114611b4a575f8415611b335750858301515b5f19600386901b1c1916600185901b178555611ba1565b5f85815260208120601f198616915b82811015611b7857888601518255948401946001909101908401611b59565b5085821015611b9557878501515f19600388901b60f8161c191681555b505060018460011b0185555b505050505050565b606081525f611bbb606083018661158b565b60208301949094525060400152919050565b81810381811115611a3957611a39611a1256fea2646970667358221220b70653abdbe7dfd488c53ac09b6eea50d54c9b3387aca998681b67d478ad0d1b64736f6c63430008190033",
      "opcodes": "PUSH1 0xE0 PUSH1 0x40 MSTORE CALLVALUE DUP1 ISZERO PUSH2 0xF JUMPI PUSH0 DUP1 REVERT JUMPDEST POP PUSH1 0x40 MLOAD PUSH2 0x1E10 CODESIZE SUB DUP1 PUSH2 0x1E10 DUP4 CODECOPY DUP2 ADD PUSH1 0x40 DUP2 SWAP1 MSTORE PUSH2 0x2E SWAP2 PUSH2 0x167 JUMP JUMPDEST PUSH1 0x1 PUSH1 0x1 PUSH1 0xA0 SHL SUB DUP4 AND PUSH2 0x89 JUMPI PUSH1 0x40 MLOAD PUSH3 0x461BCD PUSH1 0xE5 SHL DUP2 MSTORE PUSH1 0x20 PUSH1 0x4 DUP3 ADD MSTORE PUSH1 0x1E PUSH1 0x24 DUP3 ADD MSTORE PUSH32 0x496E76616C6964206261636B656E642077616C6C657420616464726573730000 PUSH1 0x44 DUP3 ADD MSTORE PUSH1 0x64 ADD JUMPDEST PUSH1 0x40 MLOAD DUP1 SWAP2 SUB SWAP1 REVERT JUMPDEST PUSH0 DUP3 GT PUSH2 0xE4 JUMPI PUSH1 0x40 MLOAD PUSH3 0x461BCD PUSH1 0xE5 SHL DUP2 MSTORE PUSH1 0x20 PUSH1 0x4 DUP3 ADD MSTORE PUSH1 0x23 PUSH1 0x24 DUP3 ADD MSTORE PUSH32 0x4461696C7920726577617264206D757374206265206772656174657220746861 PUSH1 0x44 DUP3 ADD MSTORE PUSH3 0x6E203 PUSH1 0xEC SHL PUSH1 0x64 DUP3 ADD MSTORE PUSH1 0x84 ADD PUSH2 0x80 JUMP JUMPDEST PUSH2 0xE10 DUP2 LT ISZERO PUSH2 0x136 JUMPI PUSH1 0x40 MLOAD PUSH3 0x461BCD PUSH1 0xE5 SHL DUP2 MSTORE PUSH1 0x20 PUSH1 0x4 DUP3 ADD DUP2 SWAP1 MSTORE PUSH1 0x24 DUP3 ADD MSTORE PUSH32 0x436F6F6C646F776E206D757374206265206174206C65617374203120686F7572 PUSH1 0x44 DUP3 ADD MSTORE PUSH1 0x64 ADD PUSH2 0x80 JUMP JUMPDEST PUSH0 DUP1 SLOAD PUSH1 0x1 PUSH1 0x1 PUSH1 0xA0 SHL SUB NOT AND CALLER OR DUP2 SSTORE PUSH1 0x1 PUSH1 0x1 PUSH1 0xA0 SHL SUB SWAP4 SWAP1 SWAP4 AND PUSH1 0x80 MSTORE PUSH1 0xA0 SWAP2 SWAP1 SWAP2 MSTORE PUSH1 0xC0 MSTORE PUSH1 0x1 SSTORE PUSH2 0x1A6 JUMP JUMPDEST PUSH0 DUP1 PUSH0 PUSH1 0x60 DUP5 DUP7 SUB SLT ISZERO PUSH2 0x179 JUMPI PUSH0 DUP1 REVERT JUMPDEST DUP4 MLOAD PUSH1 0x1 PUSH1 0x1 PUSH1 0xA0 SHL SUB DUP2 AND DUP2 EQ PUSH2 0x18F JUMPI PUSH0 DUP1 REVERT JUMPDEST PUSH1 0x20 DUP6 ADD MLOAD PUSH1 0x40 SWAP1 SWAP6 ADD MLOAD SWAP1 SWAP7 SWAP5 SWAP6 POP SWAP4 SWAP3 POP POP POP JUMP JUMPDEST PUSH1 0x80 MLOAD PUSH1 0xA0 MLOAD PUSH1 0xC0 MLOAD PUSH2 0x1C16 PUSH2 0x1FA PUSH0 CODECOPY PUSH0 DUP2 DUP2 PUSH2 0x2E3 ADD MSTORE DUP2 DUP2 PUSH2 0xA86 ADD MSTORE DUP2 DUP2 PUSH2 0xF11 ADD MSTORE PUSH2 0xF4B ADD MSTORE PUSH0 DUP2 DUP2 PUSH2 0x17C ADD MSTORE PUSH2 0xB12 ADD MSTORE PUSH0 DUP2 DUP2 PUSH2 0x262 ADD MSTORE DUP2 DUP2 PUSH2 0x97B ADD MSTORE PUSH2 0x10FA ADD MSTORE PUSH2 0x1C16 PUSH0 RETURN INVALID PUSH1 0x80 PUSH1 0x40 MSTORE CALLVALUE DUP1 ISZERO PUSH2 0xF JUMPI PUSH0 DUP1 REVERT JUMPDEST POP PUSH1 0x4 CALLDATASIZE LT PUSH2 0xFB JUMPI PUSH0 CALLDATALOAD PUSH1 0xE0 SHR DUP1 PUSH4 0x9387036D GT PUSH2 0x93 JUMPI DUP1 PUSH4 0xDAC297C2 GT PUSH2 0x63 JUMPI DUP1 PUSH4 0xDAC297C2 EQ PUSH2 0x2A4 JUMPI DUP1 PUSH4 0xE085F980 EQ PUSH2 0x2B7 JUMPI DUP1 PUSH4 0xFDEA3657 EQ PUSH2 0x2DE JUMPI DUP1 PUSH4 0xFE6F1CF4 EQ PUSH2 0x305 JUMPI PUSH0 DUP1 REVERT JUMPDEST DUP1 PUSH4 0x9387036D EQ PUSH2 0x1FC JUMPI DUP1 PUSH4 0x9F4D5856 EQ PUSH2 0x20F JUMPI DUP1 PUSH4 0xA680BAAF EQ PUSH2 0x25D JUMPI DUP1 PUSH4 0xCC3D967B EQ PUSH2 0x284 JUMPI PUSH0 DUP1 REVERT JUMPDEST DUP1 PUSH4 0x7D7591F0 GT PUSH2 0xCE JUMPI DUP1 PUSH4 0x7D7591F0 EQ PUSH2 0x1AC JUMPI DUP1 PUSH4 0x7FC573D2 EQ PUSH2 0x1B5 JUMPI DUP1 PUSH4 0x8DA5CB5B EQ PUSH2 0x1BD JUMPI DUP1 PUSH4 0x92D588E9 EQ PUSH2 0x1E7 JUMPI PUSH0 DUP1 REVERT JUMPDEST DUP1 PUSH4 0x15022D98 EQ PUSH2 0xFF JUMPI DUP1 PUSH4 0x3BB659A2 EQ PUSH2 0x142 JUMPI DUP1 PUSH4 0x49F86F34 EQ PUSH2 0x157 JUMPI DUP1 PUSH4 0x650B4F1E EQ PUSH2 0x177 JUMPI JUMPDEST PUSH0 DUP1 REVERT JUMPDEST PUSH2 0x128 PUSH2 0x10D CALLDATASIZE PUSH1 0x4 PUSH2 0x156B JUMP JUMPDEST PUSH1 0x5 PUSH1 0x20 MSTORE PUSH0 SWAP1 DUP2 MSTORE PUSH1 0x40 SWAP1 KECCAK256 DUP1 SLOAD PUSH1 0x1 SWAP1 SWAP2 ADD SLOAD PUSH1 0xFF AND DUP3 JUMP JUMPDEST PUSH1 0x40 DUP1 MLOAD SWAP3 DUP4 MSTORE SWAP1 ISZERO ISZERO PUSH1 0x20 DUP4 ADD MSTORE ADD JUMPDEST PUSH1 0x40 MLOAD DUP1 SWAP2 SUB SWAP1 RETURN JUMPDEST PUSH2 0x14A PUSH2 0x324 JUMP JUMPDEST PUSH1 0x40 MLOAD PUSH2 0x139 SWAP2 SWAP1 PUSH2 0x16AC JUMP JUMPDEST PUSH2 0x16A PUSH2 0x165 CALLDATASIZE PUSH1 0x4 PUSH2 0x170E JUMP JUMPDEST PUSH2 0x656 JUMP JUMPDEST PUSH1 0x40 MLOAD PUSH2 0x139 SWAP2 SWAP1 PUSH2 0x1725 JUMP JUMPDEST PUSH2 0x19E PUSH32 0x0 DUP2 JUMP JUMPDEST PUSH1 0x40 MLOAD SWAP1 DUP2 MSTORE PUSH1 0x20 ADD PUSH2 0x139 JUMP JUMPDEST PUSH2 0x19E PUSH1 0x1 SLOAD DUP2 JUMP JUMPDEST PUSH1 0x1 SLOAD PUSH2 0x19E JUMP JUMPDEST PUSH0 SLOAD PUSH2 0x1CF SWAP1 PUSH1 0x1 PUSH1 0x1 PUSH1 0xA0 SHL SUB AND DUP2 JUMP JUMPDEST PUSH1 0x40 MLOAD PUSH1 0x1 PUSH1 0x1 PUSH1 0xA0 SHL SUB SWAP1 SWAP2 AND DUP2 MSTORE PUSH1 0x20 ADD PUSH2 0x139 JUMP JUMPDEST PUSH2 0x1FA PUSH2 0x1F5 CALLDATASIZE PUSH1 0x4 PUSH2 0x156B JUMP JUMPDEST PUSH2 0x95D JUMP JUMPDEST STOP JUMPDEST PUSH2 0x1FA PUSH2 0x20A CALLDATASIZE PUSH1 0x4 PUSH2 0x17E8 JUMP JUMPDEST PUSH2 0xB70 JUMP JUMPDEST PUSH2 0x246 PUSH2 0x21D CALLDATASIZE PUSH1 0x4 PUSH2 0x18FE JUMP JUMPDEST PUSH1 0x3 PUSH1 0x20 SWAP1 DUP2 MSTORE PUSH0 SWAP3 DUP4 MSTORE PUSH1 0x40 DUP1 DUP5 KECCAK256 SWAP1 SWAP2 MSTORE SWAP1 DUP3 MSTORE SWAP1 KECCAK256 DUP1 SLOAD PUSH1 0x1 SWAP1 SWAP2 ADD SLOAD PUSH1 0xFF SWAP1 SWAP2 AND SWAP1 DUP3 JUMP JUMPDEST PUSH1 0x40 DUP1 MLOAD SWAP3 ISZERO ISZERO DUP4 MSTORE PUSH1 0x20 DUP4 ADD SWAP2 SWAP1 SWAP2 MSTORE ADD PUSH2 0x139 JUMP JUMPDEST PUSH2 0x1CF PUSH32 0x0 DUP2 JUMP JUMPDEST PUSH2 0x297 PUSH2 0x292 CALLDATASIZE PUSH1 0x4 PUSH2 0x156B JUMP JUMPDEST PUSH2 0xDD5 JUMP JUMPDEST PUSH1 0x40 MLOAD PUSH2 0x139 SWAP2 SWAP1 PUSH2 0x1926 JUMP JUMPDEST PUSH2 0x1FA PUSH2 0x2B2 CALLDATASIZE PUSH1 0x4 PUSH2 0x18FE JUMP JUMPDEST PUSH2 0xFBC JUMP JUMPDEST PUSH2 0x2CA PUSH2 0x2C5 CALLDATASIZE PUSH1 0x4 PUSH2 0x170E JUMP JUMPDEST PUSH2 0x12FA JUMP JUMPDEST PUSH1 0x40 MLOAD PUSH2 0x139 SWAP9 SWAP8 SWAP7 SWAP6 SWAP5 SWAP4 SWAP3 SWAP2 SWAP1 PUSH2 0x19B9 JUMP JUMPDEST PUSH2 0x19E PUSH32 0x0 DUP2 JUMP JUMPDEST PUSH2 0x19E PUSH2 0x313 CALLDATASIZE PUSH1 0x4 PUSH2 0x156B JUMP JUMPDEST PUSH1 0x4 PUSH1 0x20 MSTORE PUSH0 SWAP1 DUP2 MSTORE PUSH1 0x40 SWAP1 KECCAK256 SLOAD DUP2 JUMP JUMPDEST PUSH1 0x60 PUSH0 PUSH1 0x1 SLOAD PUSH8 0xFFFFFFFFFFFFFFFF DUP2 GT ISZERO PUSH2 0x342 JUMPI PUSH2 0x342 PUSH2 0x1737 JUMP JUMPDEST PUSH1 0x40 MLOAD SWAP1 DUP1 DUP3 MSTORE DUP1 PUSH1 0x20 MUL PUSH1 0x20 ADD DUP3 ADD PUSH1 0x40 MSTORE DUP1 ISZERO PUSH2 0x3BE JUMPI DUP2 PUSH1 0x20 ADD JUMPDEST PUSH2 0x3AB PUSH1 0x40 MLOAD DUP1 PUSH2 0x120 ADD PUSH1 0x40 MSTORE DUP1 PUSH0 DUP2 MSTORE PUSH1 0x20 ADD PUSH1 0x60 DUP2 MSTORE PUSH1 0x20 ADD PUSH1 0x60 DUP2 MSTORE PUSH1 0x20 ADD PUSH0 DUP2 MSTORE PUSH1 0x20 ADD PUSH1 0x60 DUP2 MSTORE PUSH1 0x20 ADD PUSH0 DUP2 MSTORE PUSH1 0x20 ADD PUSH0 ISZERO ISZERO DUP2 MSTORE PUSH1 0x20 ADD PUSH0 DUP2 MSTORE PUSH1 0x20 ADD PUSH0 DUP2 MSTORE POP SWAP1 JUMP JUMPDEST DUP2 MSTORE PUSH1 0x20 ADD SWAP1 PUSH1 0x1 SWAP1 SUB SWAP1 DUP2 PUSH2 0x360 JUMPI SWAP1 POP JUMPDEST POP SWAP1 POP PUSH0 JUMPDEST PUSH1 0x1 SLOAD DUP2 LT ISZERO PUSH2 0x650 JUMPI PUSH1 0x2 PUSH0 PUSH2 0x3DB DUP4 PUSH1 0x1 PUSH2 0x1A26 JUMP JUMPDEST DUP2 MSTORE PUSH1 0x20 ADD SWAP1 DUP2 MSTORE PUSH1 0x20 ADD PUSH0 KECCAK256 PUSH1 0x40 MLOAD DUP1 PUSH2 0x120 ADD PUSH1 0x40 MSTORE SWAP1 DUP2 PUSH0 DUP3 ADD SLOAD DUP2 MSTORE PUSH1 0x20 ADD PUSH1 0x1 DUP3 ADD DUP1 SLOAD PUSH2 0x40D SWAP1 PUSH2 0x1A3F JUMP JUMPDEST DUP1 PUSH1 0x1F ADD PUSH1 0x20 DUP1 SWAP2 DIV MUL PUSH1 0x20 ADD PUSH1 0x40 MLOAD SWAP1 DUP2 ADD PUSH1 0x40 MSTORE DUP1 SWAP3 SWAP2 SWAP1 DUP2 DUP2 MSTORE PUSH1 0x20 ADD DUP3 DUP1 SLOAD PUSH2 0x439 SWAP1 PUSH2 0x1A3F JUMP JUMPDEST DUP1 ISZERO PUSH2 0x484 JUMPI DUP1 PUSH1 0x1F LT PUSH2 0x45B JUMPI PUSH2 0x100 DUP1 DUP4 SLOAD DIV MUL DUP4 MSTORE SWAP2 PUSH1 0x20 ADD SWAP2 PUSH2 0x484 JUMP JUMPDEST DUP3 ADD SWAP2 SWAP1 PUSH0 MSTORE PUSH1 0x20 PUSH0 KECCAK256 SWAP1 JUMPDEST DUP2 SLOAD DUP2 MSTORE SWAP1 PUSH1 0x1 ADD SWAP1 PUSH1 0x20 ADD DUP1 DUP4 GT PUSH2 0x467 JUMPI DUP3 SWAP1 SUB PUSH1 0x1F AND DUP3 ADD SWAP2 JUMPDEST POP POP POP POP POP DUP2 MSTORE PUSH1 0x20 ADD PUSH1 0x2 DUP3 ADD DUP1 SLOAD PUSH2 0x49D SWAP1 PUSH2 0x1A3F JUMP JUMPDEST DUP1 PUSH1 0x1F ADD PUSH1 0x20 DUP1 SWAP2 DIV MUL PUSH1 0x20 ADD PUSH1 0x40 MLOAD SWAP1 DUP2 ADD PUSH1 0x40 MSTORE DUP1 SWAP3 SWAP2 SWAP1 DUP2 DUP2 MSTORE PUSH1 0x20 ADD DUP3 DUP1 SLOAD PUSH2 0x4C9 SWAP1 PUSH2 0x1A3F JUMP JUMPDEST DUP1 ISZERO PUSH2 0x514 JUMPI DUP1 PUSH1 0x1F LT PUSH2 0x4EB JUMPI PUSH2 0x100 DUP1 DUP4 SLOAD DIV MUL DUP4 MSTORE SWAP2 PUSH1 0x20 ADD SWAP2 PUSH2 0x514 JUMP JUMPDEST DUP3 ADD SWAP2 SWAP1 PUSH0 MSTORE PUSH1 0x20 PUSH0 KECCAK256 SWAP1 JUMPDEST DUP2 SLOAD DUP2 MSTORE SWAP1 PUSH1 0x1 ADD SWAP1 PUSH1 0x20 ADD DUP1 DUP4 GT PUSH2 0x4F7 JUMPI DUP3 SWAP1 SUB PUSH1 0x1F AND DUP3 ADD SWAP2 JUMPDEST POP POP POP POP POP DUP2 MSTORE PUSH1 0x20 ADD PUSH1 0x3 DUP3 ADD SLOAD DUP2 MSTORE PUSH1 0x20 ADD PUSH1 0x4 DUP3 ADD DUP1 SLOAD DUP1 PUSH1 0x20 MUL PUSH1 0x20 ADD PUSH1 0x40 MLOAD SWAP1 DUP2 ADD PUSH1 0x40 MSTORE DUP1 SWAP3 SWAP2 SWAP1 DUP2 DUP2 MSTORE PUSH1 0x20 ADD PUSH0 SWAP1 JUMPDEST DUP3 DUP3 LT ISZERO PUSH2 0x5F3 JUMPI DUP4 DUP3 SWAP1 PUSH0 MSTORE PUSH1 0x20 PUSH0 KECCAK256 ADD DUP1 SLOAD PUSH2 0x568 SWAP1 PUSH2 0x1A3F JUMP JUMPDEST DUP1 PUSH1 0x1F ADD PUSH1 0x20 DUP1 SWAP2 DIV MUL PUSH1 0x20 ADD PUSH1 0x40 MLOAD SWAP1 DUP2 ADD PUSH1 0x40 MSTORE DUP1 SWAP3 SWAP2 SWAP1 DUP2 DUP2 MSTORE PUSH1 0x20 ADD DUP3 DUP1 SLOAD PUSH2 0x594 SWAP1 PUSH2 0x1A3F JUMP JUMPDEST DUP1 ISZERO PUSH2 0x5DF JUMPI DUP1 PUSH1 0x1F LT PUSH2 0x5B6 JUMPI PUSH2 0x100 DUP1 DUP4 SLOAD DIV MUL DUP4 MSTORE SWAP2 PUSH1 0x20 ADD SWAP2 PUSH2 0x5DF JUMP JUMPDEST DUP3 ADD SWAP2 SWAP1 PUSH0 MSTORE PUSH1 0x20 PUSH0 KECCAK256 SWAP1 JUMPDEST DUP2 SLOAD DUP2 MSTORE SWAP1 PUSH1 0x1 ADD SWAP1 PUSH1 0x20 ADD DUP1 DUP4 GT PUSH2 0x5C2 JUMPI DUP3 SWAP1 SUB PUSH1 0x1F AND DUP3 ADD SWAP2 JUMPDEST POP POP POP POP POP DUP2 MSTORE PUSH1 0x20 ADD SWAP1 PUSH1 0x1 ADD SWAP1 PUSH2 0x54B JUMP JUMPDEST POP POP POP SWAP1 DUP3 MSTORE POP PUSH1 0x5 DUP3 ADD SLOAD PUSH1 0x20 DUP3 ADD MSTORE PUSH1 0x6 DUP3 ADD SLOAD PUSH1 0xFF AND ISZERO ISZERO PUSH1 0x40 DUP3 ADD MSTORE PUSH1 0x7 DUP3 ADD SLOAD PUSH1 0x60 DUP3 ADD MSTORE PUSH1 0x8 SWAP1 SWAP2 ADD SLOAD PUSH1 0x80 SWAP1 SWAP2 ADD MSTORE DUP3 MLOAD DUP4 SWAP1 DUP4 SWAP1 DUP2 LT PUSH2 0x63D JUMPI PUSH2 0x63D PUSH2 0x1A71 JUMP JUMPDEST PUSH1 0x20 SWAP1 DUP2 MUL SWAP2 SWAP1 SWAP2 ADD ADD MSTORE PUSH1 0x1 ADD PUSH2 0x3C3 JUMP JUMPDEST POP SWAP2 SWAP1 POP JUMP JUMPDEST PUSH2 0x6A1 PUSH1 0x40 MLOAD DUP1 PUSH2 0x120 ADD PUSH1 0x40 MSTORE DUP1 PUSH0 DUP2 MSTORE PUSH1 0x20 ADD PUSH1 0x60 DUP2 MSTORE PUSH1 0x20 ADD PUSH1 0x60 DUP2 MSTORE PUSH1 0x20 ADD PUSH0 DUP2 MSTORE PUSH1 0x20 ADD PUSH1 0x60 DUP2 MSTORE PUSH1 0x20 ADD PUSH0 DUP2 MSTORE PUSH1 0x20 ADD PUSH0 ISZERO ISZERO DUP2 MSTORE PUSH1 0x20 ADD PUSH0 DUP2 MSTORE PUSH1 0x20 ADD PUSH0 DUP2 MSTORE POP SWAP1 JUMP JUMPDEST DUP2 PUSH0 DUP2 GT DUP1 ISZERO PUSH2 0x6B3 JUMPI POP PUSH1 0x1 SLOAD DUP2 GT ISZERO JUMPDEST PUSH2 0x704 JUMPI PUSH1 0x40 MLOAD PUSH3 0x461BCD PUSH1 0xE5 SHL DUP2 MSTORE PUSH1 0x20 PUSH1 0x4 DUP3 ADD MSTORE PUSH1 0x14 PUSH1 0x24 DUP3 ADD MSTORE PUSH32 0x517565737420646F6573206E6F74206578697374000000000000000000000000 PUSH1 0x44 DUP3 ADD MSTORE PUSH1 0x64 ADD JUMPDEST PUSH1 0x40 MLOAD DUP1 SWAP2 SUB SWAP1 REVERT JUMPDEST PUSH1 0x2 PUSH0 DUP5 DUP2 MSTORE PUSH1 0x20 ADD SWAP1 DUP2 MSTORE PUSH1 0x20 ADD PUSH0 KECCAK256 PUSH1 0x40 MLOAD DUP1 PUSH2 0x120 ADD PUSH1 0x40 MSTORE SWAP1 DUP2 PUSH0 DUP3 ADD SLOAD DUP2 MSTORE PUSH1 0x20 ADD PUSH1 0x1 DUP3 ADD DUP1 SLOAD PUSH2 0x73A SWAP1 PUSH2 0x1A3F JUMP JUMPDEST DUP1 PUSH1 0x1F ADD PUSH1 0x20 DUP1 SWAP2 DIV MUL PUSH1 0x20 ADD PUSH1 0x40 MLOAD SWAP1 DUP2 ADD PUSH1 0x40 MSTORE DUP1 SWAP3 SWAP2 SWAP1 DUP2 DUP2 MSTORE PUSH1 0x20 ADD DUP3 DUP1 SLOAD PUSH2 0x766 SWAP1 PUSH2 0x1A3F JUMP JUMPDEST DUP1 ISZERO PUSH2 0x7B1 JUMPI DUP1 PUSH1 0x1F LT PUSH2 0x788 JUMPI PUSH2 0x100 DUP1 DUP4 SLOAD DIV MUL DUP4 MSTORE SWAP2 PUSH1 0x20 ADD SWAP2 PUSH2 0x7B1 JUMP JUMPDEST DUP3 ADD SWAP2 SWAP1 PUSH0 MSTORE PUSH1 0x20 PUSH0 KECCAK256 SWAP1 JUMPDEST DUP2 SLOAD DUP2 MSTORE SWAP1 PUSH1 0x1 ADD SWAP1 PUSH1 0x20 ADD DUP1 DUP4 GT PUSH2 0x794 JUMPI DUP3 SWAP1 SUB PUSH1 0x1F AND DUP3 ADD SWAP2 JUMPDEST POP POP POP POP POP DUP2 MSTORE PUSH1 0x20 ADD PUSH1 0x2 DUP3 ADD DUP1 SLOAD PUSH2 0x7CA SWAP1 PUSH2 0x1A3F JUMP JUMPDEST DUP1 PUSH1 0x1F ADD PUSH1 0x20 DUP1 SWAP2 DIV MUL PUSH1 0x20 ADD PUSH1 0x40 MLOAD SWAP1 DUP2 ADD PUSH1 0x40 MSTORE DUP1 SWAP3 SWAP2 SWAP1 DUP2 DUP2 MSTORE PUSH1 0x20 ADD DUP3 DUP1 SLOAD PUSH2 0x7F6 SWAP1 PUSH2 0x1A3F JUMP JUMPDEST DUP1 ISZERO PUSH2 0x841 JUMPI DUP1 PUSH1 0x1F LT PUSH2 0x818 JUMPI PUSH2 0x100 DUP1 DUP4 SLOAD DIV MUL DUP4 MSTORE SWAP2 PUSH1 0x20 ADD SWAP2 PUSH2 0x841 JUMP JUMPDEST DUP3 ADD SWAP2 SWAP1 PUSH0 MSTORE PUSH1 0x20 PUSH0 KECCAK256 SWAP1 JUMPDEST DUP2 SLOAD DUP2 MSTORE SWAP1 PUSH1 0x1 ADD SWAP1 PUSH1 0x20 ADD DUP1 DUP4 GT PUSH2 0x824 JUMPI DUP3 SWAP1 SUB PUSH1 0x1F AND DUP3 ADD SWAP2 JUMPDEST POP POP POP POP POP DUP2 MSTORE PUSH1 0x20 ADD PUSH1 0x3 DUP3 ADD SLOAD DUP2 MSTORE PUSH1 0x20 ADD PUSH1 0x4 DUP3 ADD DUP1 SLOAD DUP1 PUSH1 0x20 MUL PUSH1 0x20 ADD PUSH1 0x40 MLOAD SWAP1 DUP2 ADD PUSH1 0x40 MSTORE DUP1 SWAP3 SWAP2 SWAP1 DUP2 DUP2 MSTORE PUSH1 0x20 ADD PUSH0 SWAP1 JUMPDEST DUP3 DUP3 LT ISZERO PUSH2 0x920 JUMPI DUP4 DUP3 SWAP1 PUSH0 MSTORE PUSH1 0x20 PUSH0 KECCAK256 ADD DUP1 SLOAD PUSH2 0x895 SWAP1 PUSH2 0x1A3F JUMP JUMPDEST DUP1 PUSH1 0x1F ADD PUSH1 0x20 DUP1 SWAP2 DIV MUL PUSH1 0x20 ADD PUSH1 0x40 MLOAD SWAP1 DUP2 ADD PUSH1 0x40 MSTORE DUP1 SWAP3 SWAP2 SWAP1 DUP2 DUP2 MSTORE PUSH1 0x20 ADD DUP3 DUP1 SLOAD PUSH2 0x8C1 SWAP1 PUSH2 0x1A3F JUMP JUMPDEST DUP1 ISZERO PUSH2 0x90C JUMPI DUP1 PUSH1 0x1F LT PUSH2 0x8E3 JUMPI PUSH2 0x100 DUP1 DUP4 SLOAD DIV MUL DUP4 MSTORE SWAP2 PUSH1 0x20 ADD SWAP2 PUSH2 0x90C JUMP JUMPDEST DUP3 ADD SWAP2 SWAP1 PUSH0 MSTORE PUSH1 0x20 PUSH0 KECCAK256 SWAP1 JUMPDEST DUP2 SLOAD DUP2 MSTORE SWAP1 PUSH1 0x1 ADD SWAP1 PUSH1 0x20 ADD DUP1 DUP4 GT PUSH2 0x8EF JUMPI DUP3 SWAP1 SUB PUSH1 0x1F AND DUP3 ADD SWAP2 JUMPDEST POP POP POP POP POP DUP2 MSTORE PUSH1 0x20 ADD SWAP1 PUSH1 0x1 ADD SWAP1 PUSH2 0x878 JUMP JUMPDEST POP POP POP SWAP1 DUP3 MSTORE POP PUSH1 0x5 DUP3 ADD SLOAD PUSH1 0x20 DUP3 ADD MSTORE PUSH1 0x6 DUP3 ADD SLOAD PUSH1 0xFF AND ISZERO ISZERO PUSH1 0x40 DUP3 ADD MSTORE PUSH1 0x7 DUP3 ADD SLOAD PUSH1 0x60 DUP3 ADD MSTORE PUSH1 0x8 SWAP1 SWAP2 ADD SLOAD PUSH1 0x80 SWAP1 SWAP2 ADD MSTORE SWAP4 SWAP3 POP POP POP JUMP JUMPDEST PUSH0 SLOAD PUSH1 0x1 PUSH1 0x1 PUSH1 0xA0 SHL SUB AND CALLER EQ DUP1 PUSH2 0x99D JUMPI POP CALLER PUSH1 0x1 PUSH1 0x1 PUSH1 0xA0 SHL SUB PUSH32 0x0 AND EQ JUMPDEST PUSH2 0xA0F JUMPI PUSH1 0x40 MLOAD PUSH3 0x461BCD PUSH1 0xE5 SHL DUP2 MSTORE PUSH1 0x20 PUSH1 0x4 DUP3 ADD MSTORE PUSH1 0x2B PUSH1 0x24 DUP3 ADD MSTORE PUSH32 0x4F6E6C79206F776E6572206F72206261636B656E642063616E20736574206461 PUSH1 0x44 DUP3 ADD MSTORE PUSH32 0x696C7920636C61696D6564000000000000000000000000000000000000000000 PUSH1 0x64 DUP3 ADD MSTORE PUSH1 0x84 ADD PUSH2 0x6FB JUMP JUMPDEST PUSH1 0x1 PUSH1 0x1 PUSH1 0xA0 SHL SUB DUP2 AND PUSH2 0xA65 JUMPI PUSH1 0x40 MLOAD PUSH3 0x461BCD PUSH1 0xE5 SHL DUP2 MSTORE PUSH1 0x20 PUSH1 0x4 DUP3 ADD MSTORE PUSH1 0x14 PUSH1 0x24 DUP3 ADD MSTORE PUSH32 0x496E76616C696420757365722061646472657373000000000000000000000000 PUSH1 0x44 DUP3 ADD MSTORE PUSH1 0x64 ADD PUSH2 0x6FB JUMP JUMPDEST PUSH1 0x1 PUSH1 0x1 PUSH1 0xA0 SHL SUB DUP2 AND PUSH0 SWAP1 DUP2 MSTORE PUSH1 0x5 PUSH1 0x20 MSTORE PUSH1 0x40 SWAP1 KECCAK256 DUP1 SLOAD TIMESTAMP SWAP1 PUSH2 0xAAB SWAP1 PUSH32 0x0 SWAP1 PUSH2 0x1A26 JUMP JUMPDEST DUP2 LT ISZERO PUSH2 0xAFA JUMPI PUSH1 0x40 MLOAD PUSH3 0x461BCD PUSH1 0xE5 SHL DUP2 MSTORE PUSH1 0x20 PUSH1 0x4 DUP3 ADD MSTORE PUSH1 0x1C PUSH1 0x24 DUP3 ADD MSTORE PUSH32 0x4461696C7920636C61696D20636F6F6C646F776E206E6F74206D657400000000 PUSH1 0x44 DUP3 ADD MSTORE PUSH1 0x64 ADD PUSH2 0x6FB JUMP JUMPDEST DUP1 DUP3 SSTORE PUSH1 0x1 DUP1 DUP4 ADD DUP1 SLOAD PUSH1 0xFF NOT AND SWAP1 SWAP2 OR SWAP1 SSTORE PUSH1 0x40 MLOAD PUSH32 0x0 DUP2 MSTORE PUSH1 0x1 PUSH1 0x1 PUSH1 0xA0 SHL SUB DUP5 AND SWAP1 PUSH32 0xB924AB64C28BC1C27FC5A56DF34D576DFEBBF347EA99C0E51ABC4A46F458A77C SWAP1 PUSH1 0x20 ADD PUSH1 0x40 MLOAD DUP1 SWAP2 SUB SWAP1 LOG2 POP POP POP JUMP JUMPDEST PUSH0 SLOAD PUSH1 0x1 PUSH1 0x1 PUSH1 0xA0 SHL SUB AND CALLER EQ PUSH2 0xBD3 JUMPI PUSH1 0x40 MLOAD PUSH3 0x461BCD PUSH1 0xE5 SHL DUP2 MSTORE PUSH1 0x20 PUSH1 0x4 DUP3 ADD MSTORE PUSH1 0x21 PUSH1 0x24 DUP3 ADD MSTORE PUSH32 0x4F6E6C79206F776E65722063616E2063616C6C20746869732066756E6374696F PUSH1 0x44 DUP3 ADD MSTORE PUSH1 0x37 PUSH1 0xF9 SHL PUSH1 0x64 DUP3 ADD MSTORE PUSH1 0x84 ADD PUSH2 0x6FB JUMP JUMPDEST TIMESTAMP DUP2 GT PUSH2 0xC22 JUMPI PUSH1 0x40 MLOAD PUSH3 0x461BCD PUSH1 0xE5 SHL DUP2 MSTORE PUSH1 0x20 PUSH1 0x4 DUP3 ADD MSTORE PUSH1 0x1E PUSH1 0x24 DUP3 ADD MSTORE PUSH32 0x456E642064617465206D75737420626520696E20746865206675747572650000 PUSH1 0x44 DUP3 ADD MSTORE PUSH1 0x64 ADD PUSH2 0x6FB JUMP JUMPDEST PUSH0 DUP4 MLOAD GT PUSH2 0xC98 JUMPI PUSH1 0x40 MLOAD PUSH3 0x461BCD PUSH1 0xE5 SHL DUP2 MSTORE PUSH1 0x20 PUSH1 0x4 DUP3 ADD MSTORE PUSH1 0x28 PUSH1 0x24 DUP3 ADD MSTORE PUSH32 0x5175657374206D7573742068617665206174206C65617374206F6E6520726571 PUSH1 0x44 DUP3 ADD MSTORE PUSH32 0x756972656D656E74000000000000000000000000000000000000000000000000 PUSH1 0x64 DUP3 ADD MSTORE PUSH1 0x84 ADD PUSH2 0x6FB JUMP JUMPDEST PUSH1 0x1 DUP1 SLOAD SWAP1 PUSH0 PUSH2 0xCA7 DUP4 PUSH2 0x1A85 JUMP JUMPDEST SWAP1 SWAP2 SSTORE POP POP PUSH1 0x40 DUP1 MLOAD PUSH2 0x120 DUP2 ADD DUP3 MSTORE PUSH1 0x1 DUP1 SLOAD DUP1 DUP4 MSTORE PUSH1 0x20 DUP1 DUP5 ADD DUP12 DUP2 MSTORE DUP5 DUP7 ADD DUP12 SWAP1 MSTORE PUSH1 0x60 DUP6 ADD DUP11 SWAP1 MSTORE PUSH1 0x80 DUP6 ADD DUP10 SWAP1 MSTORE PUSH1 0xA0 DUP6 ADD DUP9 SWAP1 MSTORE PUSH1 0xC0 DUP6 ADD DUP5 SWAP1 MSTORE TIMESTAMP PUSH1 0xE0 DUP7 ADD MSTORE PUSH2 0x100 DUP6 ADD DUP8 SWAP1 MSTORE PUSH0 SWAP3 DUP4 MSTORE PUSH1 0x2 SWAP1 SWAP2 MSTORE SWAP4 SWAP1 KECCAK256 DUP3 MLOAD DUP2 SSTORE SWAP3 MLOAD SWAP2 SWAP3 SWAP2 SWAP1 DUP3 ADD SWAP1 PUSH2 0xD19 SWAP1 DUP3 PUSH2 0x1AE9 JUMP JUMPDEST POP PUSH1 0x40 DUP3 ADD MLOAD PUSH1 0x2 DUP3 ADD SWAP1 PUSH2 0xD2E SWAP1 DUP3 PUSH2 0x1AE9 JUMP JUMPDEST POP PUSH1 0x60 DUP3 ADD MLOAD PUSH1 0x3 DUP3 ADD SSTORE PUSH1 0x80 DUP3 ADD MLOAD DUP1 MLOAD PUSH2 0xD54 SWAP2 PUSH1 0x4 DUP5 ADD SWAP2 PUSH1 0x20 SWAP1 SWAP2 ADD SWAP1 PUSH2 0x144A JUMP JUMPDEST POP PUSH1 0xA0 DUP3 ADD MLOAD PUSH1 0x5 DUP3 ADD SSTORE PUSH1 0xC0 DUP3 ADD MLOAD PUSH1 0x6 DUP3 ADD DUP1 SLOAD PUSH1 0xFF NOT AND SWAP2 ISZERO ISZERO SWAP2 SWAP1 SWAP2 OR SWAP1 SSTORE PUSH1 0xE0 DUP3 ADD MLOAD PUSH1 0x7 DUP3 ADD SSTORE PUSH2 0x100 SWAP1 SWAP2 ADD MLOAD PUSH1 0x8 SWAP1 SWAP2 ADD SSTORE PUSH1 0x1 SLOAD PUSH1 0x40 MLOAD PUSH32 0x81A3E146B56E9690728C0EB05145923B1D36A59D7DC8175AD7133D1AEF84F36 SWAP1 PUSH2 0xDC5 SWAP1 DUP10 SWAP1 DUP9 SWAP1 DUP7 SWAP1 PUSH2 0x1BA9 JUMP JUMPDEST PUSH1 0x40 MLOAD DUP1 SWAP2 SUB SWAP1 LOG2 POP POP POP POP POP POP JUMP JUMPDEST PUSH2 0xDDD PUSH2 0x149E JUMP JUMPDEST PUSH1 0x1 PUSH1 0x1 PUSH1 0xA0 SHL SUB DUP3 AND PUSH0 SWAP1 DUP2 MSTORE PUSH1 0x4 PUSH1 0x20 MSTORE PUSH1 0x40 DUP2 KECCAK256 SLOAD PUSH8 0xFFFFFFFFFFFFFFFF DUP2 GT ISZERO PUSH2 0xE0D JUMPI PUSH2 0xE0D PUSH2 0x1737 JUMP JUMPDEST PUSH1 0x40 MLOAD SWAP1 DUP1 DUP3 MSTORE DUP1 PUSH1 0x20 MUL PUSH1 0x20 ADD DUP3 ADD PUSH1 0x40 MSTORE DUP1 ISZERO PUSH2 0xE36 JUMPI DUP2 PUSH1 0x20 ADD PUSH1 0x20 DUP3 MUL DUP1 CALLDATASIZE DUP4 CALLDATACOPY ADD SWAP1 POP JUMPDEST POP SWAP1 POP PUSH0 PUSH1 0x1 JUMPDEST PUSH1 0x1 SLOAD DUP2 GT PUSH2 0xEAF JUMPI PUSH1 0x1 PUSH1 0x1 PUSH1 0xA0 SHL SUB DUP6 AND PUSH0 SWAP1 DUP2 MSTORE PUSH1 0x3 PUSH1 0x20 SWAP1 DUP2 MSTORE PUSH1 0x40 DUP1 DUP4 KECCAK256 DUP5 DUP5 MSTORE SWAP1 SWAP2 MSTORE SWAP1 KECCAK256 SLOAD PUSH1 0xFF AND ISZERO PUSH2 0xE9D JUMPI DUP1 DUP4 DUP4 DUP2 MLOAD DUP2 LT PUSH2 0xE84 JUMPI PUSH2 0xE84 PUSH2 0x1A71 JUMP JUMPDEST PUSH1 0x20 SWAP1 DUP2 MUL SWAP2 SWAP1 SWAP2 ADD ADD MSTORE DUP2 PUSH2 0xE99 DUP2 PUSH2 0x1A85 JUMP JUMPDEST SWAP3 POP POP JUMPDEST DUP1 PUSH2 0xEA7 DUP2 PUSH2 0x1A85 JUMP JUMPDEST SWAP2 POP POP PUSH2 0xE3D JUMP JUMPDEST POP PUSH1 0x1 PUSH1 0x1 PUSH1 0xA0 SHL SUB DUP5 AND PUSH0 SWAP1 DUP2 MSTORE PUSH1 0x5 PUSH1 0x20 SWAP1 DUP2 MSTORE PUSH1 0x40 DUP1 DUP4 KECCAK256 DUP2 MLOAD DUP1 DUP4 ADD SWAP1 SWAP3 MSTORE DUP1 SLOAD DUP1 DUP4 MSTORE PUSH1 0x1 SWAP1 SWAP2 ADD SLOAD PUSH1 0xFF AND ISZERO ISZERO SWAP3 DUP3 ADD SWAP3 SWAP1 SWAP3 MSTORE SWAP2 TIMESTAMP SWAP2 DUP2 SWAP1 DUP2 SUB PUSH2 0xEFF JUMPI POP PUSH1 0x1 SWAP1 POP PUSH0 PUSH2 0xF74 JUMP JUMPDEST DUP4 MLOAD PUSH0 SWAP1 PUSH2 0xF0D SWAP1 DUP6 PUSH2 0x1BCD JUMP JUMPDEST SWAP1 POP PUSH32 0x0 DUP2 LT PUSH2 0xF42 JUMPI PUSH1 0x1 SWAP3 POP PUSH0 SWAP2 POP PUSH2 0xF72 JUMP JUMPDEST PUSH0 SWAP3 POP PUSH2 0xF6F DUP2 PUSH32 0x0 PUSH2 0x1BCD JUMP JUMPDEST SWAP2 POP JUMPDEST POP JUMPDEST PUSH1 0x40 DUP1 MLOAD PUSH1 0xA0 DUP2 ADD DUP3 MSTORE SWAP7 DUP8 MSTORE PUSH1 0x1 PUSH1 0x1 PUSH1 0xA0 SHL SUB SWAP1 SWAP9 AND PUSH0 SWAP1 DUP2 MSTORE PUSH1 0x4 PUSH1 0x20 SWAP1 DUP2 MSTORE SWAP1 DUP10 SWAP1 KECCAK256 SLOAD SWAP1 DUP8 ADD MSTORE SWAP7 DUP6 ADD SWAP3 SWAP1 SWAP3 MSTORE POP ISZERO ISZERO PUSH1 0x60 DUP4 ADD MSTORE POP PUSH1 0x80 DUP2 ADD SWAP3 SWAP1 SWAP3 MSTORE POP SWAP1 JUMP JUMPDEST DUP1 PUSH0 DUP2 GT DUP1 ISZERO PUSH2 0xFCE JUMPI POP PUSH1 0x1 SLOAD DUP2 GT ISZERO JUMPDEST PUSH2 0x101A JUMPI PUSH1 0x40 MLOAD PUSH3 0x461BCD PUSH1 0xE5 SHL DUP2 MSTORE PUSH1 0x20 PUSH1 0x4 DUP3 ADD MSTORE PUSH1 0x14 PUSH1 0x24 DUP3 ADD MSTORE PUSH32 0x517565737420646F6573206E6F74206578697374000000000000000000000000 PUSH1 0x44 DUP3 ADD MSTORE PUSH1 0x64 ADD PUSH2 0x6FB JUMP JUMPDEST PUSH0 DUP3 DUP2 MSTORE PUSH1 0x2 PUSH1 0x20 MSTORE PUSH1 0x40 SWAP1 KECCAK256 PUSH1 0x6 ADD SLOAD DUP3 SWAP1 PUSH1 0xFF AND PUSH2 0x107C JUMPI PUSH1 0x40 MLOAD PUSH3 0x461BCD PUSH1 0xE5 SHL DUP2 MSTORE PUSH1 0x20 PUSH1 0x4 DUP3 ADD MSTORE PUSH1 0x13 PUSH1 0x24 DUP3 ADD MSTORE PUSH32 0x5175657374206973206E6F742061637469766500000000000000000000000000 PUSH1 0x44 DUP3 ADD MSTORE PUSH1 0x64 ADD PUSH2 0x6FB JUMP JUMPDEST PUSH0 DUP2 DUP2 MSTORE PUSH1 0x2 PUSH1 0x20 MSTORE PUSH1 0x40 SWAP1 KECCAK256 PUSH1 0x8 ADD SLOAD TIMESTAMP GT ISZERO PUSH2 0x10DC JUMPI PUSH1 0x40 MLOAD PUSH3 0x461BCD PUSH1 0xE5 SHL DUP2 MSTORE PUSH1 0x20 PUSH1 0x4 DUP3 ADD MSTORE PUSH1 0x11 PUSH1 0x24 DUP3 ADD MSTORE PUSH32 0x5175657374206861732065787069726564000000000000000000000000000000 PUSH1 0x44 DUP3 ADD MSTORE PUSH1 0x64 ADD PUSH2 0x6FB JUMP JUMPDEST PUSH0 SLOAD PUSH1 0x1 PUSH1 0x1 PUSH1 0xA0 SHL SUB AND CALLER EQ DUP1 PUSH2 0x111C JUMPI POP CALLER PUSH1 0x1 PUSH1 0x1 PUSH1 0xA0 SHL SUB PUSH32 0x0 AND EQ JUMPDEST PUSH2 0x118E JUMPI PUSH1 0x40 MLOAD PUSH3 0x461BCD PUSH1 0xE5 SHL DUP2 MSTORE PUSH1 0x20 PUSH1 0x4 DUP3 ADD MSTORE PUSH1 0x29 PUSH1 0x24 DUP3 ADD MSTORE PUSH32 0x4F6E6C79206F776E6572206F72206261636B656E642063616E20636F6D706C65 PUSH1 0x44 DUP3 ADD MSTORE PUSH32 0x7465207175657374730000000000000000000000000000000000000000000000 PUSH1 0x64 DUP3 ADD MSTORE PUSH1 0x84 ADD PUSH2 0x6FB JUMP JUMPDEST PUSH1 0x1 PUSH1 0x1 PUSH1 0xA0 SHL SUB DUP5 AND PUSH2 0x11E4 JUMPI PUSH1 0x40 MLOAD PUSH3 0x461BCD PUSH1 0xE5 SHL DUP2 MSTORE PUSH1 0x20 PUSH1 0x4 DUP3 ADD MSTORE PUSH1 0x14 PUSH1 0x24 DUP3 ADD MSTORE PUSH32 0x496E76616C696420757365722061646472657373000000000000000000000000 PUSH1 0x44 DUP3 ADD MSTORE PUSH1 0x64 ADD PUSH2 0x6FB JUMP JUMPDEST PUSH1 0x1 PUSH1 0x1 PUSH1 0xA0 SHL SUB DUP5 AND PUSH0 SWAP1 DUP2 MSTORE PUSH1 0x3 PUSH1 0x20 SWAP1 DUP2 MSTORE PUSH1 0x40 DUP1 DUP4 KECCAK256 DUP7 DUP5 MSTORE SWAP1 SWAP2 MSTORE SWAP1 KECCAK256 SLOAD PUSH1 0xFF AND ISZERO PUSH2 0x1257 JUMPI PUSH1 0x40 MLOAD PUSH3 0x461BCD PUSH1 0xE5 SHL DUP2 MSTORE PUSH1 0x20 PUSH1 0x4 DUP3 ADD MSTORE PUSH1 0x17 PUSH1 0x24 DUP3 ADD MSTORE PUSH32 0x517565737420616C726561647920636F6D706C65746564000000000000000000 PUSH1 0x44 DUP3 ADD MSTORE PUSH1 0x64 ADD PUSH2 0x6FB JUMP JUMPDEST PUSH1 0x40 DUP1 MLOAD DUP1 DUP3 ADD DUP3 MSTORE PUSH1 0x1 DUP1 DUP3 MSTORE TIMESTAMP PUSH1 0x20 DUP1 DUP5 ADD SWAP2 DUP3 MSTORE PUSH1 0x1 PUSH1 0x1 PUSH1 0xA0 SHL SUB DUP10 AND PUSH0 DUP2 DUP2 MSTORE PUSH1 0x3 DUP4 MSTORE DUP7 DUP2 KECCAK256 DUP11 DUP3 MSTORE DUP4 MSTORE DUP7 DUP2 KECCAK256 SWAP6 MLOAD DUP7 SLOAD PUSH1 0xFF NOT AND SWAP1 ISZERO ISZERO OR DUP7 SSTORE SWAP3 MLOAD SWAP5 SWAP1 SWAP4 ADD SWAP4 SWAP1 SWAP4 SSTORE SWAP1 DUP2 MSTORE PUSH1 0x4 SWAP1 SWAP2 MSTORE SWAP1 DUP2 KECCAK256 DUP1 SLOAD SWAP2 PUSH2 0x12BA DUP4 PUSH2 0x1A85 JUMP JUMPDEST SWAP1 SWAP2 SSTORE POP POP PUSH1 0x40 MLOAD DUP4 SWAP1 PUSH1 0x1 PUSH1 0x1 PUSH1 0xA0 SHL SUB DUP7 AND SWAP1 PUSH32 0x6618F11353F68847DC28CC4B36A04270FAB5E356FA35386E6315BA7FF205A633 SWAP1 PUSH0 SWAP1 LOG3 POP POP POP POP JUMP JUMPDEST PUSH1 0x2 PUSH1 0x20 MSTORE PUSH0 SWAP1 DUP2 MSTORE PUSH1 0x40 SWAP1 KECCAK256 DUP1 SLOAD PUSH1 0x1 DUP3 ADD DUP1 SLOAD SWAP2 SWAP3 SWAP2 PUSH2 0x131B SWAP1 PUSH2 0x1A3F JUMP JUMPDEST DUP1 PUSH1 0x1F ADD PUSH1 0x20 DUP1 SWAP2 DIV MUL PUSH1 0x20 ADD PUSH1 0x40 MLOAD SWAP1 DUP2 ADD PUSH1 0x40 MSTORE DUP1 SWAP3 SWAP2 SWAP1 DUP2 DUP2 MSTORE PUSH1 0x20 ADD DUP3 DUP1 SLOAD PUSH2 0x1347 SWAP1 PUSH2 0x1A3F JUMP JUMPDEST DUP1 ISZERO PUSH2 0x1392 JUMPI DUP1 PUSH1 0x1F LT PUSH2 0x1369 JUMPI PUSH2 0x100 DUP1 DUP4 SLOAD DIV MUL DUP4 MSTORE SWAP2 PUSH1 0x20 ADD SWAP2 PUSH2 0x1392 JUMP JUMPDEST DUP3 ADD SWAP2 SWAP1 PUSH0 MSTORE PUSH1 0x20 PUSH0 KECCAK256 SWAP1 JUMPDEST DUP2 SLOAD DUP2 MSTORE SWAP1 PUSH1 0x1 ADD SWAP1 PUSH1 0x20 ADD DUP1 DUP4 GT PUSH2 0x1375 JUMPI DUP3 SWAP1 SUB PUSH1 0x1F AND DUP3 ADD SWAP2 JUMPDEST POP POP POP POP POP SWAP1 DUP1 PUSH1 0x2 ADD DUP1 SLOAD PUSH2 0x13A7 SWAP1 PUSH2 0x1A3F JUMP JUMPDEST DUP1 PUSH1 0x1F ADD PUSH1 0x20 DUP1 SWAP2 DIV MUL PUSH1 0x20 ADD PUSH1 0x40 MLOAD SWAP1 DUP2 ADD PUSH1 0x40 MSTORE DUP1 SWAP3 SWAP2 SWAP1 DUP2 DUP2 MSTORE PUSH1 0x20 ADD DUP3 DUP1 SLOAD PUSH2 0x13D3 SWAP1 PUSH2 0x1A3F JUMP JUMPDEST DUP1 ISZERO PUSH2 0x141E JUMPI DUP1 PUSH1 0x1F LT PUSH2 0x13F5 JUMPI PUSH2 0x100 DUP1 DUP4 SLOAD DIV MUL DUP4 MSTORE SWAP2 PUSH1 0x20 ADD SWAP2 PUSH2 0x141E JUMP JUMPDEST DUP3 ADD SWAP2 SWAP1 PUSH0 MSTORE PUSH1 0x20 PUSH0 KECCAK256 SWAP1 JUMPDEST DUP2 SLOAD DUP2 MSTORE SWAP1 PUSH1 0x1 ADD SWAP1 PUSH1 0x20 ADD DUP1 DUP4 GT PUSH2 0x1401 JUMPI DUP3 SWAP1 SUB PUSH1 0x1F AND DUP3 ADD SWAP2 JUMPDEST POP POP POP PUSH1 0x3 DUP5 ADD SLOAD PUSH1 0x5 DUP6 ADD SLOAD PUSH1 0x6 DUP7 ADD SLOAD PUSH1 0x7 DUP8 ADD SLOAD PUSH1 0x8 SWAP1 SWAP8 ADD SLOAD SWAP6 SWAP7 SWAP3 SWAP6 SWAP2 SWAP5 POP PUSH1 0xFF AND SWAP3 POP DUP9 JUMP JUMPDEST DUP3 DUP1 SLOAD DUP3 DUP3 SSTORE SWAP1 PUSH0 MSTORE PUSH1 0x20 PUSH0 KECCAK256 SWAP1 DUP2 ADD SWAP3 DUP3 ISZERO PUSH2 0x148E JUMPI SWAP2 PUSH1 0x20 MUL DUP3 ADD JUMPDEST DUP3 DUP2 GT ISZERO PUSH2 0x148E JUMPI DUP3 MLOAD DUP3 SWAP1 PUSH2 0x147E SWAP1 DUP3 PUSH2 0x1AE9 JUMP JUMPDEST POP SWAP2 PUSH1 0x20 ADD SWAP2 SWAP1 PUSH1 0x1 ADD SWAP1 PUSH2 0x1468 JUMP JUMPDEST POP PUSH2 0x149A SWAP3 SWAP2 POP PUSH2 0x14E6 JUMP JUMPDEST POP SWAP1 JUMP JUMPDEST PUSH1 0x40 MLOAD DUP1 PUSH1 0xA0 ADD PUSH1 0x40 MSTORE DUP1 PUSH1 0x60 DUP2 MSTORE PUSH1 0x20 ADD PUSH0 DUP2 MSTORE PUSH1 0x20 ADD PUSH2 0x14D3 PUSH1 0x40 MLOAD DUP1 PUSH1 0x40 ADD PUSH1 0x40 MSTORE DUP1 PUSH0 DUP2 MSTORE PUSH1 0x20 ADD PUSH0 ISZERO ISZERO DUP2 MSTORE POP SWAP1 JUMP JUMPDEST DUP2 MSTORE PUSH0 PUSH1 0x20 DUP3 ADD DUP2 SWAP1 MSTORE PUSH1 0x40 SWAP1 SWAP2 ADD MSTORE SWAP1 JUMP JUMPDEST DUP1 DUP3 GT ISZERO PUSH2 0x149A JUMPI PUSH0 PUSH2 0x14F9 DUP3 DUP3 PUSH2 0x1502 JUMP JUMPDEST POP PUSH1 0x1 ADD PUSH2 0x14E6 JUMP JUMPDEST POP DUP1 SLOAD PUSH2 0x150E SWAP1 PUSH2 0x1A3F JUMP JUMPDEST PUSH0 DUP3 SSTORE DUP1 PUSH1 0x1F LT PUSH2 0x151D JUMPI POP POP JUMP JUMPDEST PUSH1 0x1F ADD PUSH1 0x20 SWAP1 DIV SWAP1 PUSH0 MSTORE PUSH1 0x20 PUSH0 KECCAK256 SWAP1 DUP2 ADD SWAP1 PUSH2 0x1539 SWAP2 SWAP1 PUSH2 0x153C JUMP JUMPDEST POP JUMP JUMPDEST JUMPDEST DUP1 DUP3 GT ISZERO PUSH2 0x149A JUMPI PUSH0 DUP2 SSTORE PUSH1 0x1 ADD PUSH2 0x153D JUMP JUMPDEST DUP1 CALLDATALOAD PUSH1 0x1 PUSH1 0x1 PUSH1 0xA0 SHL SUB DUP2 AND DUP2 EQ PUSH2 0x1566 JUMPI PUSH0 DUP1 REVERT JUMPDEST SWAP2 SWAP1 POP JUMP JUMPDEST PUSH0 PUSH1 0x20 DUP3 DUP5 SUB SLT ISZERO PUSH2 0x157B JUMPI PUSH0 DUP1 REVERT JUMPDEST PUSH2 0x1584 DUP3 PUSH2 0x1550 JUMP JUMPDEST SWAP4 SWAP3 POP POP POP JUMP JUMPDEST PUSH0 DUP2 MLOAD DUP1 DUP5 MSTORE DUP1 PUSH1 0x20 DUP5 ADD PUSH1 0x20 DUP7 ADD MCOPY PUSH0 PUSH1 0x20 DUP3 DUP7 ADD ADD MSTORE PUSH1 0x20 PUSH1 0x1F NOT PUSH1 0x1F DUP4 ADD AND DUP6 ADD ADD SWAP2 POP POP SWAP3 SWAP2 POP POP JUMP JUMPDEST PUSH0 DUP3 DUP3 MLOAD DUP1 DUP6 MSTORE PUSH1 0x20 DUP1 DUP7 ADD SWAP6 POP PUSH1 0x20 DUP3 PUSH1 0x5 SHL DUP5 ADD ADD PUSH1 0x20 DUP7 ADD PUSH0 JUMPDEST DUP5 DUP2 LT ISZERO PUSH2 0x1604 JUMPI PUSH1 0x1F NOT DUP7 DUP5 SUB ADD DUP10 MSTORE PUSH2 0x15F2 DUP4 DUP4 MLOAD PUSH2 0x158B JUMP JUMPDEST SWAP9 DUP5 ADD SWAP9 SWAP3 POP SWAP1 DUP4 ADD SWAP1 PUSH1 0x1 ADD PUSH2 0x15D6 JUMP JUMPDEST POP SWAP1 SWAP8 SWAP7 POP POP POP POP POP POP POP JUMP JUMPDEST PUSH0 PUSH2 0x120 DUP3 MLOAD DUP5 MSTORE PUSH1 0x20 DUP4 ADD MLOAD DUP2 PUSH1 0x20 DUP7 ADD MSTORE PUSH2 0x1630 DUP3 DUP7 ADD DUP3 PUSH2 0x158B JUMP JUMPDEST SWAP2 POP POP PUSH1 0x40 DUP4 ADD MLOAD DUP5 DUP3 SUB PUSH1 0x40 DUP7 ADD MSTORE PUSH2 0x164A DUP3 DUP3 PUSH2 0x158B JUMP JUMPDEST SWAP2 POP POP PUSH1 0x60 DUP4 ADD MLOAD PUSH1 0x60 DUP6 ADD MSTORE PUSH1 0x80 DUP4 ADD MLOAD DUP5 DUP3 SUB PUSH1 0x80 DUP7 ADD MSTORE PUSH2 0x166E DUP3 DUP3 PUSH2 0x15B9 JUMP JUMPDEST SWAP2 POP POP PUSH1 0xA0 DUP4 ADD MLOAD PUSH1 0xA0 DUP6 ADD MSTORE PUSH1 0xC0 DUP4 ADD MLOAD PUSH2 0x168E PUSH1 0xC0 DUP7 ADD DUP3 ISZERO ISZERO SWAP1 MSTORE JUMP JUMPDEST POP PUSH1 0xE0 DUP4 DUP2 ADD MLOAD SWAP1 DUP6 ADD MSTORE PUSH2 0x100 SWAP3 DUP4 ADD MLOAD SWAP3 SWAP1 SWAP4 ADD SWAP2 SWAP1 SWAP2 MSTORE POP SWAP1 JUMP JUMPDEST PUSH0 PUSH1 0x20 DUP1 DUP4 ADD PUSH1 0x20 DUP5 MSTORE DUP1 DUP6 MLOAD DUP1 DUP4 MSTORE PUSH1 0x40 DUP7 ADD SWAP2 POP PUSH1 0x40 DUP2 PUSH1 0x5 SHL DUP8 ADD ADD SWAP3 POP PUSH1 0x20 DUP8 ADD PUSH0 JUMPDEST DUP3 DUP2 LT ISZERO PUSH2 0x1701 JUMPI PUSH1 0x3F NOT DUP9 DUP7 SUB ADD DUP5 MSTORE PUSH2 0x16EF DUP6 DUP4 MLOAD PUSH2 0x1611 JUMP JUMPDEST SWAP5 POP SWAP3 DUP6 ADD SWAP3 SWAP1 DUP6 ADD SWAP1 PUSH1 0x1 ADD PUSH2 0x16D3 JUMP JUMPDEST POP SWAP3 SWAP8 SWAP7 POP POP POP POP POP POP POP JUMP JUMPDEST PUSH0 PUSH1 0x20 DUP3 DUP5 SUB SLT ISZERO PUSH2 0x171E JUMPI PUSH0 DUP1 REVERT JUMPDEST POP CALLDATALOAD SWAP2 SWAP1 POP JUMP JUMPDEST PUSH1 0x20 DUP2 MSTORE PUSH0 PUSH2 0x1584 PUSH1 0x20 DUP4 ADD DUP5 PUSH2 0x1611 JUMP JUMPDEST PUSH4 0x4E487B71 PUSH1 0xE0 SHL PUSH0 MSTORE PUSH1 0x41 PUSH1 0x4 MSTORE PUSH1 0x24 PUSH0 REVERT JUMPDEST PUSH1 0x40 MLOAD PUSH1 0x1F DUP3 ADD PUSH1 0x1F NOT AND DUP2 ADD PUSH8 0xFFFFFFFFFFFFFFFF DUP2 GT DUP3 DUP3 LT OR ISZERO PUSH2 0x1774 JUMPI PUSH2 0x1774 PUSH2 0x1737 JUMP JUMPDEST PUSH1 0x40 MSTORE SWAP2 SWAP1 POP JUMP JUMPDEST PUSH0 DUP3 PUSH1 0x1F DUP4 ADD SLT PUSH2 0x178B JUMPI PUSH0 DUP1 REVERT JUMPDEST DUP2 CALLDATALOAD PUSH8 0xFFFFFFFFFFFFFFFF DUP2 GT ISZERO PUSH2 0x17A5 JUMPI PUSH2 0x17A5 PUSH2 0x1737 JUMP JUMPDEST PUSH2 0x17B8 PUSH1 0x1F DUP3 ADD PUSH1 0x1F NOT AND PUSH1 0x20 ADD PUSH2 0x174B JUMP JUMPDEST DUP2 DUP2 MSTORE DUP5 PUSH1 0x20 DUP4 DUP7 ADD ADD GT ISZERO PUSH2 0x17CC JUMPI PUSH0 DUP1 REVERT JUMPDEST DUP2 PUSH1 0x20 DUP6 ADD PUSH1 0x20 DUP4 ADD CALLDATACOPY PUSH0 SWAP2 DUP2 ADD PUSH1 0x20 ADD SWAP2 SWAP1 SWAP2 MSTORE SWAP4 SWAP3 POP POP POP JUMP JUMPDEST PUSH0 DUP1 PUSH0 DUP1 PUSH0 DUP1 PUSH1 0xC0 DUP8 DUP10 SUB SLT ISZERO PUSH2 0x17FD JUMPI PUSH0 DUP1 REVERT JUMPDEST PUSH8 0xFFFFFFFFFFFFFFFF DUP1 DUP9 CALLDATALOAD GT ISZERO PUSH2 0x1813 JUMPI PUSH0 DUP1 REVERT JUMPDEST PUSH2 0x1820 DUP10 DUP10 CALLDATALOAD DUP11 ADD PUSH2 0x177C JUMP JUMPDEST SWAP7 POP PUSH1 0x20 DUP1 DUP10 ADD CALLDATALOAD DUP3 DUP2 GT ISZERO PUSH2 0x1834 JUMPI PUSH0 DUP1 REVERT JUMPDEST PUSH2 0x1840 DUP12 DUP3 DUP13 ADD PUSH2 0x177C JUMP JUMPDEST SWAP8 POP POP PUSH1 0x40 DUP10 ADD CALLDATALOAD SWAP6 POP PUSH1 0x60 DUP10 ADD CALLDATALOAD DUP3 DUP2 GT ISZERO PUSH2 0x185B JUMPI PUSH0 DUP1 REVERT JUMPDEST DUP10 ADD PUSH1 0x1F DUP2 ADD DUP12 SGT PUSH2 0x186B JUMPI PUSH0 DUP1 REVERT JUMPDEST DUP1 CALLDATALOAD DUP4 DUP2 GT ISZERO PUSH2 0x187D JUMPI PUSH2 0x187D PUSH2 0x1737 JUMP JUMPDEST DUP1 PUSH1 0x5 SHL PUSH2 0x188C DUP5 DUP3 ADD PUSH2 0x174B JUMP JUMPDEST SWAP2 DUP3 MSTORE DUP3 DUP2 ADD DUP5 ADD SWAP2 DUP5 DUP2 ADD SWAP1 DUP15 DUP5 GT ISZERO PUSH2 0x18A5 JUMPI PUSH0 DUP1 REVERT JUMPDEST DUP6 DUP6 ADD SWAP3 POP JUMPDEST DUP4 DUP4 LT ISZERO PUSH2 0x18DE JUMPI DUP7 DUP4 CALLDATALOAD GT ISZERO PUSH2 0x18C0 JUMPI PUSH0 DUP1 REVERT JUMPDEST PUSH2 0x18CF DUP16 DUP8 DUP6 CALLDATALOAD DUP9 ADD ADD PUSH2 0x177C JUMP JUMPDEST DUP3 MSTORE SWAP2 DUP6 ADD SWAP2 SWAP1 DUP6 ADD SWAP1 PUSH2 0x18AB JUMP JUMPDEST SWAP12 SWAP15 SWAP11 SWAP14 POP SWAP9 SWAP12 PUSH1 0x80 DUP2 ADD CALLDATALOAD SWAP11 PUSH1 0xA0 SWAP1 SWAP2 ADD CALLDATALOAD SWAP10 POP SWAP8 POP POP POP POP POP POP POP POP JUMP JUMPDEST PUSH0 DUP1 PUSH1 0x40 DUP4 DUP6 SUB SLT ISZERO PUSH2 0x190F JUMPI PUSH0 DUP1 REVERT JUMPDEST PUSH2 0x1918 DUP4 PUSH2 0x1550 JUMP JUMPDEST SWAP5 PUSH1 0x20 SWAP4 SWAP1 SWAP4 ADD CALLDATALOAD SWAP4 POP POP POP JUMP JUMPDEST PUSH1 0x20 DUP1 DUP3 MSTORE DUP3 MLOAD PUSH1 0xC0 DUP4 DUP4 ADD MSTORE DUP1 MLOAD PUSH1 0xE0 DUP5 ADD DUP2 SWAP1 MSTORE PUSH0 SWAP3 SWAP2 DUP3 ADD SWAP1 DUP4 SWAP1 PUSH2 0x100 DUP7 ADD SWAP1 JUMPDEST DUP1 DUP4 LT ISZERO PUSH2 0x196B JUMPI DUP4 MLOAD DUP3 MSTORE SWAP3 DUP5 ADD SWAP3 PUSH1 0x1 SWAP3 SWAP1 SWAP3 ADD SWAP2 SWAP1 DUP5 ADD SWAP1 PUSH2 0x194B JUMP JUMPDEST POP DUP4 DUP8 ADD MLOAD PUSH1 0x40 DUP8 ADD MSTORE PUSH1 0x40 DUP8 ADD MLOAD SWAP4 POP PUSH2 0x1995 PUSH1 0x60 DUP8 ADD DUP6 DUP1 MLOAD DUP3 MSTORE PUSH1 0x20 SWAP1 DUP2 ADD MLOAD ISZERO ISZERO SWAP2 ADD MSTORE JUMP JUMPDEST PUSH1 0x60 DUP8 ADD MLOAD ISZERO ISZERO PUSH1 0xA0 DUP8 ADD MSTORE PUSH1 0x80 SWAP1 SWAP7 ADD MLOAD PUSH1 0xC0 SWAP1 SWAP6 ADD SWAP5 SWAP1 SWAP5 MSTORE POP SWAP3 SWAP4 SWAP3 POP POP POP JUMP JUMPDEST PUSH0 PUSH2 0x100 DUP11 DUP4 MSTORE DUP1 PUSH1 0x20 DUP5 ADD MSTORE PUSH2 0x19D2 DUP2 DUP5 ADD DUP12 PUSH2 0x158B JUMP JUMPDEST SWAP1 POP DUP3 DUP2 SUB PUSH1 0x40 DUP5 ADD MSTORE PUSH2 0x19E6 DUP2 DUP11 PUSH2 0x158B JUMP JUMPDEST PUSH1 0x60 DUP5 ADD SWAP9 SWAP1 SWAP9 MSTORE POP POP PUSH1 0x80 DUP2 ADD SWAP5 SWAP1 SWAP5 MSTORE SWAP2 ISZERO ISZERO PUSH1 0xA0 DUP5 ADD MSTORE PUSH1 0xC0 DUP4 ADD MSTORE PUSH1 0xE0 SWAP1 SWAP2 ADD MSTORE SWAP4 SWAP3 POP POP POP JUMP JUMPDEST PUSH4 0x4E487B71 PUSH1 0xE0 SHL PUSH0 MSTORE PUSH1 0x11 PUSH1 0x4 MSTORE PUSH1 0x24 PUSH0 REVERT JUMPDEST DUP1 DUP3 ADD DUP1 DUP3 GT ISZERO PUSH2 0x1A39 JUMPI PUSH2 0x1A39 PUSH2 0x1A12 JUMP JUMPDEST SWAP3 SWAP2 POP POP JUMP JUMPDEST PUSH1 0x1 DUP2 DUP2 SHR SWAP1 DUP3 AND DUP1 PUSH2 0x1A53 JUMPI PUSH1 0x7F DUP3 AND SWAP2 POP JUMPDEST PUSH1 0x20 DUP3 LT DUP2 SUB PUSH2 0x650 JUMPI PUSH4 0x4E487B71 PUSH1 0xE0 SHL PUSH0 MSTORE PUSH1 0x22 PUSH1 0x4 MSTORE PUSH1 0x24 PUSH0 REVERT JUMPDEST PUSH4 0x4E487B71 PUSH1 0xE0 SHL PUSH0 MSTORE PUSH1 0x32 PUSH1 0x4 MSTORE PUSH1 0x24 PUSH0 REVERT JUMPDEST PUSH0 PUSH1 0x1 DUP3 ADD PUSH2 0x1A96 JUMPI PUSH2 0x1A96 PUSH2 0x1A12 JUMP JUMPDEST POP PUSH1 0x1 ADD SWAP1 JUMP JUMPDEST PUSH1 0x1F DUP3 GT ISZERO PUSH2 0x1AE4 JUMPI DUP1 PUSH0 MSTORE PUSH1 0x20 PUSH0 KECCAK256 PUSH1 0x1F DUP5 ADD PUSH1 0x5 SHR DUP2 ADD PUSH1 0x20 DUP6 LT ISZERO PUSH2 0x1AC2 JUMPI POP DUP1 JUMPDEST PUSH1 0x1F DUP5 ADD PUSH1 0x5 SHR DUP3 ADD SWAP2 POP JUMPDEST DUP2 DUP2 LT ISZERO PUSH2 0x1AE1 JUMPI PUSH0 DUP2 SSTORE PUSH1 0x1 ADD PUSH2 0x1ACE JUMP JUMPDEST POP POP JUMPDEST POP POP POP JUMP JUMPDEST DUP2 MLOAD PUSH8 0xFFFFFFFFFFFFFFFF DUP2 GT ISZERO PUSH2 0x1B03 JUMPI PUSH2 0x1B03 PUSH2 0x1737 JUMP JUMPDEST PUSH2 0x1B17 DUP2 PUSH2 0x1B11 DUP5 SLOAD PUSH2 0x1A3F JUMP JUMPDEST DUP5 PUSH2 0x1A9D JUMP JUMPDEST PUSH1 0x20 DUP1 PUSH1 0x1F DUP4 GT PUSH1 0x1 DUP2 EQ PUSH2 0x1B4A JUMPI PUSH0 DUP5 ISZERO PUSH2 0x1B33 JUMPI POP DUP6 DUP4 ADD MLOAD JUMPDEST PUSH0 NOT PUSH1 0x3 DUP7 SWAP1 SHL SHR NOT AND PUSH1 0x1 DUP6 SWAP1 SHL OR DUP6 SSTORE PUSH2 0x1BA1 JUMP JUMPDEST PUSH0 DUP6 DUP2 MSTORE PUSH1 0x20 DUP2 KECCAK256 PUSH1 0x1F NOT DUP7 AND SWAP2 JUMPDEST DUP3 DUP2 LT ISZERO PUSH2 0x1B78 JUMPI DUP9 DUP7 ADD MLOAD DUP3 SSTORE SWAP5 DUP5 ADD SWAP5 PUSH1 0x1 SWAP1 SWAP2 ADD SWAP1 DUP5 ADD PUSH2 0x1B59 JUMP JUMPDEST POP DUP6 DUP3 LT ISZERO PUSH2 0x1B95 JUMPI DUP8 DUP6 ADD MLOAD PUSH0 NOT PUSH1 0x3 DUP9 SWAP1 SHL PUSH1 0xF8 AND SHR NOT AND DUP2 SSTORE JUMPDEST POP POP PUSH1 0x1 DUP5 PUSH1 0x1 SHL ADD DUP6 SSTORE JUMPDEST POP POP POP POP POP POP JUMP JUMPDEST PUSH1 0x60 DUP2 MSTORE PUSH0 PUSH2 0x1BBB PUSH1 0x60 DUP4 ADD DUP7 PUSH2 0x158B JUMP JUMPDEST PUSH1 0x20 DUP4 ADD SWAP5 SWAP1 SWAP5 MSTORE POP PUSH1 0x40 ADD MSTORE SWAP2 SWAP1 POP JUMP JUMPDEST DUP2 DUP2 SUB DUP2 DUP2 GT ISZERO PUSH2 0x1A39 JUMPI PUSH2 0x1A39 PUSH2 0x1A12 JUMP INVALID LOG2 PUSH5 0x6970667358 0x22 SLT KECCAK256 0xB7 MOD MSTORE8 0xAB 0xDB 0xE7 0xDF 0xD4 DUP9 0xC5 GASPRICE 0xC0 SWAP12 PUSH15 0xEA50D54C9B3387ACA998681B67D478 0xAD 0xD SHL PUSH5 0x736F6C6343 STOP ADDMOD NOT STOP CALLER "
    },
    "gasEstimates": {
      "creation": {
        "codeDepositCost": "1438000",
        "executionCost": "infinite",
        "totalCost": "infinite"
      },
      "external": {
        "backendWallet()": "infinite",
        "claimCooldown()": "infinite",
        "completeQuestForUser(address,uint256)": "infinite",
        "createQuest(string,string,uint256,string[],uint256,uint256)": "infinite",
        "dailyClaims(address)": "4674",
        "dailyRewardAmount()": "infinite",
        "getAllQuests()": "infinite",
        "getQuest(uint256)": "infinite",
        "getTotalQuests()": "2336",
        "getUserDetails(address)": "infinite",
        "owner()": "2402",
        "questCounter()": "2317",
        "quests(uint256)": "infinite",
        "setDailyClaimed(address)": "infinite",
        "totalQuestsCompleted(address)": "2604",
        "userQuests(address,uint256)": "4814"
      }
    },
    "methodIdentifiers": {
      "backendWallet()": "a680baaf",
      "claimCooldown()": "fdea3657",
      "completeQuestForUser(address,uint256)": "dac297c2",
      "createQuest(string,string,uint256,string[],uint256,uint256)": "9387036d",
      "dailyClaims(address)": "15022d98",
      "dailyRewardAmount()": "650b4f1e",
      "getAllQuests()": "3bb659a2",
      "getQuest(uint256)": "49f86f34",
      "getTotalQuests()": "7fc573d2",
      "getUserDetails(address)": "cc3d967b",
      "owner()": "8da5cb5b",
      "questCounter()": "7d7591f0",
      "quests(uint256)": "e085f980",
      "setDailyClaimed(address)": "92d588e9",
      "totalQuestsCompleted(address)": "fe6f1cf4",
      "userQuests(address,uint256)": "9f4d5856"
    }
  },
  "storageLayout": {
    "storage": [
      {
        "astId": 4,
        "contract": "QuestTracker.sol:QuestTracker",
        "label": "owner",
        "offset": 0,
        "slot": "0",
        "type": "t_address"
      },
      {
        "astId": 51,
        "contract": "QuestTracker.sol:QuestTracker",
        "label": "questCounter",
        "offset": 0,
        "slot": "1",
        "type": "t_uint256"
      },
      {
        "astId": 56,
        "contract": "QuestTracker.sol:QuestTracker",
        "label": "quests",
        "offset": 0,
        "slot": "2",
        "type": "t_mapping(t_uint256,t_struct(Quest)26_storage)"
      },
      {
        "astId": 63,
        "contract": "QuestTracker.sol:QuestTracker",
        "label": "userQuests",
        "offset": 0,
        "slot": "3",
        "type": "t_mapping(t_address,t_mapping(t_uint256,t_struct(UserProgress)31_storage))"
      },
      {
        "astId": 67,
        "contract": "QuestTracker.sol:QuestTracker",
        "label": "totalQuestsCompleted",
        "offset": 0,
        "slot": "4",
        "type": "t_mapping(t_address,t_uint256)"
      },
      {
        "astId": 72,
        "contract": "QuestTracker.sol:QuestTracker",
        "label": "dailyClaims",
        "offset": 0,
        "slot": "5",
        "type": "t_mapping(t_address,t_struct(DailyClaim)36_storage)"
      }
    ],
    "types": {
      "t_address": {
        "encoding": "inplace",
        "label": "address",
        "numberOfBytes": "20"
      },
      "t_array(t_string_storage)dyn_storage": {
        "base": "t_string_storage",
        "encoding": "dynamic_array",
        "label": "string[]",
        "numberOfBytes": "32"
      },
      "t_bool": {
        "encoding": "inplace",
        "label": "bool",
        "numberOfBytes": "1"
      },
      "t_mapping(t_address,t_mapping(t_uint256,t_struct(UserProgress)31_storage))": {
        "encoding": "mapping",
        "key": "t_address",
        "label": "mapping(address => mapping(uint256 => struct QuestTracker.UserProgress))",
        "numberOfBytes": "32",
        "value": "t_mapping(t_uint256,t_struct(UserProgress)31_storage)"
      },
      "t_mapping(t_address,t_struct(DailyClaim)36_storage)": {
        "encoding": "mapping",
        "key": "t_address",
        "label": "mapping(address => struct QuestTracker.DailyClaim)",
        "numberOfBytes": "32",
        "value": "t_struct(DailyClaim)36_storage"
      },
      "t_mapping(t_address,t_uint256)": {
        "encoding": "mapping",
        "key": "t_address",
        "label": "mapping(address => uint256)",
        "numberOfBytes": "32",
        "value": "t_uint256"
      },
      "t_mapping(t_uint256,t_struct(Quest)26_storage)": {
        "encoding": "mapping",
        "key": "t_uint256",
        "label": "mapping(uint256 => struct QuestTracker.Quest)",
        "numberOfBytes": "32",
        "value": "t_struct(Quest)26_storage"
      },
      "t_mapping(t_uint256,t_struct(UserProgress)31_storage)": {
        "encoding": "mapping",
        "key": "t_uint256",
        "label": "mapping(uint256 => struct QuestTracker.UserProgress)",
        "numberOfBytes": "32",
        "value": "t_struct(UserProgress)31_storage"
      },
      "t_string_storage": {
        "encoding": "bytes",
        "label": "string",
        "numberOfBytes": "32"
      },
      "t_struct(DailyClaim)36_storage": {
        "encoding": "inplace",
        "label": "struct QuestTracker.DailyClaim",
        "members": [
          {
            "astId": 33,
            "contract": "QuestTracker.sol:QuestTracker",
            "label": "lastClaimTime",
            "offset": 0,
            "slot": "0",
            "type": "t_uint256"
          },
          {
            "astId": 35,
            "contract": "QuestTracker.sol:QuestTracker",
            "label": "claimed",
            "offset": 0,
            "slot": "1",
            "type": "t_bool"
          }
        ],
        "numberOfBytes": "64"
      },
      "t_struct(Quest)26_storage": {
        "encoding": "inplace",
        "label": "struct QuestTracker.Quest",
        "members": [
          {
            "astId": 8,
            "contract": "QuestTracker.sol:QuestTracker",
            "label": "id",
            "offset": 0,
            "slot": "0",
            "type": "t_uint256"
          },
          {
            "astId": 10,
            "contract": "QuestTracker.sol:QuestTracker",
            "label": "title",
            "offset": 0,
            "slot": "1",
            "type": "t_string_storage"
          },
          {
            "astId": 12,
            "contract": "QuestTracker.sol:QuestTracker",
            "label": "description",
            "offset": 0,
            "slot": "2",
            "type": "t_string_storage"
          },
          {
            "astId": 14,
            "contract": "QuestTracker.sol:QuestTracker",
            "label": "reward",
            "offset": 0,
            "slot": "3",
            "type": "t_uint256"
          },
          {
            "astId": 17,
            "contract": "QuestTracker.sol:QuestTracker",
            "label": "requirements",
            "offset": 0,
            "slot": "4",
            "type": "t_array(t_string_storage)dyn_storage"
          },
          {
            "astId": 19,
            "contract": "QuestTracker.sol:QuestTracker",
            "label": "estimatedTimeMinutes",
            "offset": 0,
            "slot": "5",
            "type": "t_uint256"
          },
          {
            "astId": 21,
            "contract": "QuestTracker.sol:QuestTracker",
            "label": "isActive",
            "offset": 0,
            "slot": "6",
            "type": "t_bool"
          },
          {
            "astId": 23,
            "contract": "QuestTracker.sol:QuestTracker",
            "label": "createdAt",
            "offset": 0,
            "slot": "7",
            "type": "t_uint256"
          },
          {
            "astId": 25,
            "contract": "QuestTracker.sol:QuestTracker",
            "label": "endDate",
            "offset": 0,
            "slot": "8",
            "type": "t_uint256"
          }
        ],
        "numberOfBytes": "288"
      },
      "t_struct(UserProgress)31_storage": {
        "encoding": "inplace",
        "label": "struct QuestTracker.UserProgress",
        "members": [
          {
            "astId": 28,
            "contract": "QuestTracker.sol:QuestTracker",
            "label": "completed",
            "offset": 0,
            "slot": "0",
            "type": "t_bool"
          },
          {
            "astId": 30,
            "contract": "QuestTracker.sol:QuestTracker",
            "label": "completedAt",
            "offset": 0,
            "slot": "1",
            "type": "t_uint256"
          }
        ],
        "numberOfBytes": "64"
      },
      "t_uint256": {
        "encoding": "inplace",
        "label": "uint256",
        "numberOfBytes": "32"
      }
    }
  },
  "userdoc": {
    "kind": "user",
    "methods": {},
    "version": 1
  }
}